:020000040800F2
:10000000602B0020294E00086DEE0008E14D00082D
:10001000E14D0008E14D0008E14D0008000000003E
:100020000000000000000000000000002D4100085A
:10003000E14D000800000000D940000891A9000827
:100040000542000805420008054200080542000874
:100050000542000805420008054200080542000864
:100060000542000805420008054200080542000854
:100070000542000805420008054200080542000844
:100080000542000805420008054200080542000834
:100090000542000805420008054200080542000824
:1000A0000542000805420008054200080542000814
:1000B0000542000805420008054200080542000804
:1000C00005420008054200080542000805420008F4
:1000D00005420008054200080542000805420008E4
:1000E00005420008054200080542000805420008D4
:1000F00005420008054200080542000805420008C4
:1001000005420008054200080542000805420008B3
:1001100005420008054200080542000805420008A3
:100120000542000805420008054200080542000893
:100130000542000805420008054200080542000883
:100140000542000805420008054200080542000873
:100150000542000805420008054200080542000863
:100160000542000805420008054200080542000853
:100170000542000805420008054200080542000843
:100180000542000805420008054200080542000833
:04019000054200081C
:0C019400FFFFFFFFFFFFFFFFFFFFFFFF6B
:1001A00001F0FF01102A2BDB10F0070F08D010F828
:1001B000013B013A8B422DD010F0070F42B3F6D12C
:1001C000F0B441EA012141EA014122F007047FF045
:1001D00000070023F0E80256083C85EA010586EA9C
:1001E000010685FA47F5A3FA87F586FA47F6A5FAD8
:1001F00087F68EB9EED1F0BC01F0FF0102F00702E4
:1002000032B110F8013B013A83EA010313B1F8D18E
:100210000020704701387047002D06BF354603386F
:10022000073815F0010F07D1013015F4807F02BFA8
:10023000013015F4C03F0130F0BC0138704700BFF9
:1002400081F0004102E000BF83F0004330B54FEA87
:1002500041044FEA430594EA050F08BF90EA020FF4
:100260001FBF54EA000C55EA020C7FEA645C7FEA87
:10027000655C00F0E2804FEA5454D4EB5555B8BFAA
:100280006D420CDD2C4480EA020281EA030382EA1B
:10029000000083EA010180EA020281EA0303362DAD
:1002A00088BF30BD11F0004F4FEA01314FF4801C80
:1002B0004CEA113102D0404261EB410113F0004F92
:1002C0004FEA03334CEA133302D0524263EB430349
:1002D00094EA050F00F0A780A4F10104D5F1200EE7
:1002E0000DDB02FA0EFC22FA05F2801841F1000142
:1002F00003FA0EF2801843FA05F359410EE0A5F116
:1003000020050EF1200E012A03FA0EFC28BF4CF046
:10031000020C43FA05F3C01851EBE37101F00045FC
:1003200007D54FF0000EDCF1000C7EEB00006EEB09
:100330000101B1F5801F1BD3B1F5001F0CD3490893
:100340005FEA30004FEA3C0C04F101044FEA4452EA
:1003500012F5800F80F09A80BCF1004F08BF5FEA71
:10036000500C50F1000041EB045141EA050130BD51
:100370005FEA4C0C404141EB0101013C28BFB1F563
:10038000801FE9D291F0000F04BF01460020B1FAAE
:1003900081F308BF2033A3F10B03B3F120020CDA81
:1003A0000C3208DD02F1140CC2F10C0201FA0CF05F
:1003B00021FA02F10CE002F11402D8BFC2F1200CC4
:1003C00001FA02F120FA0CFCDCBF41EA0C0190407A
:1003D000E41AA2BF01EB0451294330BD6FEA0404C3
:1003E0001F3C1CDA0C340EDC04F11404C4F12002AE
:1003F00020FA04F001FA02F340EA030021FA04F3C0
:1004000045EA030130BDC4F10C04C4F1200220FA16
:1004100002F001FA04F340EA0300294630BD21FA54
:1004200004F0294630BD94F0000F83F4801306BF1A
:1004300081F480110134013D4EE77FEA645C18BF0E
:100440007FEA655C29D094EA050F08BF90EA020FA5
:1004500005D054EA000C04BF1946104630BD91EA9D
:10046000030F1EBF0021002030BD5FEA545C05D1A0
:100470004000494128BF41F0004130BD14F58004DF
:100480003CBF01F5801130BD01F0004545F0FE4153
:1004900041F470014FF0000030BD7FEA645C1ABF88
:1004A000194610467FEA655C1CBF0B46024650EABF
:1004B000013406BF52EA033591EA030F41F40021EB
:1004C00030BD00BF90F0000F04BF0021704730B571
:1004D0004FF4806404F132044FF000054FF0000146
:1004E00050E700BF90F0000F04BF0021704730B507
:1004F0004FF4806404F1320410F0004548BF4042DC
:100500004FF000013EE700BF42004FEAE2014FEA30
:1005100031014FEA02701FBF12F07F4393F07F4F0B
:1005200081F06051704732F07F4208BF704793F00E
:100530007F4F04BF41F40021704730B54FF4607421
:1005400001F0004521F000411CE700BF50EA010224
:1005500008BF704730B54FF000050AE050EA0102CD
:1005600008BF704730B511F0004502D5404261EB3D
:1005700041014FF4806404F132045FEA915C3FF47E
:10058000D8AE4FF003025FEADC0C18BF03325FEA1B
:10059000DC0C18BF033202EBDC02C2F1200300FACC
:1005A00003FC20FA02F001FA03FE40EA0E0021FAF1
:1005B00002F11444BDE600BF70B54FF0FF0C4CF4DF
:1005C000E06C1CEA11541DBF1CEA135594EA0C0F91
:1005D00095EA0C0F00F0DEF82C4481EA030621EACC
:1005E0004C5123EA4C5350EA013518BF52EA033507
:1005F00041F4801143F4801338D0A0FB02CE4FF0B9
:100600000005E1FB02E506F00042E0FB03E54FF0E8
:100610000006E1FB03569CF0000F18BF4EF0010EE0
:10062000A4F1FF04B6F5007F64F5407404D25FEADC
:100630004E0E6D4146EB060642EAC62141EA55518F
:100640004FEAC52040EA5E504FEACE2EB4F1FD0CD1
:1006500088BFBCF5E06F1ED8BEF1004F08BF5FEA4F
:10066000500E50F1000041EB045170BD06F0004601
:1006700046EA010140EA020081EA0301B4EB5C04AE
:10068000C2BFD4EB0C0541EA045170BD41F48011A6
:100690004FF0000E013C00F3AB8014F1360FDEBFCB
:1006A000002001F0004170BDC4F10004203C35DAA7
:1006B0000C341BDC04F11404C4F1200500FA05F32A
:1006C00020FA04F001FA05F240EA020001F00042CB
:1006D00021F0004110EBD37021FA04F642EB060141
:1006E0005EEA430E08BF20EAD37070BDC4F10C046B
:1006F000C4F1200500FA04F320FA05F001FA04F22F
:1007000040EA020001F0004110EBD37041F100011A
:100710005EEA430E08BF20EAD37070BDC4F1200525
:1007200000FA05F24EEA020E20FA04F301FA05F28D
:1007300043EA020321FA04F001F0004121FA04F235
:1007400020EA020000EBD3705EEA430E08BF20EA05
:10075000D37070BD94F0000F0FD101F0004640003F
:1007600041EB010111F4801F08BF013CF7D041EAC1
:10077000060195F0000F18BF704703F000465200C5
:1007800043EB030313F4801F08BF013DF7D043EA96
:100790000603704794EA0C0F0CEA135518BF95EA4C
:1007A0000C0F0CD050EA410618BF52EA4306D1D1D3
:1007B00081EA030101F000414FF0000070BD50EAF2
:1007C000410606BF1046194652EA430619D094EA7C
:1007D0000C0F02D150EA013613D195EA0C0F05D166
:1007E00052EA03361CBF104619460AD181EA0301BA
:1007F00001F0004141F0FE4141F470014FF0000072
:1008000070BD41F0FE4141F4780170BD70B54FF00C
:10081000FF0C4CF4E06C1CEA11541DBF1CEA13558C
:1008200094EA0C0F95EA0C0F00F0A7F8A4EB05046E
:1008300081EA030E52EA03354FEA013100F0888065
:100840004FEA03334FF0805545EA131343EA12632E
:100850004FEA022245EA111545EA10654FEA0026E3
:100860000EF000419D4208BF964244F1FD0404F59C
:10087000407402D25B084FEA3202B61A65EB0305F8
:100880005B084FEA32024FF480104FF4002CB6EBB5
:10089000020E75EB030E22BFB61A754640EA0C0035
:1008A0005B084FEA3202B6EB020E75EB030E22BF75
:1008B000B61A754640EA5C005B084FEA3202B6EBB6
:1008C000020E75EB030E22BFB61A754640EA9C0075
:1008D0005B084FEA3202B6EB020E75EB030E22BF45
:1008E000B61A754640EADC0055EA060E18D04FEA03
:1008F000051545EA16754FEA06164FEAC30343EAA3
:1009000052734FEAC2025FEA1C1CC0D111F4801F6F
:100910000BD141EA00014FF000004FF0004CB6E768
:1009200011F4801F04BF01430020B4F1FD0C88BF07
:10093000BCF5E06F3FF6AFAEB5EB030C04BFB6EB12
:10094000020C5FEA500C50F1000041EB045170BD05
:100950000EF0004E4EEA113114EB5C04C2BFD4EB32
:100960000C0541EA045170BD41F480114FF0000EB6
:10097000013C90E645EA060E8DE60CEA135594EA32
:100980000C0F08BF95EA0C0F3FF43BAF94EA0C0F35
:100990000AD150EA01347FF434AF95EA0C0F7FF4AA
:1009A00025AF104619462CE795EA0C0F06D152EAFE
:1009B00003353FF4FDAE1046194622E750EA4106E2
:1009C00018BF52EA43067FF4C5AE50EA41047FF4F3
:1009D0000DAF52EA43057FF4EBAE12E753B94AB9C3
:1009E000002908BF00281CBF4FF0FF314FF0FF3037
:1009F00000F00CB8ADF1080C6DE904CE00F0CEF8B3
:100A0000DDF804E0DDE9022304B07047704700BF61
:100A10004FF0FF3C06E000BF4FF0010C02E000BFCA
:100A20004FF0010C4DF804CD4FEA410C7FEA6C5CAD
:100A30004FEA430C18BF7FEA6C5C1BD001B050EA50
:100A4000410C0CBF52EA430C91EA030F02BF90EA3B
:100A5000020F0020704710F1000F91EA030F58BFFA
:100A6000994208BF90422CBFD8176FEAE37040F05C
:100A7000010070474FEA410C7FEA6C5C02D150EAFA
:100A8000013C07D14FEA430C7FEA6C5CD6D152EAB5
:100A9000033CD3D05DF8040B704700BF844610467A
:100AA00062468C461946634600E000BF01B5FFF779
:100AB000B7FF002848BF10F1000F01BD4DF808ED49
:100AC000FFF7F4FF0CBF012000205DF808FB00BF1A
:100AD0004DF808EDFFF7EAFF34BF012000205DF874
:100AE00008FB00BF4DF808EDFFF7E0FF94BF0120C1
:100AF00000205DF808FB00BF4DF808EDFFF7CEFFC2
:100B000094BF012000205DF808FB00BF4DF808ED00
:100B1000FFF7C4FF34BF012000205DF808FB00BFD1
:100B20004FEA410C7FEA6C5C02D150EA013C0AD1E9
:100B30004FEA430C7FEA6C5C02D152EA033C02D1DB
:100B40004FF0000070474FF0010070474FEA41023C
:100B500012F5001215D211D56FF47873B3EB62520F
:100B600012D94FEAC12343F0004343EA505311F036
:100B7000004F23FA02F018BF404270474FF00000C8
:100B8000704750EA013005D111F0004008BF6FF006
:100B9000004070474FF00000704700BF2DE9F04F54
:100BA00007468C460846099E15463C461946002BCA
:100BB00040F0C6808242B2FA82F746D94FB1C7F1FF
:100BC000200E24FA0EFE00FA07F3BD404EEA030C95
:100BD000BC404FEA15481FFA85FEBCFBF8F9220C11
:100BE00008FB19C309FB0EFA42EA03439A4528D9C8
:100BF000EB1809F1FF3004D29A4502D9A9F102009D
:100C00002B44A3EB0A03A4B2B3FBF8F208FB1233A4
:100C100002FB0EFE44EA0344A64514D92C1902F146
:100C2000FF3303D2A64501D9931E2C44A4EB0E0436
:100C300043EA00401EB1FC40002334607360BDE80D
:100C4000F08F4846DDE71346F0E702B9FFDE87BBC9
:100C5000831A01214FEA154EAAB2B3FBFEFC200C09
:100C60000EFB1C330CFB02F840EA0343984563D9A2
:100C7000EB180CF1FF3004D2984502D9ACF1020018
:100C80002B44A3EB0803A4B2B3FBFEFC0EFB1C3306
:100C90000CFB02F244EA0344A2424FD92C190CF196
:100CA000FF3304D2A24202D9ACF102032C44A41AAD
:100CB000BEE7C7F1200C20FA0CF800FA07F324FA7B
:100CC0000CFCBD404CEA03024FEA154EABB2B8FB38
:100CD000FEFC110C0EFB1C800CFB03F941EA0040EA
:100CE000814504FA07F423D928180CF1FF3104D206
:100CF000814502D9ACF102012844A0EB090092B26F
:100D0000B0FBFEFC0EFB1C000CFB03F842EA0043A8
:100D100098450FD9EB180CF1FF3204D2984502D94F
:100D2000ACF102022B44A3EB080342EA014191E734
:100D30006146E2E76246F6E76046A2E76346B6E749
:100D4000834205D90EB1C6E900700021084676E756
:100D5000B3FA83F181B9834201D3BA420AD8BC1AEB
:100D600060EB030301209C46002E68D0C6E9004CCE
:100D7000002164E70846F7E7C1F1200C8B4022FA16
:100D80000CF41C4302FA01F500FA01F327FA0CF205
:100D900020FA0CFB4FEA14491343BBFBF9F81FFA86
:100DA00084FE09FB18BB1A0C08FB0EFA42EA0B4240
:100DB000924507FA01F73ED9A21808F1FF3004D294
:100DC000924502D9A8F102002244A2EB0A029BB28A
:100DD000B2FBF9F809FB182208FB0EFE43EA0242B7
:100DE00096452AD9A21808F1FF3304D2964502D9B4
:100DF000A8F10203224443EA0040A0FB0593A2EBC2
:100E00000E029A42CE46984602D306D14F4504D2EE
:100E1000B9EB050E63EB0408013886B1B7EB0E039E
:100E200062EB080707FA0CFCCB404CEA0303CF4007
:100E3000C6E900379CE74046C7E74346DBE7314653
:100E4000FDE610F8012B11F8013B012A28BF9A4258
:100E5000F7D0D01A7047034613F8012B002AFBD1B4
:100E6000181A0138704700002DE9F04F446A99B014
:100E700016461F46CDE90467DDF89480054674B92F
:100E800010200BF039FE0246686220B9A84BEA2117
:100E9000A8480CF017FBC0E901440460C4606B6A09
:100EA000196851B15A684A60012393408B60284603
:100EB0000CF088FB6B6A00221A603B1EB9BF23F05E
:100EC000004305930023C8F80030DDF814909A4BD6
:100ED000BCBF0122C8F8002033EA090319D1249AC3
:100EE00042F20F731360C9F31303334300F080859C
:100EF000269B53B9914B22E0914B03930833269ADA
:100F00001360039819B0BDE8F08F8C4B0393033343
:100F1000F5E7DDE90434CDE90C34DDE90C0100220C
:100F20000023FFF7CBFD804658B1249A01231360BC
:100F3000269B002B00F0598582481860431E0393BE
:100F4000DFE716AB019317AB00932846DDE90C23CE
:100F50000CF0B0FDC9F30A548346002C7ED00D9BE3
:100F6000CDF84C80C3F31303DDE90C0143F07F514E
:100F700041F44011A4F2FF34734B0022FFF764F9EF
:100F800065A3D3E90023FFF717FB65A3D3E900238B
:100F9000FFF75CF9064620460F46FFF7A3FA62A367
:100FA000D3E90023FFF708FB02460B4630463946DB
:100FB000FFF74CF906460F46FFF7C8FD00228246B0
:100FC000002330463946FFF783FD48B15046FFF70E
:100FD00089FA32463B46FFF771FD08B90AF1FF3A3C
:100FE000BAF1160F57D8594B03EBCA03D3E90023C4
:100FF000DDE90C01FFF76CFD00284ED00AF1FF3A45
:1010000000230F93169B1C1B631E099345BFC4F15D
:1010100001030693002300234CBF09930693BAF102
:10102000000F3CDB099BCDF838A053440993002303
:101030000A93229B092B00F28D80052BC4BF043B31
:101040002293229BA3F10203CCBF00240124032B93
:1010500000F28C80DFE803F02D4F4D5BDDE9164395
:101060001C4404F23243202BC3BFC3F1400304F2FB
:10107000124009FA03F3C3F12003C6BF26FA00F0B9
:10108000184306FA03F0FFF71DFA0123A1F1F871E6
:10109000013C139370E70123B3E70F90B2E7069B7F
:1010A000A3EB0A030693CAF100030A9300230E93ED
:1010B000BFE700230B93239B002B5ADC4FF0010961
:1010C000CDF820904B46CDF88C90686A00224260A3
:1010D000042202F114069E42416850D928460CF0C1
:1010E00031FA039000284ED1194B02464FF4D571C6
:1010F000CEE60123DEE700230B93239B0AEB0309D3
:1011000009F10103012B0893B8BF0123DDE7012397
:10111000F2E700BFAFF3008061436F63A787D23F60
:10112000B3C8608B288AC63FFB799F501344D33FD6
:10113000C5350108813601080000F07F7D360108C1
:1011400074360108A23501080000F83FE81A0108CA
:10115000DB3601080124002322930B944FF0FF3962
:101160000022CDF8209012232392AEE701230B93A7
:10117000F4E7DDF88C90CDF820904B46A5E70131DF
:1011800041605200A5E76B6A039A1A60089B0E2B18
:1011900000F2A880002C00F0A580BAF1000F34DD29
:1011A0009A4A0AF00F0302EBC303D3E900341AF49E
:1011B000807FCDE910344FEA2A1416D0944BDDE934
:1011C0000C01D3E90823FFF721FBCDE9040104F06A
:1011D0000F0403278E4E54B9DDE91023DDE9040125
:1011E000FFF714FBCDE9040129E00227F2E7E1074C
:1011F00008D5DDE91001D6E90023FFF7DDF9CDE9D7
:101200001001013764100836E5E700F0A580CAF147
:1012100000047E4B7E4E04F00F0203EBC203D3E9C1
:101220000023DDE90C01FFF7C7F9CDE90401241122
:1012300000230227002C40F08480002BD2D10F9B8A
:10124000002B00F08B80DDE90434CDE91034DDE9BA
:101250001001704B0022FFF73BFC00287ED0089B5A
:10126000002B7BD0B9F1000F38DDDDE910016A4BAE
:101270000022FFF7A1F9CDE904010AF1FF38013797
:101280004C463846FFF72EF9DDE90423FFF794F9C1
:10129000624B0022FEF7DAFFA1F15076CDE9100192
:1012A0001196002C5DD1DDE904015D4B0022FEF7B3
:1012B000CBFF02460B46CDE90423109A3346FFF7D5
:1012C00025FC002840F09C82DDE90401109A06F11B
:1012D0000043FFF7FDFB002840F09082DDE90C346D
:1012E000CDE90434179B002BC0F25281BAF10E0FE6
:1012F00000F34E81454B03EBCA03D3E90034CDE93B
:101300000634239B002B80F2DB80089B002B00F32C
:10131000D78040F07282424B0022DDE90601FFF7E0
:101320004BF9DDE90423FFF7E7FB089C264600287C
:1013300040F04882039F312307F8013B0AF1010A7C
:1013400044E2E20705D5D6E90023FFF735F9013776
:101350000123641008366DE7022770E7089CD04629
:101360008FE70399294B214412910B9903EBC40396
:10137000DDE9106753E90223002955D029490020EF
:10138000FFF744FA3B463246FEF75EFFCDE9100117
:10139000039FDDE90401FFF7D9FB0446FFF7A2F83C
:1013A00002460B46DDE90401FEF74EFF30340246EB
:1013B0000B46CDE9042307F8014BDDE91023FFF7C5
:1013C00087FB002874D1DDE9042312490020FEF7D1
:1013D0003BFFDDE91023FFF77BFB002840F0B780DF
:1013E000129B9F423FF47AAFDDE910010A4B0022C5
:1013F000FFF7E2F8084BCDE910010022DDE9040116
:10140000FFF7DAF8CDE90401C3E700BFE81A0108E5
:10141000C01A01080000F03F0000244000001C40FA
:10142000000014400000E03F30463946FFF7C4F8A2
:10143000CDE91001129B039C1493DDE90401FFF731
:1014400085FB1590FFF74EF802460B46DDE90401D7
:10145000FEF7FAFE159B303304F8013B129B9C42C9
:1014600006460F464FF0000224D1A44BDDE91001DF
:10147000FEF7ECFE02460B4630463946FFF746FBC8
:10148000002863D1DDE910239C490020FEF7DCFE33
:1014900002460B4630463946FFF71AFB00283FF458
:1014A0001DAF149F7B1E149317F8013C302BF8D00E
:1014B000C2463BE0924BFFF77FF8CDE90401BCE761
:1014C000DDE90489039FDDE9062340464946FFF72D
:1014D0009DF9FFF73BFB0446FFF704F8DDE906231F
:1014E000FFF76AF804F1300602460B4640464946CB
:1014F000FEF7AAFE07F8016B039EDDF820C0BE1BB5
:10150000B44502460B4636D1FEF7A0FEDDE90623C0
:1015100080468946FFF7FAFA58BBDDE906234046C4
:101520004946FFF7CBFA08B1E10722D428465946CD
:101530000CF048F800233B70249B0AF1010018606E
:10154000269B002B3FF4DDAC1F60DAE427463B46C8
:101550001F4613F8012D392A07D1039A9A42F7D171
:101560000399302208F101080A701A7801321A70C2
:101570009EE7D046EBE7624B0022FFF71DF8002202
:10158000002380468946FFF799FA00289BD0CDE7D3
:101590000B9A002A00F0D080229A012A00F3B28030
:1015A000139A002A00F0A68003F233430A9C069F98
:1015B000069A1A440692099A01211A442846099269
:1015C0000CF068F80646002F0CDD099B002B09DDA6
:1015D000BB42069AA8BF3B46D21A0692099AFF1A46
:1015E000D31A09930A9BF3B10B9B002B00F0A88040
:1015F000002C10DD3146224628460CF009F95A46E7
:101600000146064628460CF05BF8594680462846B7
:101610000BF0D8FFC3460A9B1A1B04D05946284634
:101620000CF0F6F88346012128460CF033F80E9BA7
:10163000002B044640F386801A46014628460CF0EB
:10164000E7F8229B012B04467FDD4FF00008236959
:1016500004EB830318690FF014FDC0F12000099B0F
:10166000184410F01F0000F09280C0F12003042BFA
:1016700040F38A80C0F11C00069B03440693099B3B
:10168000034407440993069B002B05DD59461A467F
:1016900028460CF017F98346099B002B05DD2146EF
:1016A0001A4628460CF00EF904460F9B002B70D00A
:1016B000214658460FF032FD00286ADA00235946C9
:1016C0000A2228460BF0A0FF0B9B0AF1FF3A834643
:1016D000002B00F09481314600230A2228460BF0AB
:1016E00093FFB9F1000F064600F39380229B022B73
:1016F00057DC8EE0169BC3F1360357E70000E03F4E
:1017000000002440089B5C1E0A9BA342BFBF0A9BAB
:101710000A94E21A0E9BB6BF9B181C1B0E93089BE3
:10172000B8BF0024002BB9BF069B089A069F089BF0
:10173000BCBF9F1A00233BE70A9C069F0B9E42E713
:101740000A9A6BE7229B012B19DC049BBBB9059B12
:10175000C3F313039BB9059B23F000431B0D1B052B
:1017600083B1069B01330693099B013309934FF024
:1017700001080E9B002B7FF46AAF01206FE74FF04A
:101780000008F6E79846F4E73FF47DAF18461C30B2
:1017900072E7089B002B36DC229B022B33DDDDF841
:1017A0002090B9F1000F0DD121464B460522284665
:1017B0000BF02AFF0146044658460FF0AFFC002804
:1017C0003FF7B8AD239B039F6FEA030A4FF0000871
:1017D000214628460BF0F6FE002E3FF4A7AEB8F1E6
:1017E000000F05D0B04503D0414628460BF0EAFE75
:1017F000314628460BF0E6FE98E600242646E1E74F
:10180000C246264696E50B9BDDF82090002B00F0A3
:10181000FD80002F05DD31463A4628460CF052F88F
:101820000646B8F1000F5CD0716828460BF08AFEBE
:10183000074628B9804B024640F2EA21FFF728BB51
:1018400032690232920006F10C010C300FF02AFAD4
:101850000122394628460CF035F8039B01330893E2
:10186000039B4B440A93049B03F00103B046099386
:101870000646089B2146013B584604930FF07AFB2D
:10188000034630330690414658460B930FF046FC12
:1018900032468146214628460CF084F8C2680B9BEC
:1018A000074602BB014658460FF038FC0B9B024628
:1018B00039462846CDE90B320BF084FE229B0C9A68
:1018C000089F43EA0201099B0B430B9B0DD1392B67
:1018D00029D0B9F1000F01DD069B3133049A137052
:1018E00076E73046B9E70122E2E7B9F1000F06DBFF
:1018F000229941EA0909099959EA010120D1002AEE
:10190000ECDD59460122284608930BF0DBFF214607
:1019100083460FF003FC0028089B02DCDED1DA07C7
:10192000DCD5392BD8D1049A392313703B461F4696
:10193000013B17F8012C392A50D001321A7047E7C1
:10194000002A03DD392BEED00133C7E7089A0A9944
:1019500002F8013C8A422AD0594600230A2228462E
:101960000BF052FEB04583464FF000034FF00A02E1
:101970004146284607D10BF047FE80460646089BA5
:101980000133089375E70BF03FFE31468046002394
:101990000A2228460BF038FE0646F0E7B9F1000FA0
:1019A000039ACCBF4F46012717444FF00008594611
:1019B0000122284608930BF085FF214683460FF04D
:1019C000ADFB0028B2DC02D1089BDB07AED43B465E
:1019D0001F4613F8012D302AFAD0F9E6039A9A42ED
:1019E000A5D10AF1010A312379E7144BFFF7A7BA11
:1019F000269B002B7FF480AA114BFFF7A0BAB9F108
:101A0000000F03DC229B022B3FF7CBAE039F214646
:101A100058460FF0AFFA00F1300307F8013B039A84
:101A2000BA1A9145BADD594600230A2228460BF01E
:101A3000EBFD8346EBE700BFDB360108A13501086B
:101A400074360108F8B504460D46124B0027BFF363
:101A50005B8F53E8002F43E800710029F9D1BFF3F1
:101A60005B8F2846FFF7F7F90246A3685E683B469E
:101A700029462046B04703E0642000210AF0B0FA6E
:101A8000BFF35B8F034B1B68BFF35B8F002BF3D05F
:101A9000F8BD00BFA402002010B5044608460B495B
:101AA0000FF000F9A3681B690022114620469847F1
:101AB000074B0422BFF35B8F53E8001F43E800206D
:101AC0000028F9D1BFF35B8F10BD00BF880D002047
:101AD000A0020020F8B506460C461746714D0FCD02
:101AE00020606160A260E36007CD20616161A26156
:101AF0002B88A38321463046FFF7A4FF3A686A4942
:101B000020460BF005FC21463046FFF79BFF3B7952
:101B1000012B16D0022B1AD06BB121463046FFF7AD
:101B200091FF7B79063B062B1ED8DFE803F01729CF
:101B300030373E4750007D225C4920460BF0E8FBE1
:101B4000EBE7FA22594920460BF0E2FBE5E74FF4B8
:101B5000FA72564920460BF0DBFBDEE7544D0FCD01
:101B600020606160A260E36021463046FFF76AFFB3
:101B7000BB79013B032B3BD8DFE803F0326A737C6F
:101B80004C4D0FCD20606160A260E360ECE74A4DF0
:101B90000FCD20606160A260E360E5E7474D0FCDA7
:101BA00020606160A260E360DEE7454D0FCD2060FC
:101BB0006160A260E3602B782374D5E7414D0FCDBF
:101BC00020606160A260E3602B782374CCE73E4D17
:101BD0000FCD20606160A260E3602B782374C3E7BF
:101BE0003A4D0FCD20606160A260E3602B882382B4
:101BF00021463046FFF726FF3A89354920460BF04B
:101C000087FB21463046FFF71DFFFB7A002B3AD0B9
:101C1000304D0FCD20606160A260E36028682061D4
:101C200021463046FFF70EFFBA7A2B4920460BF0CB
:101C30006FFB21463046FFF705FF97F90C20274937
:101C400020460BF065FB21463046FFF7FBFEF8BD52
:101C5000234D0FCD20606160A260E3602B8823825A
:101C6000C6E7204D0FCD20606160A260E3602B8845
:101C70002382BDE71C4D0FCD20606160A260E36050
:101C80002B882382B4E7194D0FCD20606160A260DC
:101C9000E360286820612B79237521463046FFF7E1
:101CA000D1FECAE7B01B0108D01B0108E41B0108E4
:101CB000F81B0108081C0108181C0108281C010851
:101CC000381C01084C1C0108601C0108741C010828
:101CD000C41C0108DC1C0108F01C01081C1D0108C3
:101CE000881C01089C1C0108B01C0108041D010887
:101CF00070B582B005460C46194692B1154B1B686B
:101D00004A68154920460BF003FB2046FFF7A3F86D
:101D10000246AB685E68002321462846B04702B001
:101D200070BDB3F9023091F9002001920093094B84
:101D30001B684A68094920460BF0EAFA2046FFF77B
:101D40008AF80246AB685E68002321462846B04701
:101D5000E5E700BF800D0020301D0108501D01087F
:101D60002DE9F04788B004460D4691469846002676
:101D70008DF81F60BFF35B8F354BD3F800A0BFF326
:101D80005B8F06960496059650E0BFF35B8F4DD1AE
:101D900006ABBFF35B8F53E8002F013243E800210D
:101DA0000029F8D1BFF35B8F2A4F042138460DF08C
:101DB0000EF901236B73A3681B68294620469847D8
:101DC00041F2883000210AF00BF9A3685B68042215
:101DD00039462046984700236B73A3681B68294641
:101DE00020469847A368DB680DF11F02039207AAFB
:101DF000029219480021CDE900010422174920462A
:101E000098470246BFF35B8F069BBFF35B8F05933A
:101E1000BDF81C30ADF812309DF81F308DF8103031
:101E200004AB41464846FFF763FF013656450CD2E6
:101E30000B490223BFF35B8F51E8002F9A42A4D1D4
:101E400041E800300028A0D0F6E708B0BDE8F087F0
:101E5000800D0020880D0020E0930400840D0020F8
:101E6000A002002008B50B78022B13D0052B0DD053
:101E70005BB90A4B0122BFF35B8F53E8001F43E8B5
:101E800000200028F9D1BFF35B8F08BD044809F09A
:101E9000D1FCFAE783685B699847F6E7A402002063
:101EA000DC0D002030B583B00023009301938C4DEE
:101EB0008C4928460BF04CFA04460090FEF7CBFF05
:101EC0000130894928440BF043FA0EF0E7FE05463D
:101ED000019086492046FEF7B4FFC0B9844B012229
:101EE000BFF35B8F53E8001F43E800200028F9D1BF
:101EF000BFF35B8F7F4BBFF35B8F53E8002F43E84B
:101F000000510029F9D1BFF35B8F03B030BD7A498E
:101F10002046FEF796FF60B9754B0022BFF35B8F3A
:101F200053E8001F43E800200028F9D1BFF35B8F7E
:101F3000EBE772492046FEF784FF60B96C4B05223F
:101F4000BFF35B8F53E8001F43E800200028F9D15E
:101F5000BFF35B8FD9E76A492046FEF772FF60B98D
:101F6000634B0722BFF35B8F53E8001F43E8002059
:101F70000028F9D1BFF35B8FC7E762492046FEF71F
:101F800060FF60B95A4B0822BFF35B8F53E8001F14
:101F900043E800200028F9D1BFF35B8FB5E75A4929
:101FA0002046FEF74EFFB8B9584BBFF35B8F53E89E
:101FB000002F43E800510029F9D1BFF35B8F4C4B50
:101FC0000622BFF35B8F53E8001F43E80020002880
:101FD000F9D1BFF35B8F98E74D492046FEF731FFFB
:101FE00000286FD1063D062D11D8DFE805F05E51BF
:101FF00044372A1D0400474B0C22BFF35B8F53E884
:10200000001F43E800200028F9D1BFF35B8F384B55
:102010000922BFF35B8F53E8001F43E8002000282C
:10202000F9D1BFF35B8F70E73A4B0B22BFF35B8FA5
:1020300053E8001F43E800200028F9D1BFF35B8F6D
:10204000E5E7344B0A22BFF35B8F53E8001F43E8F8
:1020500000200028F9D1BFF35B8FD8E72D4B092270
:10206000BFF35B8F53E8001F43E800200028F9D13D
:10207000BFF35B8FCBE7274B0822BFF35B8F53E89F
:10208000001F43E800200028F9D1BFF35B8FBEE7B3
:10209000204B0722BFF35B8F53E8001F43E800206B
:1020A0000028F9D1BFF35B8FB1E71A4B0622BFF3CB
:1020B0005B8F53E8001F43E800200028F9D1BFF3ED
:1020C0005B8FA4E70A4B0022BFF35B8F53E8001F2E
:1020D00043E800200028F9D1BFF35B8F15E700BF6C
:1020E0008C0D0020801D0108681E0108841D010858
:1020F000A0020020800D0020881D0108901D01080D
:10210000981D0108A01D0108A81D0108A8020020B3
:10211000B41D0108AC02002000B58DB000230B9364
:1021200009930A930593069307930893BFF35B8F74
:10213000A44B1B68BFF35B8F0593BFF35B8FA24B70
:102140001B68BFF35B8F8DF8193001238DF81A30AF
:102150000823ADF81C3014238DF820309B480EF076
:1021600054F9E8B1994883681B6805A998470B9012
:102170000B9B002B28DB964996480EF074FA964884
:1021800008F082FE04460EF040F9002831D0A36822
:102190001B68002B50D000229049204698474BE006
:1021A0008A4B1B6803938E4B02938E4B01930090D6
:1021B000034604228C490CF02CFA4FF0FF304FF00C
:1021C000FF3109F00DFFCDE7804B1B680393844B73
:1021D0000293864B0193002000900346042282491B
:1021E0000CF017FA4FF0FF304FF0FF3109F0F8FE16
:1021F000C1E7236803937A4B02937A4B01930090D3
:102200000346042278490CF004FA4FF0FF304FF0F7
:10221000FF3109F0E5FEBAE7BFF35B8F19D1A36880
:10222000DD681346102272492046A8476748836834
:102230001B69704A70499847704B0022BFF35B8F4F
:1022400053E8001F0329E7D143E800200028E3D02A
:10225000F6E76A4B0022BFF35B8F53E8001F0429A7
:1022600003D143E800200028F7D1BFF35B8F1CD1D6
:1022700001238DF82130554DAE68336805A92846F5
:102280009847736804225E49284698475B4B0322AF
:10229000BFF35B8F53E8001F042903D143E80020FC
:1022A0000028F7D1BFF35B8FC6E7544B0222BFF380
:1022B0005B8F53E8001F012903D143E80020002869
:1022C000F7D1BFF35B8F29D14E4E3046FEF7C3FDE9
:1022D00002464D4D4023314628460EF0F1FC304673
:1022E000FEF7B9FD0246A3685E6800232946204632
:1022F000B0472B46224605A93448FFF731FD3F4B36
:102300000022BFF35B8F53E8001F022903D143E88B
:1023100000200028F7D1BFF35B8F8DE7374B0022F9
:10232000BFF35B8F53E8001F052903D143E800206A
:102330000028F7D1BFF35B8F0CD1A368DD6813468B
:1023400010222B492046A84705AA2F492046FFF70F
:10235000C1FB71E7294B0022BFF35B8F53E8001FDD
:10236000072903D143E800200028F7D1BFF35B8F92
:102370004ED1A368DD68134610221D492046A847A8
:10238000012205A911480CF033F928B905AA1E4904
:102390002046FFF79FFB4FE71C4E3046FEF75BFDE4
:1023A0000246194D4023314628460EF089FC284646
:1023B000FEF751FD0246A3685E68002329462046C9
:1023C000B04739E7A8020020AC020020CC16010873
:1023D000A51E0008DC0D0020F81D0108651E000880
:1023E0008C1E0108BC1D0108C4190108D81D010874
:1023F0008C0D0020CFE50008991A0008A0020020EB
:10240000880D0020001E01089C0D00202C1E0108D4
:102410005B4B0022BFF35B8F53E8001F082903D1F9
:1024200043E800200028F7D1BFF35B8F28D1A368D1
:10243000DD681346102253492046A847002205A90B
:1024400051480CF0D5F828B905AA50492046FFF7A5
:1024500041FBF1E64E4E3046FEF7FDFC02464B4D89
:102460004023314628460EF02BFC2846FEF7F3FCAD
:102470000246A3685E68002329462046B047DBE693
:102480003F4B0022BFF35B8F53E8001F062903D1A7
:1024900043E800200028F7D1BFF35B8F2DD1A3685C
:1024A000DD681346102237492046A847BFF35B8FEB
:1024B000384B1A68BFF35B8F05A933480CF08EF8D0
:1024C00028B105AA31492046FFF704FBB4E6304E97
:1024D0003046FEF7C0FC02462C4D402331462846CC
:1024E0000EF0EEFB2846FEF7B6FC0246A3685E68D7
:1024F000002329462046B0479EE6214B0022BFF329
:102500005B8F53E8001F092903D143E8002000280E
:10251000F7D1BFF35B8F2ED1A368DD68134610227D
:1025200018492046A847BFF35B8F1B4B1A68BFF3BF
:102530005B8FD2B205A914480CF04AF828B105AA5D
:1025400012492046FFF7C6FA76E6144E3046FEF7EB
:1025500082FC02460D4D4023314628460EF0B0FB6A
:102560002846FEF778FC0246A3685E6800232946E9
:102570002046B04760E66420002109F031FD5BE6AB
:10258000A00200208C0D0020CC1601089C0D00201C
:102590002C1E0108A8020020AC0200204C1E0108DD
:1025A0002DE9F04F89B0029210F0030A40F0158235
:1025B00007468B46041DE0B127B1E21B04325A45A1
:1025C00000F20E825D1ECDF800A0CDF80CA0CDF873
:1025D00004A000264FF00408C14607B12360C64A94
:1025E0009342C0F05A81C54A9342C0F07F810022D5
:1025F00054E101F0070B5C44CBF1080BDCE7252B21
:1026000005D101264FF00408C14600E000266546CA
:1026100005F1010C6B78002B00F08481002EEED0C8
:10262000A3F120015A29F1D801A252F821F000BFEC
:102630000F2600080D2600080D2600080F260008AA
:102640000D2600080D2600080D2600080D2600089E
:102650000D2600080D260008BD2700080F260008DB
:102660000D2600080F2600080F2600080D2600087A
:102670000F2600080F2600080F2600080F26000866
:102680000F2600080F2600080F2600080F26000856
:102690000F2600080F2600080D2600080D2600084A
:1026A0000D2600080D2600080D2600080D2600083E
:1026B0000D260008252800080D2600080D26000814
:1026C0000D260008252800082528000825280008D0
:1026D0000D2600080D2600080D2600080D2600080E
:1026E0000F2600080D2600080D2600080D260008FC
:1026F0000D2600080D2600080D2600080D260008EE
:102700000D2600080D2600080D2600080D260008DD
:10271000B52700080D2600080D2600080D26000824
:102720000D2600080D2600080D2600080D260008BD
:102730000D260008252800080D260008B5270008EA
:10274000B5270008252800082528000825280008A6
:102750000F260008B52700089D2700080D26000851
:102760000F2600080D26000885280008B527000858
:10277000852800080D2600080D2600088528000879
:10278000AD270008B52700080D2600080D26000813
:10279000B52700080D260008A52700084FF00808F7
:1027A000C14634E74FF00408C14630E74FF0040853
:1027B000C1462CE72A786C2A26D0002604EB0802B2
:1027C000013AC8F100010A40144627B1D11B49441F
:1027D0008B45C0F00881732B59D0B9F1040F00F07C
:1027E0009980B9F1080F40F00781129B073323F05D
:1027F000070303F108011291D3E900010FB1C2E907
:10280000000102F1080402E71CF8022C6C2A04D033
:1028100000264FF00408C146D0E700264FF0080814
:10282000C146CBE72B784C2B1CD0129B073323F0EF
:10283000070303F108021292D3E90001E21D22F01E
:10284000070247B1D31B08335B4515D82B784C2BB7
:1028500015D0C2E9000102F1080400264FF0080873
:10286000C146D4E6129B073323F0070303F10802A5
:102870001292D3E90001E1E76FF01B00AAE0C2E980
:102880000001E8E700264FF00408C14696E7129BD6
:102890001A1D12921B6865469FE60022029901F0FC
:1028A0000101104602B1F9B1A4EB070C4FEA9C02FA
:1028B00019B1BCF5007F80F0998001990F2900F2D1
:1028C0009880EFB1D2B208AB0B4403F8102C78B16A
:1028D00062F07F0208AB0B4403F8102C009B01331D
:1028E0000093019B01330193043491E60122D5E763
:1028F000039B01330393F4E7E414010864370108F0
:1029000010B10BF1010BECE71846FEF7A4FA831C9B
:102910009B44E6E7129B191D12911B6807B11360D7
:10292000141D74E6E31BB3F5806F68D25FB100221B
:102930003A609B083B70039B7B70009BBB70D3B9D4
:10294000DDF8049039E05B44A3F1080042E0013374
:10295000984213D908AA1A4412F8101C12F9102C24
:10296000002AF4DA01F07F01E21B0132934549D3DA
:1029700004F8011BEBE753460198E9E7DDF8049002
:102980001BE008AB534413F8106C57F82680002363
:1029900047F826304046FEF75EFA451CE31B2B4401
:1029A00001339B4531D304F8016B2A46414620464A
:1029B0000EF078F92C440AF1010AD14509D9009B9F
:1029C000002BDED008AB534413F9103C002BD8DAAF
:1029D000F1E7E01B09B0BDE8F08F6FF00D00F9E7FB
:1029E0006FF01B00F6E76FF01B00F3E76FF01500C8
:1029F000F0E76FF01500EDE76FF01500EAE76FF014
:102A00001500E7E76FF01B00E4E76FF01B00E1E75C
:102A100008B50B6801330B60014B1B68984708BD74
:102A2000B0020020014B1860704700BFB0020020C8
:102A300000B583B002460B460021019101A903486D
:102A400000F02CFA03B05DF804FB00BF112A000867
:102A500010B584B00446019002910021039101A9B0
:102A6000054800F01BFA039B029A934201DA002208
:102A7000E254039804B010BD99E600088446026849
:102A8000002005E000EB8000013203EB400030380D
:102A900013780449595C11F0040FF3D1CCF80020ED
:102AA000704700BF9134010870B582B0044600231E
:102AB0000360436083604B78252B02D04E1C0125B8
:102AC0001FE0881CE37045E1237843F00403237082
:102AD000B5B1013614E0237843F008032370F7E71B
:102AE000237843F010032370F2E7237843F02003A8
:102AF0002370EDE7237843F040032370E8E70025D7
:102B000045B33378203B102BF9D801A252F823F0BB
:102B1000E12A0008FF2A0008FF2A0008EB2A000823
:102B2000FF2A0008FF2A0008FF2A0008FF2A0008E1
:102B3000FF2A0008FF2A0008FF2A0008D72A0008F9
:102B4000FF2A0008C92A0008FF2A0008FF2A0008F7
:102B5000F52A0008237803F04403442B5FD0019644
:102B6000237843F08003237033782A2B5CD001A8AC
:102B7000FFF784FF019B9E420FD0237843F0800330
:102B800023706060DBB2C3F34003002854DB0022F3
:102B90001343227863F341022270019B01931B7857
:102BA0002E2B14BF00230123627863F3410262706D
:102BB000002B43D0019B5A1C01925B782A2B3FD0FB
:102BC00001A8FFF75BFFA0602378C3F34003002850
:102BD0003EDB00221343227863F341022270019806
:102BE00003784C3B2E2B00F29D80DFE803F0909B96
:102BF0009B9B9B9B9B9B9B9B9B9B9B9B9B9B9B9B25
:102C00009B9B9B9B9B9B9B9B9B9B339B579B459B16
:102C10009B9B9B9B9B9B899B9B9B9B9B8200237865
:102C20006FF3861323709AE7637843F001036370B0
:102C3000334601330193B1E70122A9E70198CFE7B9
:102C4000637843F004036370104601300190C7E7D6
:102C50000122BFE7421C4378682B06D0637802212B
:102C600061F3C603637010461EE06378012262F3CD
:102C7000C6036370023017E0421C43786C2B06D009
:102C80006378032161F3C603637010460CE0637838
:102C9000042262F3C6036370023005E06378052204
:102CA00062F3C6036370013010F8013BE370A3F1D7
:102CB0004102372A7DD8DFE802F05E7C7C7C5E5ED4
:102CC0005E7C7C7C7C7C7C7C7C7C7C7C7C7C7C7C62
:102CD0007C4F7C7C7C7C7C7C7C7C5E7C4F3A5E5E2A
:102CE0005E7C3A7C7C7C7C654F717C7C717C4F7C0B
:102CF0007C4F6378062262F3C60363700130D3E72A
:102D00006378072262F3C60363700130CCE763780F
:102D1000082262F3C60363700130237843F0020394
:102D20002370C1E763786FF3C6036370BCE7A278D2
:102D3000012161F30202A270627802F07802402A57
:102D400010D0632B13D02378C3F34002154365F3EF
:102D50004103237002B070BDA278022161F3020228
:102D6000A270E9E7217841F001012170E9E7151E21
:102D700018BF0125E7E7A378042262F30203A370DA
:102D80000125E0E7A378032262F30203A3706378CE
:102D900003F07803402BD6D10125D4E7A378032292
:102DA00062F30203A370637813F0780FCBD0012590
:102DB000C9E7237843F001032370C4E72DE9F04FFE
:102DC00083B004460D4601929A460C9ED378324A4F
:102DD00013F802B00BF0030B6F2B0FD006D9702B3A
:102DE0000FD0782B10D14FF0100923E0582B02D0D0
:102DF0004FF00A091EE04FF010091BE04FF00809E0
:102E000018E04FF0100915E04FF00A0912E0D2B2B5
:102E10003032D2B206F8012D3A46434620462946C2
:102E2000FDF7DCFDBC4275F1000319D3564517D9F7
:102E300004460D464FF000084F464A46434620469A
:102E40002946FDF7CBFD092AE1D9BBF1010F03D0DB
:102E5000D2B25732D2B2DDE7D2B23732D2B2D9E7EC
:102E6000019B1B7813F0200F05D0B9F1080F06D095
:102E7000B9F1100F09D0304603B0BDE8F08F019AC8
:102E8000937843F008039370F5E7019A937843F041
:102E900010039370EFE700BF913401082DE9F04F64
:102EA00091B006460D4691460393002499F8000020
:102EB000002800F0D582252808D009F1010929460B
:102EC000B0470028C0F2CD820134EFE7002304931D
:102ED00005930693079308930993494606A8FFF7BD
:102EE000E3FD02909DF8193013F0010F00F0978078
:102EF000039B1A1D03921F68002FC0F288809DF863
:102F0000193013F0040F00F09C80039B1A1D0392EC
:102F1000D3F800A0BAF1000FC0F28A800023079313
:102F200008939DF81A3003F007039DF81910C1F3B8
:102F3000C301012B00F08E80022B00F0D380042B04
:102F400000F02481032B00F03B819DF8188018F0DD
:102F5000030B40F03B819DF81B30253B532B00F2C7
:102F6000E681DFE813F04001E401E401E401E4015B
:102F7000E401E401E401E401E401E401E401E40129
:102F8000E401E401E401E401E401E401E401E40119
:102F9000E401E401E401E401E401E401E401E40109
:102FA000E401E401E401E401E401E401E401E401F9
:102FB000E401E401E401E401E401E401E401E401E9
:102FC000E401E401E401E401E401E4018101E4013C
:102FD000E401E401E401E401E401E401E401E401C9
:102FE000E4015E016701E401E401E401E401670139
:102FF000E401E401E401E401BE018101A201E40174
:10300000E4014D01E4018101E401E40181019DF845
:10301000183043F004038DF818307F426FE79DF9B4
:103020001830002B02DB4FF0FF3768E7079F66E799
:103030009DF819306FF341038DF819304FF0FF3AC6
:103040006CE713F0020F02D0DDF820A066E74FF026
:10305000FF3A63E7CB1E042B04D8DFE803F00B1D17
:1030600029353500039B1A1D03921B68DA17049358
:10307000059206E0039B1A1D03921B68DA1704935E
:103080000592012928D002297FF45FAFBDF91030E5
:10309000DA170493059258E7039B073323F00703DD
:1030A00003F108020392D3E90023CDE90423E8E702
:1030B000039B073323F0070303F108020392D3E9CC
:1030C0000023CDE90423DCE7039B1A1D03921B6850
:1030D000DA1704930592D4E79DF810300493002387
:1030E000059332E7CB1E042B04D8DFE803F00B1F57
:1030F00035414100039B1A1D03921B680493002372
:1031000005931EE09DF81B30632B07D0039B1A1D0F
:1031100003921B6804930023059312E0039B1A1D7E
:1031200003921B680493002305930AE0039B073373
:1031300023F0070303F108020392D3E90023CDE94A
:10314000042301291CD002297FF4FFAEBDF8103002
:10315000049300230593F8E6039B073323F007034A
:1031600003F108020392D3E90023CDE90423E8E741
:10317000039B1A1D03921B68049300230593E0E749
:103180009DF81030049300230593DEE608290BD048
:10319000039B073323F0070303F108020392D3E9EB
:1031A0000023CDE90423D0E6039B073323F0070374
:1031B00003F108020392D3E90023CDE90423C4E616
:1031C000039B1A1D03921B680493BEE6029F3B46B5
:1031D0004A46294630460BF09DFA0028C0F241814C
:1031E0000444B94662E629462520B0470028C0F2CB
:1031F00038810134D8460DF13E0A4FF000099BE0BA
:10320000DDF81090BAF1000F07DB514648460DF08B
:103210007DFE09EB000AD8468EE04846FDF71BFE0E
:10322000F7E7049B8DF82830D8460DF1290A0DF1F7
:10323000280981E018F0080F05D118F0100804D013
:103240004FF0200801E04FF02B08049A059B002B5B
:1032500002DB0492059308E0524263EB43030492BD
:1032600005934FF02D0800E0D8460DF13E03009382
:103270000AAB06AADDE90401FFF7A0FD8146BAF119
:10328000000FC0F288800DF13E03A3EB09039DF807
:1032900018206FF386128DF818209A457ED9AAEB74
:1032A000030307930DF13E0A46E0049828B9D84677
:1032B000DFF8B4A1AAF105093EE00DF13E03009349
:1032C0000AAB06AA0021FFF779FD81469DF81A3066
:1032D00043F010038DF81A3078238DF81B30D84650
:1032E000CDE7049A9DF81930C3F3C303072B06D822
:1032F000DFE803F0040B0D0F1115191B1460D846FD
:103300000DF13E0A4FF0000916E01470F7E7148043
:10331000F5E71460F3E7E31714605360EFE7E31792
:1033200014605360EBE71460E9E71460E7E7D84600
:103330000DF13E0A4FF00009B9F1000F00F08D8049
:10334000AAEB0902B8F1000F00D001329DF81A1063
:1033500011F0100F25D00232079B134411F0400FDB
:1033600001D0089A1344002F31DDFF1A9DF8183060
:1033700013F0040F2BD113F0400F17D0B8F1000F4A
:1033800017D029464046B04700286ADB0134D846AA
:103390004FF0300B0FE00DF13E0ACDE70DF13E0A84
:1033A000CAE711F0080FD7D00132D5E74FF0200B54
:1033B00001E04FF0300B3B465F1E002B07DD294636
:1033C0005846B04700284CDB01343B46F4E7B8F1DF
:1033D000000F05D029464046B047002841DB0134A4
:1033E0009DF81A30C3F30012C3F3C003134305D092
:1033F00029463020B047002833DB01349DF81A30CD
:1034000013F0100F06D029469DF81B00B047002886
:1034100027DB0134079B03F1FF38002B07DD29462A
:103420003020B04700281CDB01344346F3E7534605
:103430004A46294630460BF06DF9002811DB04445A
:10344000002F07DD29462020B047002809DB013482
:10345000013FF5E7DDF8089028E5DDF8089025E55F
:10346000204611B0BDE8F08F9D1E01084FF01002FC
:10347000EFF3118382F31288BFF36F8F83F3118808
:10348000BFF36F8F024B034A1A600020704700BFE2
:10349000C003002000093D0008B5064B186018B1B4
:1034A000054B1B68092B00DC08BD044808F036F802
:1034B000FAE700BF380E0020EC0D00208406002043
:1034C00008B5024808F02AF808BD00BF84060020AD
:1034D00030B589B000220F490F480DF038FB0F4D71
:1034E00000220023CDE90623002404940E23039335
:1034F0000294019400940A4B4FF440720949284603
:103500000CF0E6FF084928460CF0CEFF204609B033
:1035100030BD00BFC1340008200B0020580B002034
:10352000C538000840180020A41E0108184BBFF33E
:103530005B8F53E8002F511C43E800100028F8D19E
:10354000BFF35B8F1ABB70B5002409E0114B03EB8E
:1035500006135B6804221968284600F0D9F9013483
:103560000D4B0C4A9B1AB4EB231F0FDA2646094D6C
:1035700005EB04152B7B002BF1D02301054AD35812
:103580009B69002BE2D028469847DFE770BD704763
:10359000F40D0020F4190108041A010838B108B527
:1035A000044A1060084600F0A3FB002008BD6FF03D
:1035B00015007047B402002008B5054B1B781BB1FD
:1035C000034B01221A7008BD024807F0A7FFF7E776
:1035D00008140020840600200D4BBFF35B8F53E8D6
:1035E000002F013243E800210029F8D1BFF35B8F9F
:1035F00000B97047074BBFF35B8F53E8002F013AC8
:1036000043E800210029F8D1BFF35B8FF1E700BF49
:10361000F00D0020EC0D0020064B00200246BFF309
:103620005B8F53E8000F43E800210029F9D1BFF375
:103630005B8F7047F00D002038B5FFF7EDFF0546B2
:10364000002400E001340B4B0B4A9B1AB4EB231F00
:103650000FDA094800EB041043685B79002BF1D0C6
:103660002301054AD3581B69002BEBD02946984704
:10367000E8E738BD041A0108F4190108034B18687B
:103680000028D4BF00200120704700BFF00D0020AB
:1036900008B5024902480BF009F908BDB01E01083F
:1036A000F80D002008B50023054A1370054A136081
:1036B0004FF47A710448FFF771FFFFF7E9FF08BD87
:1036C00009140020F00D002015EC000808B5014693
:1036D0000022002301480BF00EF908BDF80D002070
:1036E00008B502480BF0C4F908BD00BFF80D002072
:1036F00008B5014601480BF02CFA08BDF80D002072
:10370000F8B50646E9B9002400E001340F4B104A31
:103710009B1AB4EB231F14DA0D4D05EB04156B68EF
:103720005B79002BF1D0314628460BF071FA002866
:10373000EBD02701064BDB591B68314628469847DA
:10374000E3E73046FFF7D4FFF8BD00BF041A0108D5
:10375000F419010808B502480BF038FA08BD00BF9B
:10376000F80D002010B50446114B1B7803B9D0B1F9
:103770000BF05DFA034680B15CB90E4ABFF35B8F74
:1037800052E8001F013942E800100028F8D1BFF3C9
:103790005B8F21461846FFF7B3FF14B9FFF76EFFA2
:1037A00010B90BF048FA10BDFFF746FFF9E700BF6C
:1037B00008140020EC0D002010B582B01D4BBFF3A3
:1037C0005B8F53E8002F511C43E800100028F8D10C
:1037D000BFF35B8F184B1B783BB9184B1B6803B1C9
:1037E0009AB10A2A1CD002B010BD4FF01003EFF3BB
:1037F000118483F31288BFF36F8F0020FFF7B2FFAD
:1038000084F31188BFF36F8FEDE700220023CDE929
:10381000002342F210720023094808F01FFEE2E77D
:10382000002BE0D006480DF09EF9064807F076FE22
:10383000D9E700BFEC0D002009140020380E00204D
:10384000200B00208406002010B50446054B1B68A1
:103850009847A060214604480BF0E4F8FFF7ACFF5E
:1038600010BD00BFB4020020F80D0020124B1B78E1
:1038700003B1704710B5FFF759FE002400E0013492
:103880000E4B0F4A9B1AB4EB231F0CDA0C4800EBCB
:10389000041043685B79002BF1D02301084AD35808
:1038A0005B699847EBE70020FFF75CFF0028FAD13F
:1038B000014B01221A7010BD09140020041A0108DE
:1038C000F419010808B5FFF731FE08F0A1FBFFF776
:1038D000E3FD0020FFF746FF0028FAD14FF0FF324A
:1038E0004FF0FF33014807F041FEF2E78406002065
:1038F000054B064A9B1AB1EBD30F02D252F83100A6
:1039000070470020704700BFF4190108941901089E
:1039100008B5074BC31A1B11013342681371436882
:103920001960436801225A71FFF746FE08BD00BFC7
:10393000F41901080EB400B582B0014603AB53F888
:10394000042B01930348FFF7A9FA02B05DF804EBDA
:1039500003B07047DDEC000830B585B011F0440FBE
:1039600005D01A4B1C6834B9002005B030BD184989
:10397000FFF7E0FFF9E7174B1968B2FBF1F1B1FB74
:10398000F4FC154AA2FB0C32D20A4FF4616E0EFB16
:1039900012CE124BA3FB0E535B0904FB1C114FF418
:1039A0007A7C0CFB01F1B1FBF4F505FB14110CFB67
:1039B00001F1B1FBF4F102910195C3EB0311AEEB00
:1039C000810100910649FFF7B5FFCEE73C0E0020CC
:1039D000C41E0108400E0020C5B3A29189888888C2
:1039E000D01E010861B108B52AB1064A52F8232059
:1039F00012B9054A00E0044A0449FFF79BFF08BDDD
:103A0000704700BF481F0108EC1E0108F41E0108A2
:103A100011F0100F0BD108B511F0200F03D004499D
:103A2000FFF788FF08BD0349FFF784FFFAE77047F7
:103A3000681E0108F81E01082DE9F04105460F46F1
:103A4000164698460699FFF7E3FF0024444505DA39
:103A500024492846FFF76EFF0134F7E7002409E008
:103A600020492846FFF766FF0BE01F492846FFF76D
:103A700061FF01340F2C0CDC002C02DD14F0070F69
:103A8000EED0B442F1D23A5D18492846FFF752FF12
:103A9000EFE717492846FFF74DFF002409E01149D9
:103AA0002846FFF747FF0BE012492846FFF742FF81
:103AB00001340F2C13DC002C02DD14F0070FEED0C4
:103AC000B44207D23A5D0C4BD35C13F0970FEBD1A5
:103AD0002E22E9E703492846FFF72CFFE8E7BDE877
:103AE000F08100BF201F0108041F0108FC1E01080F
:103AF000081F01080C1F0108913401082DE9F0414D
:103B0000804616461D46BDF9187059B90024002F8D
:103B10001CDB86B10123079A934013F0100F18D1D4
:103B20000D4E09E00D4B079A53F822200C49FFF780
:103B300001FF0446EBE7084E39462846FFF7D8FE5A
:103B4000024631464046FFF7F5FE04442046BDE8F4
:103B5000F081044EF0E700BF101F0108841F010828
:103B60001C1F0108181F01082DE9F04F85B00546FC
:103B70000C46164603939DF8388001F0020B01F0C5
:103B8000010AC1F3C0090BF05AF8E8B10246134923
:103B90002846FFF7CFFE0746BBF1000F16D142467D
:103BA000514628460BF05AF8CDF80480BDF9403054
:103BB00000939DF83C30324649462846FFF79EFF69
:103BC000384405B0BDE8F08F0027E5E7039A2146A9
:103BD0002846FFF7C1FE0744E1E700BF241F0108A4
:103BE0002DE9F04385B006460C4617468B680A88D7
:103BF000C2F3821812F4E07F35D04A680978C1F325
:103C0000C2016AB32048121A42F3CF020292019114
:103C1000CDF80080002239463046FFF7A5FF8146E7
:103C2000254655F80C3BC3F3492343B1B8F1000FC7
:103C30001CD116482B46324615490AF0FEFC628814
:103C4000C2F3CB022168C1F34921294482B9B8F1FA
:103C5000000F13D130460BF034F805B0BDE8F08307
:103C60004FF0FF32D2E74FF00009D9E70948E1E70A
:103C700000974B4630460BF009F8E8E742463946D4
:103C800030460AF0F7FFE5E79419010815ED000842
:103C90009D2E0008DDEC000870B582B00446056872
:103CA00042F20F738B4228BF0B460E4A052168462D
:103CB0000AF018FD064663685B680B220A4928462D
:103CC0000AF0BFFF63685B683246694628460AF01F
:103CD000B8FF63685B681B22044928460AF0B1FFFD
:103CE00002B070BD44250108781F01085C1F01085F
:103CF000074B01221A6004E04008054A13685B0084
:103D00001360044B9842F7D8034B1860704700BF0C
:103D1000400E002040420F003C0E002070B50646C9
:103D20000D46002406E0054B1868315D8368DB69A9
:103D300098470134AC42F6D3284670BD580E002097
:103D4000014B024A1A607047580E00208416010881
:103D500008B5034B01221A7002480AF0B2FF08BDF1
:103D60000A140020D41F010808B50248FFF794FF89
:103D700008BD00BFD41F010808B50F220148FFF796
:103D80002FFF08BDD41F010810B5044C02E054F801
:103D9000043B9847024B9C42F9D310BD941901088B
:103DA00094190108064B1B684BB110B55C1E044A00
:103DB00052F8233098472346002CF7D110BD7047A6
:103DC0008C190108014910220A60704710ED00E0CB
:103DD00072B6404080F31188BFF36F8FBFF34F8FEF
:103DE00030BF62B6BFF36F8F704700BF2DE9F04759
:103DF00096B000AF054601233B816C4688B06B4608
:103E000013F10C0200F0CA801421012038811AB18C
:103E1000042901DD67481861286812B1082900DD0E
:103E20005861686812B10C2900DD9861A86812B168
:103E3000102900DDD861132940F3B38014202AB182
:103E400000217960052139717968D96000216FF30B
:103E500000016FF341016FF382016FF3C501012689
:103E600066F3881100F47D7363F352216FF3DE4132
:103E70006FF3DF71002350480AF073FFA5463E81BF
:103E80006C4688B06B4613F10C0200F08D80142153
:103E9000012038811AB1042901DD48481861E86819
:103EA00012B1082900DD5861286912B10C2900DD22
:103EB0009861686912B1102900DDD861132976DD97
:103EC00014202AB100217960052139717968D960FF
:103ED00000216FF300016FF341016FF382016FF373
:103EE000C501012666F3881100F47D7363F3522146
:103EF0006FF3DE416FF3DF71DFF8BC8000234046D3
:103F00000AF02FFFA5463E81EB692D4ABA63FB6399
:103F100000247C604FF0030A87F804A07B687B6371
:103F2000214664F3000164F3410164F3820164F308
:103F3000C50166F388114FF00C0969F3522164F34F
:103F4000DE4164F3DF71234607F1340240460AF094
:103F500008FF3E81AB691B4A3A657B657C6087F848
:103F600004A07B68FB64214664F3000164F3410113
:103F700064F3820164F3C50166F3881169F3522189
:103F800064F3DE4164F3DF71234607F14C024046DF
:103F90000AF0E7FE5837BD46BDE8F0876FF00041F4
:103FA00033E76FF01B004AE76FF0004170E76FF0F6
:103FB0001B0086E7E41F0108BC1901081420010852
:103FC000442001085420010840B2002807DB00F01B
:103FD0001F02400901239340014A42F820307047F4
:103FE00000E100E040B200280CDB00F01F024009B5
:103FF000012393402030044A42F82030BFF34F8F12
:10400000BFF36F8F704700BF00E100E04209054B2E
:1040100053F8222000F01F00012303FA00F01040A3
:10402000704700BF00E100E0013140B2002808DB2A
:104030000901C9B200F1604000F5614080F8001349
:10404000704700F00F000901C9B2014B19547047C5
:1040500014ED00E030BFFFF7FDBF00BF08B50F4B08
:104060000F4A22F07F029A60BFF34F8FBFF36F8F2A
:10407000D3F8882022F47002C3F88820EFF3148369
:1040800023F0040383F31488BFF36F8F07F098F8CD
:1040900008F010F800F0AEFE07F09EF800ED00E02A
:1040A00000000008094A9368986709490968D967B8
:1040B00008494B6843F080534B60002383F3118819
:1040C000BFF36F8F9368D86F704700BFAC130020A9
:1040D000E032010800ED00E012498A684FF030003C
:1040E0001044EFF3098C80E8F01F102080F3128851
:1040F000BFF36F8F0C4F4FF000668A698A603E6095
:10410000906F0023936780F3118804B5104600F088
:10411000C5FEBDE8044002F1300090E8F01F8CF3CA
:1041200009887047AC13002004ED00E01EF0040F76
:104130000CBFEFF30880EFF30980816911F8021CCE
:104140000229FFD001B50AF085FE01BD10B4A2F12D
:1041500020040D4942F8081C21F0010142F8081C16
:1041600042F8203C019B42F81C3C029B42F8183C60
:10417000039B42F8143C4FF0807342F8043C046502
:104180000023836710BC704701E70008114B9A6851
:10419000EAB110F1160F10D0936EA3F1200C8445F4
:1041A00005D8834205D98B4205D800210AE00021B9
:1041B00008E0002106E0012104E0936E8B4294BFE9
:1041C0000021012109B900207047906E704700203E
:1041D000704700BFAC13002008B50D461446084BCD
:1041E000986000F05BFE204685F30988002163B6E5
:1041F00081F31188BFF36F8F002200230AF080FA49
:10420000AC13002001B5EFF30580A0F110004FEAD8
:10421000C0000449014409C99847BDE8014002496A
:1042200008470000E41601082D420008044B996875
:104230009869884203D003494FF080520A60704762
:10424000AC13002004ED00E000B585B00F290FDCB1
:10425000084B103903910293074B01930020009003
:104260000346012205490AF009FE05B05DF804FB8A
:10427000034BEEE7A0200108B8200108BC19010893
:104280008420010870B5BAB005460E4614460122D6
:10429000ADF80820A84B0E930023019302218DF85E
:1042A000041001990D91194663F3000163F3410174
:1042B00063F3820163F3C50162F38811082262F39C
:1042C000522163F3DE4163F3DF710DAA9B480AF0CC
:1042D00048FD9B4B9B6A13F4805F28D1984B9B6AE7
:1042E00013F4006F46D1964B9B6A13F4007F64D1A0
:1042F000934B9B6A13F4806F40F0B480904B9B6AA1
:1043000013F4807F40F0D1808D4B9B6A13F4005FE3
:1043100040F0EE808A4A936A43F47F43936201211E
:1043200028460AF0A9FD207000203AB070BD012295
:10433000ADF80820834B14930023019302218DF8DC
:10434000041001991391194663F3000163F34101CD
:1043500063F3820163F3C50162F38811082262F3FB
:10436000522163F3DE4163F3DF7113AA73480AF04D
:10437000F8FCB3E70122ADF80820734B1A93002331
:10438000019302218DF8041001991991194663F3E4
:10439000000163F3410163F3820163F3C50162F33A
:1043A0008811082262F3522163F3DE4163F3DF7167
:1043B00019AA62480AF0D5FC95E70122ADF8082059
:1043C000624B20930023019302218DF80410019980
:1043D0001F91194663F3000163F3410163F3820106
:1043E00063F3C50162F38811082262F3522163F37B
:1043F000DE4163F3DF711FAA50480AF0B2FC504B54
:104400009A6B9B6A13F4004F3FF472AF0120ADF832
:1044100008004F4B269327920023019303228DF827
:104420000420019A2592194663F3000163F34101C8
:1044300063F3820163F3C50160F388110C2262F318
:10444000522163F3DE4163F3DF7125AA3B480AF092
:1044500088FC002E3FF44CAF394A936A23F40043A2
:10446000936245E70122ADF808203A4B2C930023D4
:10447000019302218DF8041001992B91194663F3E1
:10448000000163F3410163F3820163F3C50162F349
:104490008811082262F3522163F3DE4163F3DF7176
:1044A0002BAA26480AF05DFC28E70122ADF8082077
:1044B000294B38930023019302218DF804100199B0
:1044C0003791194663F3000163F3410163F38201FD
:1044D00063F3C50162F38811082262F3522163F38A
:1044E000DE4163F3DF7137AA14480AF03AFC11E7A2
:1044F0000122ADF80820194B3293002301930221C9
:104500008DF8041001993191194663F3000163F3AA
:10451000410163F3820163F3C50162F3881108224C
:1045200062F3522163F3DE4163F3DF7131AA034882
:104530000AF017FCEEE600BFCC200108BC19010808
:1045400000ED00E0E4200108F82001080C2101083A
:1045500028210108402101085C210108742101087B
:1045600000B5B5B00122ADF808208E4B0E930023A4
:10457000019302218DF8041001990D91194663F3FE
:10458000000163F3410163F3820163F3C50162F348
:104590008811082262F3522163F3DE4163F3DF7175
:1045A0000DAA81480AF0DDFB804B9B6A13F0007F67
:1045B00025D17E4B9B6A13F0807F43D17B4B9B6A56
:1045C00013F4002F61D1794B9B6A13F4802F7FD1B4
:1045D000764B9B6A13F4003F40F09D80734B9B6ABF
:1045E00013F4803F40F0BA80704A936A6FEA034345
:1045F0006FEA13439362002035B05DF804FB01229B
:10460000ADF808206A4B14930023019302218DF822
:10461000041001991391194663F3000163F34101FA
:1046200063F3820163F3C50162F38811082262F328
:10463000522163F3DE4163F3DF7113AA5A480AF093
:1046400090FBB6E70122ADF808205A4B1A930023DD
:10465000019302218DF8041001991991194663F311
:10466000000163F3410163F3820163F3C50162F367
:104670008811082262F3522163F3DE4163F3DF7194
:1046800019AA49480AF06DFB98E70122ADF8082005
:10469000494B20930023019302218DF804100199C6
:1046A0001F91194663F3000163F3410163F3820133
:1046B00063F3C50162F38811082262F3522163F3A8
:1046C000DE4163F3DF711FAA37480AF04AFB7AE73D
:1046D0000122ADF80820394B2693002301930221D3
:1046E0008DF8041001992591194663F3000163F3D5
:1046F000410163F3820163F3C50162F3881108226B
:1047000062F3522163F3DE4163F3DF7125AA264889
:104710000AF027FB5CE70122ADF80820284B2C9318
:104720000023019302218DF8041001992B91194661
:1047300063F3000163F3410163F3820163F3C50195
:1047400062F38811082262F3522163F3DE4163F3BE
:10475000DF712BAA14480AF004FB3FE70122ADF8F1
:104760000820184B32930023019302218DF8041086
:1047700001993191194663F3000163F3410163F339
:10478000820163F3C50162F38811082262F35221AA
:1047900063F3DE4163F3DF7131AA03480AF0E1FA03
:1047A00022E700BFA4210108BC19010800ED00E0C8
:1047B000BC210108D0210108EC2101080C220108CC
:1047C000342201085022010800B591B000230B707B
:1047D0000122ADF8082010490E91019302218DF8B5
:1047E000041001990D91194663F3000163F341012F
:1047F00063F3820163F3C50162F38811082262F357
:10480000522163F3DE4163F3DF710DAA03480AF01E
:10481000A8FA11B05DF804FB7C220108BC1901085C
:10482000F0B5B5B005460C4616460122ADF8082095
:10483000A34B0E930023019302218DF804100199DC
:104840000D91194663F3000163F3410163F38201A3
:1048500063F3C50162F38811082262F3522163F306
:10486000DE4163F3DF710DAA96480AF07AFA964B9F
:104870009B6A13F0100F34D1934B9B6A13F0080F0F
:1048800052D1914B9B6A13F0020F70D16FF0150754
:104890008D4B9B6A13F0010F40F0C0808A4B9B6ADE
:1048A00013F0200F40F0DD80874B9B6A13F0100F50
:1048B00004D1854B9C6A14F0020405D0824B5C68DD
:1048C00014F4006440F0F0807F4A936A43F0FF03E1
:1048D0009362012128460AF0CFFA3070204635B0A5
:1048E000F0BD0122ADF80820784B1493002301930A
:1048F00002218DF8041001991391194663F3000108
:1049000063F3410163F3820163F3C50162F388112C
:10491000082262F3522163F3DE4163F3DF7113AACD
:1049200068480AF01EFAA7E70122ADF80820684B94
:104930001A930023019302218DF804100199199113
:10494000194663F3000163F3410163F3820163F3EA
:10495000C50162F38811082262F3522163F3DE413C
:1049600063F3DF7119AA57480AF0FBF989E70122BE
:10497000ADF80820574B20930023019302218DF8B6
:10498000041001991F91194663F3000163F341017B
:1049900063F3820163F3C50162F38811082262F3B5
:1049A000522163F3DE4163F3DF711FAA45480AF029
:1049B000D8F9454B5F6B9B6A13F0800F02D16FF003
:1049C000150765E70122ADF80820434B269327978A
:1049D0000023019303218DF80410019925911946B4
:1049E00063F3000163F3410163F3820163F3C501E3
:1049F00062F388110C2262F3522163F3DE4163F308
:104A0000DF7125AA2F480AF0ACF9002C3FF440AF23
:104A10002D4A936A23F08003936239E70122ADF8AF
:104A200008202E4B2C930023019302218DF80410B3
:104A300001992B91194663F3000163F3410163F37C
:104A4000820163F3C50162F38811082262F35221E7
:104A500063F3DE4163F3DF712BAA1A480AF081F990
:104A60001CE70122ADF808201D4B3293002301936F
:104A700002218DF8041001993191194663F3000168
:104A800063F3410163F3820163F3C50162F38811AB
:104A9000082262F3522163F3DE4163F3DF7131AA2E
:104AA00008480AF05EF9FFE629463846FFF76EFB34
:104AB000044600283FF408AF80F30988022403E786
:104AC000A0220108BC19010800ED00E0B82201088D
:104AD000F8200108EC220108042301081C23010826
:104AE00074210108F0B5A9B007460E460123ADF8C0
:104AF0000830734A0E920024019402228DF804209B
:104B0000019A0D92214664F3000164F3410164F3BC
:104B1000820164F3C50163F38811082363F3522112
:104B200064F3DE4164F3DF7123460DAA65480AF0A1
:104B300018F93470644BDD6A15F002050AD1624B36
:104B4000DB6A002B2ADB604BD86A10F0804049D129
:104B500029B0F0BD0123ADF808305C4A26920194DB
:104B600002228DF80420019A2592214664F3000167
:104B700064F3410164F3820164F3C50163F38811B6
:104B8000082363F3522164F3DE4164F3DF712346AB
:104B900025AA4C480AF0E5F82046D9E70122ADF8ED
:104BA00008204B4B20930023019302218DF8041021
:104BB00001991F91194663F3000163F3410163F307
:104BC000820163F3C50162F38811082262F3522166
:104BD00063F3DE4163F3DF711FAA3A480AF0C1F8BC
:104BE0002846B5E70122ADF808203A4B149300237C
:104BF000019302218DF8041001991391194663F372
:104C0000000163F3410163F3820163F3C50162F3C1
:104C10008811082262F3522163F3DE4163F3DF71EE
:104C200013AA28480AF09DF8BB6933F8022C4DF608
:104C300002739A420DD0244B93F828307BBB224B51
:104C400093F829308BBB204B5B8D9BB29BBB2846D6
:104C50007EE70122ADF808201F4B1A933B681B9397
:104C60000023019303218DF804100199199119462D
:104C700063F3000163F3410163F3820163F3C50150
:104C800062F388110C2262F3522163F3DE4163F375
:104C9000DF7119AA0B480AF064F8386858E7324601
:104CA00001213846FFF7BCFD52E732460121384664
:104CB000FFF7E8FA4CE73846FFF752FC48E700BF39
:104CC0003C230108BC19010800ED00E05423010851
:104CD0007823010888230108A823010870B598B03B
:104CE000384B5D68C5F30805002383F31188BFF3D3
:104CF0006F8F02F07F43B3F17F4F3CD102F00C0382
:104D0000082B10D012F0080F32D00C4600260DF1FF
:104D10004702294620460AF0BEF805469DF847306E
:104D200063B318B070BD0123ADF80430264A169263
:104D30000024009402228DF80020009A159221464A
:104D400064F3000164F3410164F3820164F3C5017B
:104D500063F38811082363F3522164F3DE4164F3A3
:104D6000DF71234615AA194809F0FBFF2646CEE756
:104D700004460126CBE700263446C8E70DF1240C93
:104D800020686168A268E368ACE80F002069616987
:104D9000A269E369ACE80F0046B1C3F308025AB94F
:104DA0006FEA53236FEA4323109305E0109B23F42B
:104DB000FF7323F00103109309A928460AF03EF877
:104DC000AFE700BF00ED00E0C4230108BC190108F3
:104DD000024A536943F010035361704700ED00E04D
:104DE000EFF30880EFF3098101B57246FFF776FF14
:104DF00001BD00BF002206E002F00F01094B0B4489
:104E0000102119760132542A0ADC53B2002BF3DB4D
:104E100003F1604303F56143102183F80013F1E7C8
:104E2000704700BFFCEC00E0102080F311880848B8
:104E30004FF40261401880F30988EFF314800221D7
:104E4000084380F31488BFF36F8FFFF707F9000062
:104E5000E02C002008B5084B9B68834202D007F085
:104E6000EDF808BDEFF30583002BF8D0034A536833
:104E700043F080535360F2E7AC13002000ED00E0F4
:104E800008B5034B034A012103480AF059F808BD4D
:104E90000080022000000020F423010808B5836E82
:104EA000203B0548036020234360044B83600121BD
:104EB0000AF04AF808BD00BF600E002000000B1584
:104EC000084AC2F898000B6823F01F03034343F01D
:104ED0001003C2F89C308B6843F00103C2F8A03085
:104EE000704700BF00ED00E010B590B00446072801
:104EF00004D8FFF7E5FF204610B010BD0122ADF841
:104F00000820114B0E930F900023019303218DF87D
:104F1000041001990D91194663F3000163F34101F7
:104F200063F3820163F3C50162F388110C2262F31B
:104F3000522163F3DE4163F3DF710DAA034809F0E8
:104F400010FF6FF01500D7E700240108B41901081D
:104F50002DE9F04391B080460F469946164600254C
:104F600009E02146F0B209F0CCFF064610F1160F19
:104F700037D001360135BD4233DA05EB450408EB85
:104F800084046268002AF5D0B9F1000FE9D0204608
:104F900009F0A6FF0028E4D10122ADF80820134B48
:104FA0000E930F950023019303218DF804100199AE
:104FB0000D91194663F3000163F3410163F382012C
:104FC00063F3C50162F388110C2262F3522163F38B
:104FD000DE4163F3DF710DAA054809F0C2FE6FF0F0
:104FE0001506304611B0BDE8F08300BF2824010843
:104FF000B419010810B5034C01232278FFF7A8FF6C
:10500000207010BD0B14002008B50023094A127847
:10501000FFF79EFF10F1160F0AD0034606E0064A7E
:10502000C2F898300021C2F8A0100133072BF6DD3A
:1050300008BD00BF0B14002000ED00E0044B05226A
:10504000C3F89420BFF34F8FBFF36F8F704700BF3B
:1050500000ED00E0BFF35F8F024B0022C3F8942005
:10506000704700BF00ED00E038B50E4B1D68082DFD
:1050700015D8FFF7EFFF002409E00A4B596804EB4D
:105080004402930019442046FFF71AFF0134A54259
:10509000F3D8054B1D70FFF7D1FF002038BD4FF04E
:1050A000FF30FBE7842401080B140020014B18603B
:1050B000704700BFBC02002070B506460D460024B4
:1050C00000E00134AC4208DA054B1B6898473055C4
:1050D0000A2801D00D28F4D10134204670BD00BF4C
:1050E000B8020020F8B505460F46002404E0094B3D
:1050F0001B68307898470134BC4208DA2E192B5DC2
:105100000A2BF4D1034B1B680D209847EFE7384674
:10511000F8BD00BFBC02002008B5052202490120ED
:1051200009F023FFFEE700BF4C2401080246084BAC
:105130001968084BC8180A44C3F1005303F520331B
:105140009A4202D2024B1A6070474FF0FF3070470C
:105150006C0E00202039002008B51D2204490220D1
:1051600009F003FF404080F311884FF0030002DF95
:1051700054240108F0B583B005460C461646144B7E
:10518000186848B1A2B283681B682946984703464D
:10519000C00F07D103B0F0BD0E4805F075FE0C4BF3
:1051A0001860EFE756B11846F4E705F0B7FC019038
:1051B0003A4601A9A8190BF075FD3E44A64204D257
:1051C000A71B042FF1D90427EFE70020E2E700BF77
:1051D000700E0020A424010870B504460D4616691F
:1051E00002E001220CE00134AC4217DA1F2CFADC99
:1051F0000123A3400A4A526933EA0202F1D0002295
:10520000002AF0D0064A536156F83430002BEAD019
:1052100006EBC402516820469847E4E770BD00BF22
:105220000004014008B501238340044A11680B4380
:105230001360034B1856FEF7C7FE08BD000401407B
:10524000C82401081F2806DC01238340024A106895
:1052500020EA03001060704700040140032932D89F
:10526000DFE801F0020F1B27012303FA00F0164BC1
:105270009A6822EA00029A60DA6822EA0000D8609E
:105280007047012303FA00F00F4B9A6802439A60BB
:10529000DA6822EA0000D8607047012303FA00F0C0
:1052A000094BDA680243DA609A6822EA00009860E3
:1052B0007047012303FA00F0034B9A6802439A6097
:1052C000DA681043D860704700040140074B53F878
:1052D00030303BB9054B43F8301003EBC00042605F
:1052E000002070476FF00F00704700BF740E002061
:1052F000034B002243F8302003EBC0035A60704791
:10530000740E002086B00B68062B48D8DFE803F047
:105310000410263C31471B004B68224A916C19430C
:105320009164926C13400093009B002006B070477C
:105330004B681C4AD16C1943D164D26C1340019361
:10534000019B0020F2E74B68164A116D1943116565
:10535000126D13400293029B0020E7E74B68114A4D
:10536000916D19439165926D13400393039B002047
:10537000DCE74B680B4AD16D1943D165D26D134000
:105380000493049B0020D1E74B68064A116E194331
:105390001166126E13400593059B0020C6E76FF05F
:1053A0008500C3E7001002400B68062B35D8DFE804
:1053B00003F0040C1C2C243414004968184A936C24
:1053C00023EA01039364002070474968144AD36CB0
:1053D00023EA0103D364002070474968104A136D23
:1053E00023EA010313650020704749680C4A936D56
:1053F00023EA01039365002070474968084AD36D8A
:1054000023EA0103D365002070474968044A136EFC
:1054100023EA01031366002070476FF08500704790
:105420000010024070B50C4615460D4B1E68012158
:10543000304609F031FE2368062B0ED8DFE803F072
:105440000404070A070D04002E60002070BD2860C8
:105450000020FBE728600020F8E76FF08500F5E703
:10546000C0030020104B1B6813F4806F09D10E4A53
:10547000136843F4807313600B4B1B6813F4806F45
:10548000FAD0094A936823F0030343F001039360C1
:10549000936823F0F00318439060034B9B6803F07C
:1054A0000C03042BF9D170470010024010B586B0F0
:1054B00003A809F0ECFD00F023F8684609F0EFFDC1
:1054C0000020FFF7CFFF0D4C236823F0807323608B
:1054D000E36823F4C00343F48003E36003A9684650
:1054E00005F06AFC236823F480332360236823F0EB
:1054F00001032360002006B010BD00BF0010024071
:1055000082B0064B9A6D42F080529A659B6D03F013
:1055100080530193019B02B0704700BF001002400E
:1055200010B504460A2807D0074B1868E1B2836813
:10553000DB699847204610BD034B18688368DB6918
:105540000D219847F0E700BFF40E002010B5044C81
:105550002046FFF7ABFD2046FDF764FA10BD00BF03
:105560002155000808B50648064B18600AF04DFFA3
:1055700018B1FFF7EBFF002008BD6FF01200FBE74A
:1055800084160108F40E0020032815D8DFE800F087
:1055900002050A0F0020086070474FF480530B602B
:1055A000002070474FF400530B60002070474FF409
:1055B00040530B600020704700B591B00122ADF858
:1055C0000820124B0E930F900023019303218DF8B6
:1055D000041001990D91194663F3000163F3410131
:1055E00063F3820163F3C50162F388110C2262F355
:1055F000522163F3DE4163F3DF710DAA044809F021
:10560000B0FB6FF0150011B05DF804FBE824010851
:1056100094190108012830D0022832D048B300B5CF
:1056200091B00122ADF80820174B0E930F90002384
:10563000019303218DF8041001990D91194663F32C
:10564000000163F3410163F3820163F3C50162F377
:1056500088110C2262F3522163F3DE4163F3DF71A0
:105660000DAA0A4809F07DFB6FF0150011B05DF836
:1056700004FB4FF480430B60704710230B60002045
:105680007047002008607047FC2401089419010845
:10569000012832D002282DD048B300B591B00122A4
:1056A000ADF80820164B0E930F90002301930321B1
:1056B0008DF8041001990D91194663F3000163F30D
:1056C000410163F3820163F3C50162F388110C2287
:1056D00062F3522163F3DE4163F3DF710DAA0948DF
:1056E00009F03FFB6FF0150011B05DF804FB80235B
:1056F0000B6070470020086070476FF085007047AE
:105700001025010894190108012832D002282DD053
:1057100048B300B591B00122ADF80820164B0E93A6
:105720000F900023019303218DF8041001990D912E
:10573000194663F3000163F3410163F3820163F3EC
:10574000C50162F388110C2262F3522163F3DE413A
:1057500063F3DF710DAA094809F003FB6FF0150030
:1057600011B05DF804FB40230B6070470020086017
:1057700070476FF0850070472C25010894190108C7
:105780002DE9F04196B006460D4643681F699C69B5
:1057900001EB410304EBC30401F101080023A371F1
:1057A000384600F061FD78B1637943B16569002343
:1057B000424621693046A84716B0BDE8F081294627
:1057C000384600F059FCF1E72946384600F032FD32
:1057D00068B1637933B16569002342462169304677
:1057E000A847E9E72946384600F04EFCF3E729468A
:1057F000384609F0F5FD48B30122ADF808202C4BDE
:1058000014930023019302218DF804100199139140
:10581000194663F3000163F3410163F3820163F30B
:10582000C50162F38811082262F3522163F3DE415D
:1058300063F3DF7113AA1F4809F093FA65696FF0EB
:105840000403424621693046A847B5E70122ADF876
:105850000820194B0E930023019302218DF80410A8
:1058600001990D91194663F3000163F3410163F35C
:10587000820163F3C50162F38811082262F35221A9
:1058800063F3DE4163F3DF710DAA0A4809F069FA98
:105890002946304609F045FC2946304609F047FCC8
:1058A00065696FF00403424621693046A84783E7E3
:1058B0004825010894190108642501082DE9F041E3
:1058C000144643681E69481E5A69824216D99F6968
:1058D00000EB40054FEAC50807EBC50500F0C6FB25
:1058E000084B1B5C1E4473689BB2636017F808305A
:1058F0006370AB7923700020BDE8F0816FF0150074
:10590000FAE700BFF4260108F8B54268966901EB92
:105910004103DB00183B1E4417694C1E5369A34228
:1059200014D90546204600F0A1FB0A4B1A5CBB586F
:1059300023F00203BB502146384609F02BFC2146D8
:10594000284609F0F4FB0020B071F8BD6FF0150097
:10595000FBE700BFF42601082DE9F84F1F46406819
:1059600006694C1E4369A34264D99046D0F818A03A
:1059700004EB44054FEAC50B0AEBC505214630464A
:1059800009F008FC8146002857D15AF80B1001296C
:1059900007D002292CD059B36FF015094846BDE84D
:1059A000F88F204600F062FBDFF894A01AF8003070
:1059B0003344C3F80C80204600F058FB1AF800303E
:1059C00033449F602B792BB3204600F04FFBAB682C
:1059D0000A9AB2FBF3F31A4A115C31444A68120C7A
:1059E000120413434B602146304600F057FCD5E7C4
:1059F000204600F03BFBDFF848A01AF800303344A3
:105A0000C3F80880204600F031FB1AF80030334418
:105A1000DF60D7E7204600F029FBEB680A9AB2FB6B
:105A2000F3F3074A115C31444A68120C1204134321
:105A30004B60D8E76FF01509B0E76FF00F09ADE7DD
:105A4000F42601082DE9F04FD1B007460D46144663
:105A5000D0F804B0DBF8189001EB4106F600183ED0
:105A600009EB0608DBF810A009A80AF0B0FC63886F
:105A700003F4FE63B3F5FE6F00F09C80013DDBF89C
:105A80001430AB4240F2A68098F80630002B40F06C
:105A9000C7802946504609F07DFB002840F0E6808B
:105AA0002946384609F043FB22695369B3F5803F24
:105AB00080F00281E188A388994240F02581042B7F
:105AC00004D0022B02D0012B40F04381137FC3F39B
