:020000040800F2
:10000000E02B00204954000867F400080154000860
:1000100001540008015400080154000800000000C9
:100020000000000000000000000000004D47000834
:100030000154000800000000F9460008B1AF0008B4
:1000400025480008254800082548000825480008DC
:1000500025480008254800082548000825480008CC
:1000600025480008254800082548000825480008BC
:1000700025480008254800082548000825480008AC
:10008000254800082548000825480008254800089C
:10009000254800082548000825480008254800088C
:1000A000254800082548000825480008254800087C
:1000B000254800082548000825480008254800086C
:1000C000254800082548000825480008254800085C
:1000D000254800082548000825480008254800084C
:1000E000254800082548000825480008254800083C
:1000F000254800082548000825480008254800082C
:10010000254800082548000825480008254800081B
:10011000254800082548000825480008254800080B
:1001200025480008254800082548000825480008FB
:1001300025480008254800082548000825480008EB
:1001400025480008254800082548000825480008DB
:1001500025480008254800082548000825480008CB
:1001600025480008254800082548000825480008BB
:1001700025480008254800082548000825480008AB
:10018000254800082548000825480008254800089B
:0401900025480008F6
:0C019400FFFFFFFFFFFFFFFFFFFFFFFF6B
:1001A00001F0FF01102A2BDB10F0070F08D010F828
:1001B000013B013A8B422DD010F0070F42B3F6D12C
:1001C000F0B441EA012141EA014122F007047FF045
:1001D00000070023F0E80256083C85EA010586EA9C
:1001E000010685FA47F5A3FA87F586FA47F6A5FAD8
:1001F00087F68EB9EED1F0BC01F0FF0102F00702E4
:1002000032B110F8013B013A83EA010313B1F8D18E
:100210000020704701387047002D06BF354603386F
:10022000073815F0010F07D1013015F4807F02BFA8
:10023000013015F4C03F0130F0BC0138704700BFF9
:1002400081F0004102E000BF83F0004330B54FEA87
:1002500041044FEA430594EA050F08BF90EA020FF4
:100260001FBF54EA000C55EA020C7FEA645C7FEA87
:10027000655C00F0E2804FEA5454D4EB5555B8BFAA
:100280006D420CDD2C4480EA020281EA030382EA1B
:10029000000083EA010180EA020281EA0303362DAD
:1002A00088BF30BD11F0004F4FEA01314FF4801C80
:1002B0004CEA113102D0404261EB410113F0004F92
:1002C0004FEA03334CEA133302D0524263EB430349
:1002D00094EA050F00F0A780A4F10104D5F1200EE7
:1002E0000DDB02FA0EFC22FA05F2801841F1000142
:1002F00003FA0EF2801843FA05F359410EE0A5F116
:1003000020050EF1200E012A03FA0EFC28BF4CF046
:10031000020C43FA05F3C01851EBE37101F00045FC
:1003200007D54FF0000EDCF1000C7EEB00006EEB09
:100330000101B1F5801F1BD3B1F5001F0CD3490893
:100340005FEA30004FEA3C0C04F101044FEA4452EA
:1003500012F5800F80F09A80BCF1004F08BF5FEA71
:10036000500C50F1000041EB045141EA050130BD51
:100370005FEA4C0C404141EB0101013C28BFB1F563
:10038000801FE9D291F0000F04BF01460020B1FAAE
:1003900081F308BF2033A3F10B03B3F120020CDA81
:1003A0000C3208DD02F1140CC2F10C0201FA0CF05F
:1003B00021FA02F10CE002F11402D8BFC2F1200CC4
:1003C00001FA02F120FA0CFCDCBF41EA0C0190407A
:1003D000E41AA2BF01EB0451294330BD6FEA0404C3
:1003E0001F3C1CDA0C340EDC04F11404C4F12002AE
:1003F00020FA04F001FA02F340EA030021FA04F3C0
:1004000045EA030130BDC4F10C04C4F1200220FA16
:1004100002F001FA04F340EA0300294630BD21FA54
:1004200004F0294630BD94F0000F83F4801306BF1A
:1004300081F480110134013D4EE77FEA645C18BF0E
:100440007FEA655C29D094EA050F08BF90EA020FA5
:1004500005D054EA000C04BF1946104630BD91EA9D
:10046000030F1EBF0021002030BD5FEA545C05D1A0
:100470004000494128BF41F0004130BD14F58004DF
:100480003CBF01F5801130BD01F0004545F0FE4153
:1004900041F470014FF0000030BD7FEA645C1ABF88
:1004A000194610467FEA655C1CBF0B46024650EABF
:1004B000013406BF52EA033591EA030F41F40021EB
:1004C00030BD00BF90F0000F04BF0021704730B571
:1004D0004FF4806404F132044FF000054FF0000146
:1004E00050E700BF90F0000F04BF0021704730B507
:1004F0004FF4806404F1320410F0004548BF4042DC
:100500004FF000013EE700BF42004FEAE2014FEA30
:1005100031014FEA02701FBF12F07F4393F07F4F0B
:1005200081F06051704732F07F4208BF704793F00E
:100530007F4F04BF41F40021704730B54FF4607421
:1005400001F0004521F000411CE700BF50EA010224
:1005500008BF704730B54FF000050AE050EA0102CD
:1005600008BF704730B511F0004502D5404261EB3D
:1005700041014FF4806404F132045FEA915C3FF47E
:10058000D8AE4FF003025FEADC0C18BF03325FEA1B
:10059000DC0C18BF033202EBDC02C2F1200300FACC
:1005A00003FC20FA02F001FA03FE40EA0E0021FAF1
:1005B00002F11444BDE600BF70B54FF0FF0C4CF4DF
:1005C000E06C1CEA11541DBF1CEA135594EA0C0F91
:1005D00095EA0C0F00F0DEF82C4481EA030621EACC
:1005E0004C5123EA4C5350EA013518BF52EA033507
:1005F00041F4801143F4801338D0A0FB02CE4FF0B9
:100600000005E1FB02E506F00042E0FB03E54FF0E8
:100610000006E1FB03569CF0000F18BF4EF0010EE0
:10062000A4F1FF04B6F5007F64F5407404D25FEADC
:100630004E0E6D4146EB060642EAC62141EA55518F
:100640004FEAC52040EA5E504FEACE2EB4F1FD0CD1
:1006500088BFBCF5E06F1ED8BEF1004F08BF5FEA4F
:10066000500E50F1000041EB045170BD06F0004601
:1006700046EA010140EA020081EA0301B4EB5C04AE
:10068000C2BFD4EB0C0541EA045170BD41F48011A6
:100690004FF0000E013C00F3AB8014F1360FDEBFCB
:1006A000002001F0004170BDC4F10004203C35DAA7
:1006B0000C341BDC04F11404C4F1200500FA05F32A
:1006C00020FA04F001FA05F240EA020001F00042CB
:1006D00021F0004110EBD37021FA04F642EB060141
:1006E0005EEA430E08BF20EAD37070BDC4F10C046B
:1006F000C4F1200500FA04F320FA05F001FA04F22F
:1007000040EA020001F0004110EBD37041F100011A
:100710005EEA430E08BF20EAD37070BDC4F1200525
:1007200000FA05F24EEA020E20FA04F301FA05F28D
:1007300043EA020321FA04F001F0004121FA04F235
:1007400020EA020000EBD3705EEA430E08BF20EA05
:10075000D37070BD94F0000F0FD101F0004640003F
:1007600041EB010111F4801F08BF013CF7D041EAC1
:10077000060195F0000F18BF704703F000465200C5
:1007800043EB030313F4801F08BF013DF7D043EA96
:100790000603704794EA0C0F0CEA135518BF95EA4C
:1007A0000C0F0CD050EA410618BF52EA4306D1D1D3
:1007B00081EA030101F000414FF0000070BD50EAF2
:1007C000410606BF1046194652EA430619D094EA7C
:1007D0000C0F02D150EA013613D195EA0C0F05D166
:1007E00052EA03361CBF104619460AD181EA0301BA
:1007F00001F0004141F0FE4141F470014FF0000072
:1008000070BD41F0FE4141F4780170BD70B54FF00C
:10081000FF0C4CF4E06C1CEA11541DBF1CEA13558C
:1008200094EA0C0F95EA0C0F00F0A7F8A4EB05046E
:1008300081EA030E52EA03354FEA013100F0888065
:100840004FEA03334FF0805545EA131343EA12632E
:100850004FEA022245EA111545EA10654FEA0026E3
:100860000EF000419D4208BF964244F1FD0404F59C
:10087000407402D25B084FEA3202B61A65EB0305F8
:100880005B084FEA32024FF480104FF4002CB6EBB5
:10089000020E75EB030E22BFB61A754640EA0C0035
:1008A0005B084FEA3202B6EB020E75EB030E22BF75
:1008B000B61A754640EA5C005B084FEA3202B6EBB6
:1008C000020E75EB030E22BFB61A754640EA9C0075
:1008D0005B084FEA3202B6EB020E75EB030E22BF45
:1008E000B61A754640EADC0055EA060E18D04FEA03
:1008F000051545EA16754FEA06164FEAC30343EAA3
:1009000052734FEAC2025FEA1C1CC0D111F4801F6F
:100910000BD141EA00014FF000004FF0004CB6E768
:1009200011F4801F04BF01430020B4F1FD0C88BF07
:10093000BCF5E06F3FF6AFAEB5EB030C04BFB6EB12
:10094000020C5FEA500C50F1000041EB045170BD05
:100950000EF0004E4EEA113114EB5C04C2BFD4EB32
:100960000C0541EA045170BD41F480114FF0000EB6
:10097000013C90E645EA060E8DE60CEA135594EA32
:100980000C0F08BF95EA0C0F3FF43BAF94EA0C0F35
:100990000AD150EA01347FF434AF95EA0C0F7FF4AA
:1009A00025AF104619462CE795EA0C0F06D152EAFE
:1009B00003353FF4FDAE1046194622E750EA4106E2
:1009C00018BF52EA43067FF4C5AE50EA41047FF4F3
:1009D0000DAF52EA43057FF4EBAE12E753B94AB9C3
:1009E000002908BF00281CBF4FF0FF314FF0FF3037
:1009F00000F00CB8ADF1080C6DE904CE00F0CEF8B3
:100A0000DDF804E0DDE9022304B07047704700BF61
:100A10004FF0FF3C06E000BF4FF0010C02E000BFCA
:100A20004FF0010C4DF804CD4FEA410C7FEA6C5CAD
:100A30004FEA430C18BF7FEA6C5C1BD001B050EA50
:100A4000410C0CBF52EA430C91EA030F02BF90EA3B
:100A5000020F0020704710F1000F91EA030F58BFFA
:100A6000994208BF90422CBFD8176FEAE37040F05C
:100A7000010070474FEA410C7FEA6C5C02D150EAFA
:100A8000013C07D14FEA430C7FEA6C5CD6D152EAB5
:100A9000033CD3D05DF8040B704700BF844610467A
:100AA00062468C461946634600E000BF01B5FFF779
:100AB000B7FF002848BF10F1000F01BD4DF808ED49
:100AC000FFF7F4FF0CBF012000205DF808FB00BF1A
:100AD0004DF808EDFFF7EAFF34BF012000205DF874
:100AE00008FB00BF4DF808EDFFF7E0FF94BF0120C1
:100AF00000205DF808FB00BF4DF808EDFFF7CEFFC2
:100B000094BF012000205DF808FB00BF4DF808ED00
:100B1000FFF7C4FF34BF012000205DF808FB00BFD1
:100B20004FEA410C7FEA6C5C02D150EA013C0AD1E9
:100B30004FEA430C7FEA6C5C02D152EA033C02D1DB
:100B40004FF0000070474FF0010070474FEA41023C
:100B500012F5001215D211D56FF47873B3EB62520F
:100B600012D94FEAC12343F0004343EA505311F036
:100B7000004F23FA02F018BF404270474FF00000C8
:100B8000704750EA013005D111F0004008BF6FF006
:100B9000004070474FF00000704700BF2DE9F04F54
:100BA00007468C460846099E15463C461946002BCA
:100BB00040F0C6808242B2FA82F746D94FB1C7F1FF
:100BC000200E24FA0EFE00FA07F3BD404EEA030C95
:100BD000BC404FEA15481FFA85FEBCFBF8F9220C11
:100BE00008FB19C309FB0EFA42EA03439A4528D9C8
:100BF000EB1809F1FF3004D29A4502D9A9F102009D
:100C00002B44A3EB0A03A4B2B3FBF8F208FB1233A4
:100C100002FB0EFE44EA0344A64514D92C1902F146
:100C2000FF3303D2A64501D9931E2C44A4EB0E0436
:100C300043EA00401EB1FC40002334607360BDE80D
:100C4000F08F4846DDE71346F0E702B9FFDE87BBC9
:100C5000831A01214FEA154EAAB2B3FBFEFC200C09
:100C60000EFB1C330CFB02F840EA0343984563D9A2
:100C7000EB180CF1FF3004D2984502D9ACF1020018
:100C80002B44A3EB0803A4B2B3FBFEFC0EFB1C3306
:100C90000CFB02F244EA0344A2424FD92C190CF196
:100CA000FF3304D2A24202D9ACF102032C44A41AAD
:100CB000BEE7C7F1200C20FA0CF800FA07F324FA7B
:100CC0000CFCBD404CEA03024FEA154EABB2B8FB38
:100CD000FEFC110C0EFB1C800CFB03F941EA0040EA
:100CE000814504FA07F423D928180CF1FF3104D206
:100CF000814502D9ACF102012844A0EB090092B26F
:100D0000B0FBFEFC0EFB1C000CFB03F842EA0043A8
:100D100098450FD9EB180CF1FF3204D2984502D94F
:100D2000ACF102022B44A3EB080342EA014191E734
:100D30006146E2E76246F6E76046A2E76346B6E749
:100D4000834205D90EB1C6E900700021084676E756
:100D5000B3FA83F181B9834201D3BA420AD8BC1AEB
:100D600060EB030301209C46002E68D0C6E9004CCE
:100D7000002164E70846F7E7C1F1200C8B4022FA16
:100D80000CF41C4302FA01F500FA01F327FA0CF205
:100D900020FA0CFB4FEA14491343BBFBF9F81FFA86
:100DA00084FE09FB18BB1A0C08FB0EFA42EA0B4240
:100DB000924507FA01F73ED9A21808F1FF3004D294
:100DC000924502D9A8F102002244A2EB0A029BB28A
:100DD000B2FBF9F809FB182208FB0EFE43EA0242B7
:100DE00096452AD9A21808F1FF3304D2964502D9B4
:100DF000A8F10203224443EA0040A0FB0593A2EBC2
:100E00000E029A42CE46984602D306D14F4504D2EE
:100E1000B9EB050E63EB0408013886B1B7EB0E039E
:100E200062EB080707FA0CFCCB404CEA0303CF4007
:100E3000C6E900379CE74046C7E74346DBE7314653
:100E4000FDE610F8012B11F8013B012A28BF9A4258
:100E5000F7D0D01A7047034613F8012B002AFBD1B4
:100E6000181A0138704700002DE9F04F446A99B014
:100E700016461F46CDE90467DDF89480054674B92F
:100E800010200CF049F90246686220B9A84BEA210B
:100E9000A8480CF035FEC0E901440460C4606B6AE8
:100EA000196851B15A684A60012393408B60284603
:100EB0000CF0A6FE6B6A00221A603B1EB9BF23F03D
:100EC000004305930023C8F80030DDF814909A4BD6
:100ED000BCBF0122C8F8002033EA090319D1249AC3
:100EE00042F20F731360C9F31303334300F080859C
:100EF000269B53B9914B22E0914B03930833269ADA
:100F00001360039819B0BDE8F08F8C4B0393033343
:100F1000F5E7DDE90434CDE90C34DDE90C0100220C
:100F20000023FFF7CBFD804658B1249A01231360BC
:100F3000269B002B00F0598582481860431E0393BE
:100F4000DFE716AB019317AB00932846DDE90C23CE
:100F50000DF0CEF8C9F30A548346002C7ED00D9BC9
:100F6000CDF84C80C3F31303DDE90C0143F07F514E
:100F700041F44011A4F2FF34734B0022FFF764F9EF
:100F800065A3D3E90023FFF717FB65A3D3E900238B
:100F9000FFF75CF9064620460F46FFF7A3FA62A367
:100FA000D3E90023FFF708FB02460B4630463946DB
:100FB000FFF74CF906460F46FFF7C8FD00228246B0
:100FC000002330463946FFF783FD48B15046FFF70E
:100FD00089FA32463B46FFF771FD08B90AF1FF3A3C
:100FE000BAF1160F57D8594B03EBCA03D3E90023C4
:100FF000DDE90C01FFF76CFD00284ED00AF1FF3A45
:1010000000230F93169B1C1B631E099345BFC4F15D
:1010100001030693002300234CBF09930693BAF102
:10102000000F3CDB099BCDF838A053440993002303
:101030000A93229B092B00F28D80052BC4BF043B31
:101040002293229BA3F10203CCBF00240124032B93
:1010500000F28C80DFE803F02D4F4D5BDDE9164395
:101060001C4404F23243202BC3BFC3F1400304F2FB
:10107000124009FA03F3C3F12003C6BF26FA00F0B9
:10108000184306FA03F0FFF71DFA0123A1F1F871E6
:10109000013C139370E70123B3E70F90B2E7069B7F
:1010A000A3EB0A030693CAF100030A9300230E93ED
:1010B000BFE700230B93239B002B5ADC4FF0010961
:1010C000CDF820904B46CDF88C90686A00224260A3
:1010D000042202F114069E42416850D928460CF0C1
:1010E0004FFD039000284ED1194B02464FF4D571A5
:1010F000CEE60123DEE700230B93239B0AEB0309D3
:1011000009F10103012B0893B8BF0123DDE7012397
:10111000F2E700BFAFF3008061436F63A787D23F60
:10112000B3C8608B288AC63FFB799F501344D33FD6
:10113000793C0108353D01080000F07F313D010890
:10114000283D0108563C01080000F83F48210108ED
:101150008F3D01080124002322930B944FF0FF39A7
:101160000022CDF8209012232392AEE701230B93A7
:10117000F4E7DDF88C90CDF820904B46A5E70131DF
:1011800041605200A5E76B6A039A1A60089B0E2B18
:1011900000F2A880002C00F0A580BAF1000F34DD29
:1011A0009A4A0AF00F0302EBC303D3E900341AF49E
:1011B000807FCDE910344FEA2A1416D0944BDDE934
:1011C0000C01D3E90823FFF721FBCDE9040104F06A
:1011D0000F0403278E4E54B9DDE91023DDE9040125
:1011E000FFF714FBCDE9040129E00227F2E7E1074C
:1011F00008D5DDE91001D6E90023FFF7DDF9CDE9D7
:101200001001013764100836E5E700F0A580CAF147
:1012100000047E4B7E4E04F00F0203EBC203D3E9C1
:101220000023DDE90C01FFF7C7F9CDE90401241122
:1012300000230227002C40F08480002BD2D10F9B8A
:10124000002B00F08B80DDE90434CDE91034DDE9BA
:101250001001704B0022FFF73BFC00287ED0089B5A
:10126000002B7BD0B9F1000F38DDDDE910016A4BAE
:101270000022FFF7A1F9CDE904010AF1FF38013797
:101280004C463846FFF72EF9DDE90423FFF794F9C1
:10129000624B0022FEF7DAFFA1F15076CDE9100192
:1012A0001196002C5DD1DDE904015D4B0022FEF7B3
:1012B000CBFF02460B46CDE90423109A3346FFF7D5
:1012C00025FC002840F09C82DDE90401109A06F11B
:1012D0000043FFF7FDFB002840F09082DDE90C346D
:1012E000CDE90434179B002BC0F25281BAF10E0FE6
:1012F00000F34E81454B03EBCA03D3E90034CDE93B
:101300000634239B002B80F2DB80089B002B00F32C
:10131000D78040F07282424B0022DDE90601FFF7E0
:101320004BF9DDE90423FFF7E7FB089C264600287C
:1013300040F04882039F312307F8013B0AF1010A7C
:1013400044E2E20705D5D6E90023FFF735F9013776
:101350000123641008366DE7022770E7089CD04629
:101360008FE70399294B214412910B9903EBC40396
:10137000DDE9106753E90223002955D029490020EF
:10138000FFF744FA3B463246FEF75EFFCDE9100117
:10139000039FDDE90401FFF7D9FB0446FFF7A2F83C
:1013A00002460B46DDE90401FEF74EFF30340246EB
:1013B0000B46CDE9042307F8014BDDE91023FFF7C5
:1013C00087FB002874D1DDE9042312490020FEF7D1
:1013D0003BFFDDE91023FFF77BFB002840F0B780DF
:1013E000129B9F423FF47AAFDDE910010A4B0022C5
:1013F000FFF7E2F8084BCDE910010022DDE9040116
:10140000FFF7DAF8CDE90401C3E700BF482101087E
:10141000202101080000F03F0000244000001C4093
:10142000000014400000E03F30463946FFF7C4F8A2
:10143000CDE91001129B039C1493DDE90401FFF731
:1014400085FB1590FFF74EF802460B46DDE90401D7
:10145000FEF7FAFE159B303304F8013B129B9C42C9
:1014600006460F464FF0000224D1A44BDDE91001DF
:10147000FEF7ECFE02460B4630463946FFF746FBC8
:10148000002863D1DDE910239C490020FEF7DCFE33
:1014900002460B4630463946FFF71AFB00283FF458
:1014A0001DAF149F7B1E149317F8013C302BF8D00E
:1014B000C2463BE0924BFFF77FF8CDE90401BCE761
:1014C000DDE90489039FDDE9062340464946FFF72D
:1014D0009DF9FFF73BFB0446FFF704F8DDE906231F
:1014E000FFF76AF804F1300602460B4640464946CB
:1014F000FEF7AAFE07F8016B039EDDF820C0BE1BB5
:10150000B44502460B4636D1FEF7A0FEDDE90623C0
:1015100080468946FFF7FAFA58BBDDE906234046C4
:101520004946FFF7CBFA08B1E10722D428465946CD
:101530000CF066FB00233B70249B0AF1010018604D
:10154000269B002B3FF4DDAC1F60DAE427463B46C8
:101550001F4613F8012D392A07D1039A9A42F7D171
:101560000399302208F101080A701A7801321A70C2
:101570009EE7D046EBE7624B0022FFF71DF8002202
:10158000002380468946FFF799FA00289BD0CDE7D3
:101590000B9A002A00F0D080229A012A00F3B28030
:1015A000139A002A00F0A68003F233430A9C069F98
:1015B000069A1A440692099A01211A442846099269
:1015C0000CF086FB0646002F0CDD099B002B09DD85
:1015D000BB42069AA8BF3B46D21A0692099AFF1A46
:1015E000D31A09930A9BF3B10B9B002B00F0A88040
:1015F000002C10DD3146224628460CF027FC5A46C6
:101600000146064628460CF079FB59468046284696
:101610000CF0F6FAC3460A9B1A1B04D0594628461A
:101620000CF014FC8346012128460CF051FB0E9B64
:10163000002B044640F386801A46014628460CF0EB
:1016400005FC229B012B04467FDD4FF00008236937
:1016500004EB8303186910F043F8C0F12000099BE4
:10166000184410F01F0000F09280C0F12003042BFA
:1016700040F38A80C0F11C00069B03440693099B3B
:10168000034407440993069B002B05DD59461A467F
:1016900028460CF035FC8346099B002B05DD2146CE
:1016A0001A4628460CF02CFC04460F9B002B70D0E9
:1016B0002146584610F061F800286ADA002359469E
:1016C0000A2228460CF0BEFA0B9B0AF1FF3A834629
:1016D000002B00F09481314600230A2228460CF0AA
:1016E000B1FAB9F1000F064600F39380229B022B5A
:1016F00057DC8EE0169BC3F1360357E70000E03F4E
:1017000000002440089B5C1E0A9BA342BFBF0A9BAB
:101710000A94E21A0E9BB6BF9B181C1B0E93089BE3
:10172000B8BF0024002BB9BF069B089A069F089BF0
:10173000BCBF9F1A00233BE70A9C069F0B9E42E713
:101740000A9A6BE7229B012B19DC049BBBB9059B12
:10175000C3F313039BB9059B23F000431B0D1B052B
:1017600083B1069B01330693099B013309934FF024
:1017700001080E9B002B7FF46AAF01206FE74FF04A
:101780000008F6E79846F4E73FF47DAF18461C30B2
:1017900072E7089B002B36DC229B022B33DDDDF841
:1017A0002090B9F1000F0DD121464B460522284665
:1017B0000CF048FA0146044658460FF0DEFF0028B8
:1017C0003FF7B8AD239B039F6FEA030A4FF0000871
:1017D000214628460CF014FA002E3FF4A7AEB8F1CB
:1017E000000F05D0B04503D0414628460CF008FA5A
:1017F000314628460CF004FA98E600242646E1E734
:10180000C246264696E50B9BDDF82090002B00F0A3
:10181000FD80002F05DD31463A4628460CF070FB6E
:101820000646B8F1000F5CD0716828460CF0A8F9A4
:10183000074628B9804B024640F2EA21FFF728BB51
:1018400032690232920006F10C010C300FF027FDD4
:101850000122394628460CF053FB039B01330893C1
:10186000039B4B440A93049B03F00103B046099386
:101870000646089B2146013B584604930FF0A9FEFB
:10188000034630330690414658460B930FF075FFE0
:1018900032468146214628460CF0A2FBC2680B9BCB
:1018A000074602BB014658460FF067FF0B9B0246F6
:1018B00039462846CDE90B320CF0A2F9229B0C9A4E
:1018C000089F43EA0201099B0B430B9B0DD1392B67
:1018D00029D0B9F1000F01DD069B3133049A137052
:1018E00076E73046B9E70122E2E7B9F1000F06DBFF
:1018F000229941EA0909099959EA010120D1002AEE
:10190000ECDD59460122284608930CF0F9FA2146ED
:1019100083460FF032FF0028089B02DCDED1DA0795
:10192000DCD5392BD8D1049A392313703B461F4696
:10193000013B17F8012C392A50D001321A7047E7C1
:10194000002A03DD392BEED00133C7E7089A0A9944
:1019500002F8013C8A422AD0594600230A2228462E
:101960000CF070F9B04583464FF000034FF00A02C7
:101970004146284607D10CF065F980460646089B8B
:101980000133089375E70CF05DF93146804600237A
:101990000A2228460CF056F90646F0E7B9F1000F86
:1019A000039ACCBF4F46012717444FF00008594611
:1019B0000122284608930CF0A3FA214683460FF033
:1019C000DCFE0028B2DC02D1089BDB07AED43B462C
:1019D0001F4613F8012D302AFAD0F9E6039A9A42ED
:1019E000A5D10AF1010A312379E7144BFFF7A7BA11
:1019F000269B002B7FF480AA114BFFF7A0BAB9F108
:101A0000000F03DC229B022B3FF7CBAE039F214646
:101A100058460FF0DEFD00F1300307F8013B039A52
:101A2000BA1A9145BADD594600230A2228460CF01D
:101A300009F98346EBE700BF8F3D0108553C0108DB
:101A4000283D010810B5044608460B490FF027FC55
:101A5000A3681B690022114620469847074B0422C1
:101A6000BFF35B8F53E8001F43E800200028F9D143
:101A7000BFF35B8F10BD00BF080E0020A002002046
:101A8000F0B583B004460D469D4E9E4F0FCF0FC656
:101A900097E80F0007C6338006E0BFF35B8F11D1D4
:101AA0000A2000210AF0ACFD974B0022BFF35B8FA8
:101AB00053E800CFBCF1010FEFD143E8002100292A
:101AC000EBD0F5E78E4E3046FFF7C5F90246A36826
:101AD0005F68002331462046B847BFF35B8F8A4BCF
:101AE0001B68BFF35B8F23B9642000210AF088FDD7
:101AF000F3E72B68854AA2FB03239B090093844BE1
:101B0000402200217E480FF0EBFC06E0BFF35B8F24
:101B100010D10A2000210AF073FD7B4B0022BFF395
:101B20005B8F53E8001F0129F0D143E80020002813
:101B3000ECD0F6E7724E3046FFF78DF90246A36807
:101B40005F68002331462046B847BFF35B8F6E4B7A
:101B50001B68BFF35B8F23B9642000210AF050FD9E
:101B6000F3E72B79012B0BD0022B12D013BB7D2373
:101B70000093684B4022002161480FF0B1FC19E04E
:101B8000FA230093634B402200215D480FF0A8FC2C
:101B900010E04FF4FA7300935E4B40220021584846
:101BA0000FF09EFC06E0BFF35B8F10D10A200021EE
:101BB0000AF026FD544B0022BFF35B8F53E8001F51
:101BC0000129F0D143E800200028ECD0F6E74C4E84
:101BD0003046FFF740F90246A3685F6800233146AC
:101BE0002046B84703E0642000210AF009FDBFF356
:101BF0005B8F454B1B68BFF35B8F002BF3D06B797A
:101C0000063B062B39D8DFE803F0040A10161C2324
:101C10002A003B4E404B0FCB86E80F002DE0384E9C
:101C20003E4B0FCB86E80F0027E0354E3C4B0FCBE9
:101C300086E80F0021E0324E3A4B0FCB86E80F00CA
:101C40001BE02F4E384F0FCF0FC63B68337014E0A8
:101C50002B4E364F0FCF0FC63B6833700DE0284E2A
:101C6000334F0FCF0FC63B68337006E0BFF35B8F77
:101C700010D10A2000210AF0C3FC234B0022BFF33D
:101C80005B8F53E8001F0129F0D143E800200028B2
:101C9000ECD0F6E71A4E3046FFF7DDF80246A368AF
:101CA0005F68002331462046B84703E064200021E6
:101CB0000AF0A6FCBFF35B8F134B1B68BFF35B8F6F
:101CC000002BF3D0AB79013B032B47D8DFE803F0BF
:101CD000020910380A4E174F0FCF0FC63B683380EA
:101CE0003CE0074E144F0FCF0FC63B68338035E002
:101CF000034E124F0FCF0FC63B6833802EE000BF5C
:101D0000840D002010220108A4020020D34D62108F
:101D100030220108442201085822010868220108E3
:101D2000782201088822010898220108AC220108C3
:101D3000C0220108D4220108E8220108FC2201087F
:101D40009E4E9F4F0FCF0FC63B68338006E0BFF318
:101D50005B8F10D10A2000210AF052FC994B00221F
:101D6000BFF35B8F53E8001F0129F0D143E8002047
:101D70000028ECD0F6E7914E3046FFF76CF80246AB
:101D8000A3685F68002331462046B84703E064201B
:101D900000210AF035FCBFF35B8F8A4B1B68BFF351
:101DA0005B8F002BF3D02B890093874B40220021BF
:101DB00082480FF095FB06E0BFF35B8F10D10A203D
:101DC00000210AF01DFC7F4B0022BFF35B8F53E81C
:101DD000001F0129F0D143E800200028ECD0F6E7ED
:101DE000764E3046FFF737F80246A3685F68002357
:101DF00031462046B847BFF35B8F724B1B68BFF379
:101E00005B8F53B1EB7A002B00F098806B4E6F4FD5
:101E10000FCF0FC63B68336008E0642000210AF052
:101E2000EFFBE8E70A2000210AF0EAFB654B0022FD
:101E3000BFF35B8F53E8001F012903D143E8002063
:101E40000028F7D1BFF35B8FECD05C4E3046FFF734
:101E500002F80246A3685F68002331462046B8476F
:101E6000BFF35B8F574B1B68BFF35B8F002B56D0C4
:101E7000AB7A0093564B4022002150480FF030FBC4
:101E8000504B0022BFF35B8F53E8001F012903D1A1
:101E900043E800200028F7D1BFF35B8F44D0474EC2
:101EA0003046FEF7D8FF0246A3685F68002331463C
:101EB0002046B847BFF35B8F424B1B68BFF35B8F75
:101EC000002B36D095F90C300093424B4022002174
:101ED0003A480FF005FB3B4B0022BFF35B8F53E802
:101EE000001F012903D143E800200028F7D1BFF3E8
:101EF0005B8F58D0314D2846FEF7ADFF0246A368F0
:101F00005E68002329462046B047BFF35B8F2D4B08
:101F10001B68BFF35B8F002B4AD003B0F0BD642079
:101F200000210AF06DFB9BE70A2000210AF068FB04
:101F3000A6E7642000210AF063FBBBE71F4E264F93
:101F40000FCF0FC697E8030046F8040B317003E08B
:101F50000A2000210AF054FB1A4B0022BFF35B8FCA
:101F600053E8001F012903D143E800200028F7D1DE
:101F7000BFF35B8FECD0114E3046FEF76CFF02468C
:101F8000A3685F68002331462046B847BFF35B8FE4
:101F90000C4B1B68BFF35B8F002B93D16420002197
:101FA0000AF02EFBF2E70A2000210AF029FB92E753
:101FB000642000210AF024FBA7E700BF840D002065
:101FC00010230108A4020020242301084023010853
:101FD000542301088023010868230108F8B504464A
:101FE0000D4616461F4683681B6900221146984716
:101FF0006E71A3681B6829462046984758B9294640
:102000003846FFF73DFDF8BDBFF35B8F11D10A20C5
:1020100000210AF0F5FA134A0021BFF35B8F52E862
:1020200000CFBCF1010FEFD142E80013002BEBD041
:10203000F5E70D4C2046FEF70EFF0246BB685D68D3
:10204000002321463846A84703E0642000210AF017
:10205000D7FABFF35B8F034B1B68BFF35B8F002B7B
:10206000F3D0D0E7A402002094230108F8B5044679
:102070000E4615461F4683681B6900221146984785
:102080004FF47A7303FB05F53560A3681B6831468E
:102090002046984758B931463846FFF7F1FCF8BD5D
:1020A000BFF35B8F11D10A2000210AF0A9FA134A6D
:1020B0000021BFF35B8F52E800CFBCF1010FEFD1DD
:1020C00042E80013002BEBD0F5E70D4C2046FEF75D
:1020D000C2FE0246BB685D68002321463846A84719
:1020E00003E0642000210AF08BFABFF35B8F034BFF
:1020F0001B68BFF35B8F002BF3D0D0E7A402002056
:10210000B8230108F8B505460C4616461F468368F5
:102110001B690022114698477EB1236803F5C3333B
:10212000A0332360AB681B6821462846984788B9CE
:1021300021463846FFF7A4FCF8BD2368A3F5C33356
:10214000A03B2360EEE7BFF35B8F11D10A20002193
:102150000AF056FA134A0021BFF35B8F52E800CF12
:10216000BCF1010FEFD142E80013002BEBD0F5E7F3
:102170000D4C2046FEF76FFE0246BB685D680023EB
:1021800021463846A84703E0642000210AF038FAC7
:10219000BFF35B8F034B1B68BFF35B8F002BF3D048
:1021A000CAE700BFA4020020B823010870B584B0BC
:1021B0000446002A39D03C4A126801925B680093B9
:1021C0003A4B402200213A480FF08AF906E0BFF36B
:1021D0005B8F10D10A2000210AF012FA354B002241
:1021E000BFF35B8F53E8001F0129F0D143E80020C3
:1021F0000028ECD0F6E72E4D2846FEF72CFE0246CE
:10220000A3685E68002329462046B04703E06420A7
:1022100000210AF0F5F9BFF35B8F264B1B68BFF373
:102220005B8F002BF3D004B070BDB3F9022093F99B
:102230000010039102921C4A126801925B6800939D
:102240001D4B402200211A480FF04AF906E0BFF367
:102250005B8F10D10A2000210AF0D2F9154B002221
:10226000BFF35B8F53E8001F0129F0D143E8002042
:102270000028ECD0F6E70E4D2846FEF7ECFD0246AE
:10228000A3685E68002329462046B04703E0642027
:1022900000210AF0B5F9BFF35B8F064B1B68BFF353
:1022A0005B8F002BF3D0BEE7800D0020E0230108F8
:1022B000C40D0020A4020020002401082DE9F047ED
:1022C00088B005460E4617461C4600238DF81F3081
:1022D000BFF35B8F5A4AD2F80080BFF35B8F06933F
:1022E00004930593DFF85CC1BCE80F0020606160D7
:1022F000A260E360BCE8030020616161BCF80030CB
:10230000238306E0BFF35B8F12D10A2000210AF07D
:1023100077F94D4B4FF0000CBFF35B8F53E800EFA4
:10232000BEF1010FEED143E800C2002AEAD0F5E782
:102330002046FEF790FD0246BB68D3F804900023C8
:1023400021463846C84703E0642000210AF058F9C6
:10235000BFF35B8F3C4B1B68BFF35B8F002BF3D04D
:10236000AB681B6900221146284698474FF00009C8
:1023700053E0BFF35B8F5FD106ABBFF35B8F53E8D6
:10238000002F013243E800210029F8D1BFF35B8F11
:10239000DFF8B8A0042150460DF016F9012373733D
:1023A000AB681B6831462846984741F288300021C7
:1023B0000AF026F9AB685B68042251462846984724
:1023C00000237373AB681B68314628469847AB6897
:1023D000DB680DF11F02039207AA02924CF2503003
:1023E0000021CDE9000104221949284698470246F8
:1023F000BFF35B8F069BBFF35B8F0593BDF81C306B
:10240000ADF812309DF81F308DF8103004AB214626
:102410003846FFF7CBFE09F10109C1450CD20D4B3F
:102420000222BFF35B8F53E8001F9142A1D143E822
:10243000002000289DD0F6E708B0BDE8F08700BF77
:10244000800D002030240108A4020020080E002086
:10245000040E0020A002002070B50C4683681B69A2
:1024600000221146984706E0BFF35B8F10D10A2087
:1024700000210AF0C5F8124B0022BFF35B8F53E82E
:10248000000F0128F0D143E800210029ECD0F6E745
:102490000C4D2846FEF7DFFC0246A3685E68002369
:1024A00029462046B047BFF35B8F054B1B68BFF33F
:1024B0005B8F23B9642000210AF0A2F8F3E770BD16
:1024C000A40200204C24010808B50B78022B13D07D
:1024D000052B0DD05BB90A4B0122BFF35B8F53E88C
:1024E000001F43E800200028F9D1BFF35B8F08BD2F
:1024F000044809F0AFFCFAE783685B699847F6E7A0
:10250000A4020020600E002070B582B0002300936A
:102510000193A54DA54928460BF00AFA0446009000
:10252000FEF799FC0130A24928440BF001FA0EF0A5
:10253000B2FE054601909F492046FEF782FCC0B9D5
:102540009D4B0122BFF35B8F53E8001F43E800203F
:102550000028F9D1BFF35B8F984BBFF35B8F53E833
:10256000002F43E800510029F9D1BFF35B8F02B07F
:1025700070BD93492046FEF764FC00283ED18E4B87
:102580000A22BFF35B8F53E8001F43E800200028B6
:10259000F9D1BFF35B8F8B4808F086FF04468A4B66
:1025A000186006E0BFF35B8F10D10A2000210AF00B
:1025B00027F8864B0022BFF35B8F53E8001F0129E9
:1025C000F0D143E800200028ECD0F6E7804D284603
:1025D000FEF741FC0246A3685E68002329462046B8
:1025E000B047BFF35B8F794B1B68BFF35B8F002B4A
:1025F000BDD1642000210AF003F8F2E775492046B6
:10260000FEF71FFC60B96C4B0522BFF35B8F53E8EC
:10261000001F43E800200028F9D1BFF35B8FA6E735
:102620006D492046FEF70DFC60B9634B0722BFF3EE
:102630005B8F53E8001F43E800200028F9D1BFF367
:102640005B8F94E765492046FEF7FBFB60B95A4B68
:102650000822BFF35B8F53E8001F43E800200028E7
:10266000F9D1BFF35B8F82E75D492046FEF7E9FBB6
:10267000B8B95C4BBFF35B8F53E8002F43E80051C0
:102680000029F9D1BFF35B8F4B4B0622BFF35B8F61
:1026900053E8001F43E800200028F9D1BFF35B8F07
:1026A00065E751492046FEF7CCFB00286FD1AB1FF0
:1026B000062B11D8DFE803F05E5144372A1D0400D1
:1026C0004A4B0C22BFF35B8F53E8001F43E8002006
:1026D0000028F9D1BFF35B8F374B0922BFF35B8F23
:1026E00053E8001F43E800200028F9D1BFF35B8FB7
:1026F0003DE73E4B0B22BFF35B8F53E8001F43E8DF
:1027000000200028F9D1BFF35B8FE5E7374B0A22A1
:10271000BFF35B8F53E8001F43E800200028F9D186
:10272000BFF35B8FD8E7314B0922BFF35B8F53E8D0
:10273000001F43E800200028F9D1BFF35B8FCBE7EF
:102740002A4B0822BFF35B8F53E8001F43E80020A9
:102750000028F9D1BFF35B8FBEE7244B0722BFF3FC
:102760005B8F53E8001F43E800200028F9D1BFF336
:102770005B8FB1E71D4B0622BFF35B8F53E8001F51
:1027800043E800200028F9D1BFF35B8FA4E70A4B90
:102790000022BFF35B8F53E8001F43E800200028AE
:1027A000F9D1BFF35B8FE2E60C0E00207024010824
:1027B000FC23010874240108A0020020800D0020E1
:1027C00078240108802401085C0E0020A402002067
:1027D00088240108B8240108C0240108C82401087D
:1027E000D0240108A8020020DC240108AC0200204B
:1027F00000B58DB000230B9309930A9305930693BC
:1028000007930893BFF35B8FA14B1B68BFF35B8FEC
:102810000593BFF35B8F9F4B1B68BFF35B8F8DF8F6
:10282000193001238DF81A300823ADF81C309A486E
:102830000EF0E8F8E8B1984883681B6805A9984746
:102840000B900B9B002B28DB944995480EF008FA5F
:10285000944808F029FE04460EF0D4F8002831D040
:10286000A3681B68002B50D000228F492046984750
:102870004BE0894B1B6803938C4B02938C4B019369
:102880000090034604228B490CF0C0F94FF0FF3052
:102890004FF0FF3109F0B4FECDE77F4B1B68039387
:1028A000824B0293844B0193002000900346042244
:1028B00080490CF0ABF94FF0FF304FF0FF3109F0D9
:1028C0009FFEC1E723680393784B0293784B0193F3
:1028D00000900346042277490CF098F94FF0FF303E
:1028E0004FF0FF3109F08CFEBAE7BFF35B8F19D1CF
:1028F000A368DD681346102270492046A847664841
:1029000083681B696E4A6F4998476F4B0022BFF37B
:102910005B8F53E8001F0329E7D143E8002000281C
:10292000E3D0F6E7684B0022BFF35B8F53E8001F4C
:10293000042903D143E800200028F7D1BFF35B8FBF
:1029400021D101238DF82130534DAE68336805A99C
:1029500028469847736804225C492846984733699B
:10296000574A584928469847574B0322BFF35B8F75
:1029700053E8001F042903D143E800200028F7D1C1
:10298000BFF35B8FC1E7504B0222BFF35B8F53E86D
:10299000001F012903D143E800200028F7D1BFF32D
:1029A0005B8F1BD1A368DD680023102243492046BA
:1029B000A847474B224605A93748FFF77FFC424B03
:1029C0000022BFF35B8F53E8001F022903D143E8C5
:1029D00000200028F7D1BFF35B8F96E73A4B002227
:1029E000BFF35B8F53E8001F052903D143E80020A4
:1029F0000028F7D1BFF35B8F0BD1A368DD681346C6
:102A000010222E492046A84705A92046FFF738F88E
:102A10007BE72D4B0022BFF35B8F53E8001F072994
:102A200003D143E800200028F7D1BFF35B8F0FD11B
:102A3000A368DD681346102220492046A847244B8E
:102A400000932346012205A91348FFF75BFB5CE7CF
:102A50001D4B0022BFF35B8F53E8001F082903D1F1
:102A600043E800200028F7D1BFF35B8F32D1A36881
:102A7000DD681346102211492046A847144B0093E5
:102A80002346002205A90448FFF73CFB3DE700BFB1
:102A9000A8020020AC0200202C1D01080925000816
:102AA000600E002080240108C92400084025010888
:102AB000E424010824200108002501080C0E002050
:102AC0000BEC0008451A0008A0020020080E0020A8
:102AD0001C0E0020344B0022BFF35B8F53E8001F15
:102AE000062903D143E800200028F7D1BFF35B8F0C
:102AF00014D1A368DD68134610222C492046A8474C
:102B0000BFF35B8F2A4B1A68BFF35B8F294B00938F
:102B1000234605A92848FFF7A9FAF6E6224B00222A
:102B2000BFF35B8F53E8001F092903D143E800205E
:102B30000028F7D1BFF35B8F15D1A368DD6813467A
:102B400010221A492046A847BFF35B8F1B4B1A6817
:102B5000BFF35B8F174B00932346D2B205A91648EB
:102B6000FFF73CFAD1E6104B0022BFF35B8F53E82E
:102B7000001F0A2903D143E800200028F7D1BFF342
:102B80005B8F0CD1A368DD681346102207492046ED
:102B9000A847084A21460848FFF75EFCB5E66420CE
:102BA000002109F02DFDB0E6A00200200C0E00204F
:102BB000A80200201C0E00202C1D0108AC020020E1
:102BC0002DE9F04F89B0029210F0030A40F015820F
:102BD00007468B46041DE0B127B1E21B04325A457B
:102BE00000F20E825D1ECDF800A0CDF80CA0CDF84D
:102BF00004A000264FF00408C14607B12360C64A6E
:102C00009342C0F05A81C54A9342C0F07F810022AE
:102C100054E101F0070B5C44CBF1080BDCE7252BFA
:102C200005D101264FF00408C14600E000266546A4
:102C300005F1010C6B78002B00F08481002EEED0A2
:102C4000A3F120015A29F1D801A252F821F000BFC6
:102C50002F2C00082D2C00082D2C00082F2C0008EC
:102C60002D2C00082D2C00082D2C00082D2C0008E0
:102C70002D2C00082D2C0008DD2D00082F2C00081D
:102C80002D2C00082F2C00082F2C00082D2C0008BC
:102C90002F2C00082F2C00082F2C00082F2C0008A8
:102CA0002F2C00082F2C00082F2C00082F2C000898
:102CB0002F2C00082F2C00082D2C00082D2C00088C
:102CC0002D2C00082D2C00082D2C00082D2C000880
:102CD0002D2C0008452E00082D2C00082D2C000856
:102CE0002D2C0008452E0008452E0008452E000812
:102CF0002D2C00082D2C00082D2C00082D2C000850
:102D00002F2C00082D2C00082D2C00082D2C00083D
:102D10002D2C00082D2C00082D2C00082D2C00082F
:102D20002D2C00082D2C00082D2C00082D2C00081F
:102D3000D52D00082D2C00082D2C00082D2C000866
:102D40002D2C00082D2C00082D2C00082D2C0008FF
:102D50002D2C0008452E00082D2C0008D52D00082C
:102D6000D52D0008452E0008452E0008452E0008E8
:102D70002F2C0008D52D0008BD2D00082D2C000893
:102D80002F2C00082D2C0008A52E0008D52D00089A
:102D9000A52E00082D2C00082D2C0008A52E0008BB
:102DA000CD2D0008D52D00082D2C00082D2C000855
:102DB000D52D00082D2C0008C52D00084FF008085F
:102DC000C14634E74FF00408C14630E74FF004082D
:102DD000C1462CE72A786C2A26D0002604EB08028C
:102DE000013AC8F100010A40144627B1D11B4944F9
:102DF0008B45C0F00881732B59D0B9F1040F00F056
:102E00009980B9F1080F40F00781129B073323F036
:102E1000070303F108011291D3E900010FB1C2E9E0
:102E2000000102F1080402E71CF8022C6C2A04D00D
:102E300000264FF00408C146D0E700264FF00808EE
:102E4000C146CBE72B784C2B1CD0129B073323F0C9
:102E5000070303F108021292D3E90001E21D22F0F8
:102E6000070247B1D31B08335B4515D82B784C2B91
:102E700015D0C2E9000102F1080400264FF008084D
:102E8000C146D4E6129B073323F0070303F108027F
:102E90001292D3E90001E1E76FF01B00AAE0C2E95A
:102EA0000001E8E700264FF00408C14696E7129BB0
:102EB0001A1D12921B6865469FE60022029901F0D6
:102EC0000101104602B1F9B1A4EB070C4FEA9C02D4
:102ED00019B1BCF5007F80F0998001990F2900F2AB
:102EE0009880EFB1D2B208AB0B4403F8102C78B144
:102EF00062F07F0208AB0B4403F8102C009B0133F7
:102F00000093019B01330193043491E60122D5E73C
:102F1000039B01330393F4E7441B0108183E0108A7
:102F200010B10BF1010BECE71846FDF794FF831C81
:102F30009B44E6E7129B191D12911B6807B11360B1
:102F4000141D74E6E31BB3F5806F68D25FB10022F5
:102F50003A609B083B70039B7B70009BBB70D3B9AE
:102F6000DDF8049039E05B44A3F1080042E001334E
:102F7000984213D908AA1A4412F8101C12F9102CFE
:102F8000002AF4DA01F07F01E21B0132934549D3B4
:102F900004F8011BEBE753460198E9E7DDF80490DC
:102FA0001BE008AB534413F8106C57F8268000233D
:102FB00047F826304046FDF74EFF451CE31B2B44E7
:102FC00001339B4531D304F8016B2A464146204624
:102FD0000EF065F92C440AF1010AD14509D9009B8C
:102FE000002BDED008AB534413F9103C002BD8DA89
:102FF000F1E7E01B09B0BDE8F08F6FF00D00F9E7D5
:103000006FF01B00F6E76FF01B00F3E76FF01500A1
:10301000F0E76FF01500EDE76FF01500EAE76FF0ED
:103020001500E7E76FF01B00E4E76FF01B00E1E736
:1030300008B50B6801330B60014B1B68984708BD4E
:10304000B0020020014B1860704700BFB0020020A2
:1030500000B583B002460B460021019101A9034847
:1030600000F02CFA03B05DF804FB00BF313000081B
:1030700010B584B00446019002910021039101A98A
:10308000054800F01BFA039B029A934201DA0022E2
:10309000E254039804B010BD93EC00088446026823
:1030A000002005E000EB8000013203EB40003038E7
:1030B00013780449595C11F0040FF3D1CCF80020C7
:1030C000704700BF453B010870B582B0044600233D
:1030D0000360436083604B78252B02D04E1C012592
:1030E0001FE0881CE37045E1237843F0040323705C
:1030F000B5B1013614E0237843F008032370F7E7F5
:10310000237843F010032370F2E7237843F0200381
:103110002370EDE7237843F040032370E8E70025B0
:1031200045B33378203B102BF9D801A252F823F095
:10313000013100081F3100081F3100080B31000861
:103140001F3100081F3100081F3100081F3100081F
:103150001F3100081F3100081F310008F730000838
:103160001F310008E93000081F3100081F31000836
:1031700015310008237803F04403442B5FD00196F7
:10318000237843F08003237033782A2B5CD001A886
:10319000FFF784FF019B9E420FD0237843F080030A
:1031A00023706060DBB2C3F34003002854DB0022CD
:1031B0001343227863F341022270019B01931B7831
:1031C0002E2B14BF00230123627863F34102627047
:1031D000002B43D0019B5A1C01925B782A2B3FD0D5
:1031E00001A8FFF75BFFA0602378C3F3400300282A
:1031F0003EDB00221343227863F3410222700198E0
:1032000003784C3B2E2B00F29D80DFE803F0909B6F
:103210009B9B9B9B9B9B9B9B9B9B9B9B9B9B9B9BFE
:103220009B9B9B9B9B9B9B9B9B9B339B579B459BF0
:103230009B9B9B9B9B9B899B9B9B9B9B820023783F
:103240006FF3861323709AE7637843F0010363708A
:10325000334601330193B1E70122A9E70198CFE793
:10326000637843F004036370104601300190C7E7B0
:103270000122BFE7421C4378682B06D06378022105
:1032800061F3C603637010461EE06378012262F3A7
:10329000C6036370023017E0421C43786C2B06D0E3
:1032A0006378032161F3C603637010460CE0637812
:1032B000042262F3C6036370023005E063780522DE
:1032C00062F3C6036370013010F8013BE370A3F1B1
:1032D0004102372A7DD8DFE802F05E7C7C7C5E5EAE
:1032E0005E7C7C7C7C7C7C7C7C7C7C7C7C7C7C7C3C
:1032F0007C4F7C7C7C7C7C7C7C7C5E7C4F3A5E5E04
:103300005E7C3A7C7C7C7C654F717C7C717C4F7CE4
:103310007C4F6378062262F3C60363700130D3E703
:103320006378072262F3C60363700130CCE76378E9
:10333000082262F3C60363700130237843F002036E
:103340002370C1E763786FF3C6036370BCE7A278AC
:10335000012161F30202A270627802F07802402A31
:1033600010D0632B13D02378C3F34002154365F3C9
:103370004103237002B070BDA278022161F3020202
:10338000A270E9E7217841F001012170E9E7151EFB
:1033900018BF0125E7E7A378042262F30203A370B4
:1033A0000125E0E7A378032262F30203A3706378A8
:1033B00003F07803402BD6D10125D4E7A37803226C
:1033C00062F30203A370637813F0780FCBD001256A
:1033D000C9E7237843F001032370C4E72DE9F04FD8
:1033E00083B004460D4601929A460C9ED378324A29
:1033F00013F802B00BF0030B6F2B0FD006D9702B14
:103400000FD0782B10D14FF0100923E0582B02D0A9
:103410004FF00A091EE04FF010091BE04FF00809B9
:1034200018E04FF0100915E04FF00A0912E0D2B28F
:103430003032D2B206F8012D3A464346204629469C
:10344000FDF7CCFABC4275F1000319D3564517D9E4
:1034500004460D464FF000084F464A464346204674
:103460002946FDF7BBFA092AE1D9BBF1010F03D0C8
:10347000D2B25732D2B2DDE7D2B23732D2B2D9E7C6
:10348000019B1B7813F0200F05D0B9F1080F06D06F
:10349000B9F1100F09D0304603B0BDE8F08F019AA2
:1034A000937843F008039370F5E7019A937843F01B
:1034B00010039370EFE700BF453B01082DE9F04F83
:1034C00091B006460D4691460393002499F80000FA
:1034D000002800F0D582252808D009F101092946E5
:1034E000B0470028C0F2CD820134EFE700230493F7
:1034F00005930693079308930993494606A8FFF797
:10350000E3FD02909DF8193013F0010F00F0978051
:10351000039B1A1D03921F68002FC0F288809DF83C
:10352000193013F0040F00F09C80039B1A1D0392C6
:10353000D3F800A0BAF1000FC0F28A8000230793ED
:1035400008939DF81A3003F007039DF81910C1F392
:10355000C301012B00F08E80022B00F0D380042BDE
:1035600000F02481032B00F03B819DF8188018F0B7
:10357000030B40F03B819DF81B30253B532B00F2A1
:10358000E681DFE813F04001E401E401E401E40135
:10359000E401E401E401E401E401E401E401E40103
:1035A000E401E401E401E401E401E401E401E401F3
:1035B000E401E401E401E401E401E401E401E401E3
:1035C000E401E401E401E401E401E401E401E401D3
:1035D000E401E401E401E401E401E401E401E401C3
:1035E000E401E401E401E401E401E4018101E40116
:1035F000E401E401E401E401E401E401E401E401A3
:10360000E4015E016701E401E401E401E401670112
:10361000E401E401E401E401BE018101A201E4014D
:10362000E4014D01E4018101E401E40181019DF81F
:10363000183043F004038DF818307F426FE79DF98E
:103640001830002B02DB4FF0FF3768E7079F66E773
:103650009DF819306FF341038DF819304FF0FF3AA0
:103660006CE713F0020F02D0DDF820A066E74FF000
:10367000FF3A63E7CB1E042B04D8DFE803F00B1DF1
:1036800029353500039B1A1D03921B68DA17049332
:10369000059206E0039B1A1D03921B68DA17049338
:1036A0000592012928D002297FF45FAFBDF91030BF
:1036B000DA170493059258E7039B073323F00703B7
:1036C00003F108020392D3E90023CDE90423E8E7DC
:1036D000039B073323F0070303F108020392D3E9A6
:1036E0000023CDE90423DCE7039B1A1D03921B682A
:1036F000DA1704930592D4E79DF810300493002361
:10370000059332E7CB1E042B04D8DFE803F00B1F30
:1037100035414100039B1A1D03921B68049300234B
:1037200005931EE09DF81B30632B07D0039B1A1DE9
:1037300003921B6804930023059312E0039B1A1D58
:1037400003921B680493002305930AE0039B07334D
:1037500023F0070303F108020392D3E90023CDE924
:10376000042301291CD002297FF4FFAEBDF81030DC
:10377000049300230593F8E6039B073323F0070324
:1037800003F108020392D3E90023CDE90423E8E71B
:10379000039B1A1D03921B68049300230593E0E723
:1037A0009DF81030049300230593DEE608290BD022
:1037B000039B073323F0070303F108020392D3E9C5
:1037C0000023CDE90423D0E6039B073323F007034E
:1037D00003F108020392D3E90023CDE90423C4E6F0
:1037E000039B1A1D03921B680493BEE6029F3B468F
:1037F0004A46294630460BF08AFA0028C0F2418139
:103800000444B94662E629462520B0470028C0F2A4
:1038100038810134D8460DF13E0A4FF000099BE093
:10382000DDF81090BAF1000F07DB514648460DF065
:1038300071FE09EB000AD8468EE04846FDF70BFB07
:10384000F7E7049B8DF82830D8460DF1290A0DF1D1
:10385000280981E018F0080F05D118F0100804D0ED
:103860004FF0200801E04FF02B08049A059B002B35
:1038700002DB0492059308E0524263EB4303049297
:1038800005934FF02D0800E0D8460DF13E0300935C
:103890000AAB06AADDE90401FFF7A0FD8146BAF1F3
:1038A000000FC0F288800DF13E03A3EB09039DF8E1
:1038B00018206FF386128DF818209A457ED9AAEB4E
:1038C000030307930DF13E0A46E0049828B9D84651
:1038D000DFF8B4A1AAF105093EE00DF13E03009323
:1038E0000AAB06AA0021FFF779FD81469DF81A3040
:1038F00043F010038DF81A3078238DF81B30D8462A
:10390000CDE7049A9DF81930C3F3C303072B06D8FB
:10391000DFE803F0040B0D0F1115191B1460D846D6
:103920000DF13E0A4FF0000916E01470F7E714801D
:10393000F5E71460F3E7E31714605360EFE7E3176C
:1039400014605360EBE71460E9E71460E7E7D846DA
:103950000DF13E0A4FF00009B9F1000F00F08D8023
:10396000AAEB0902B8F1000F00D001329DF81A103D
:1039700011F0100F25D00232079B134411F0400FB5
:1039800001D0089A1344002F31DDFF1A9DF818303A
:1039900013F0040F2BD113F0400F17D0B8F1000F24
:1039A00017D029464046B04700286ADB0134D84684
:1039B0004FF0300B0FE00DF13E0ACDE70DF13E0A5E
:1039C000CAE711F0080FD7D00132D5E74FF0200B2E
:1039D00001E04FF0300B3B465F1E002B07DD294610
:1039E0005846B04700284CDB01343B46F4E7B8F1B9
:1039F000000F05D029464046B047002841DB01347E
:103A00009DF81A30C3F30012C3F3C003134305D06B
:103A100029463020B047002833DB01349DF81A30A6
:103A200013F0100F06D029469DF81B00B047002860
:103A300027DB0134079B03F1FF38002B07DD294604
:103A40003020B04700281CDB01344346F3E75346DF
:103A50004A46294630460BF05AF9002811DB044447
:103A6000002F07DD29462020B047002809DB01345C
:103A7000013FF5E7DDF8089028E5DDF8089025E539
:103A8000204611B0BDE8F08F512501084FF010021B
:103A9000EFF3118382F31288BFF36F8F83F31188E2
:103AA000BFF36F8F024B034A1A600020704700BFBC
:103AB000C003002000093D0008B5064B186018B18E
:103AC000054B1B68092B00DC08BD044808F036F8DC
:103AD000FAE700BFBC0E0020700E00208406002014
:103AE00008B5024808F02AF808BD00BF8406002087
:103AF00030B589B000220F490F480DF025FB0F4D5E
:103B000000220023CDE90623002404940E2303930E
:103B10000294019400940A4B4FF4407209492846DC
:103B20000CF0D3FF084928460CF0BBFF204609B033
:103B300030BD00BFE13A0008200B0020580B0020E8
:103B4000E53E0008C018002058250108184BBFF3B7
:103B50005B8F53E8002F511C43E800100028F8D178
:103B6000BFF35B8F1ABB70B5002409E0114B03EB68
:103B700006135B6804221968284600F0D9F901345D
:103B80000D4B0C4A9B1AB4EB231F0FDA2646094D46
:103B900005EB04152B7B002BF1D02301054AD358EC
:103BA0009B69002BE2D028469847DFE770BD70473D
:103BB000780E0020542001086420010838B108B5AF
:103BC000044A1060084600F0A3FB002008BD6FF017
:103BD00015007047B402002008B5054B1B781BB1D7
:103BE000034B01221A7008BD024807F0A7FFF7E750
:103BF0008C140020840600200D4BBFF35B8F53E82C
:103C0000002F013243E800210029F8D1BFF35B8F78
:103C100000B97047074BBFF35B8F53E8002F013AA1
:103C200043E800210029F8D1BFF35B8FF1E700BF23
:103C3000740E0020700E0020064B00200246BFF3D9
:103C40005B8F53E8000F43E800210029F9D1BFF34F
:103C50005B8F7047740E002038B5FFF7EDFF054607
:103C6000002400E001340B4B0B4A9B1AB4EB231FDA
:103C70000FDA094800EB041043685B79002BF1D0A0
:103C80002301054AD3581B69002BEBD029469847DE
:103C9000E8E738BD6420010854200108034B186888
:103CA0000028D4BF00200120704700BF740E002000
:103CB00008B5024902480BF0F6F808BD6425010872
:103CC0007C0E002008B50023054A1370054A1360D6
:103CD0004FF47A710448FFF771FFFFF7E9FF08BD61
:103CE0008D140020740E00200FF2000808B5014664
:103CF0000022002301480BF0FBF808BD7C0E0020D9
:103D000008B502480BF0B1F908BD00BF7C0E0020D9
:103D100008B5014601480BF019FA08BD7C0E0020D9
:103D2000F8B50646E9B9002400E001340F4B104A0B
:103D30009B1AB4EB231F14DA0D4D05EB04156B68C9
:103D40005B79002BF1D0314628460BF05EFA002853
:103D5000EBD02701064BDB591B68314628469847B4
:103D6000E3E73046FFF7D4FFF8BD00BF6420010849
:103D70005420010808B502480BF025FA08BD00BF21
:103D80007C0E002010B50446114B1B7803B9D0B14E
:103D90000BF04AFA034680B15CB90E4ABFF35B8F61
:103DA00052E8001F013942E800100028F8D1BFF3A3
:103DB0005B8F21461846FFF7B3FF14B9FFF76EFF7C
:103DC00010B90BF035FA10BDFFF746FFF9E700BF59
:103DD0008C140020700E002010B582B01D4BBFF374
:103DE0005B8F53E8002F511C43E800100028F8D1E6
:103DF000BFF35B8F184B1B783BB9184B1B6803B1A3
:103E00009AB10A2A1CD002B010BD4FF01003EFF394
:103E1000118483F31288BFF36F8F0020FFF7B2FF86
:103E200084F31188BFF36F8FEDE700220023CDE903
:103E3000002342F210720023094808F01FFEE2E757
:103E4000002BE0D006480DF08BF9064807F076FE0F
:103E5000D9E700BF700E00208D140020BC0E00209A
:103E6000200B00208406002010B50446054B1B687B
:103E70009847A060214604480BF0D1F8FFF7ACFF4B
:103E800010BD00BFB40200207C0E0020124B1B7836
:103E900003B1704710B5FFF759FE002400E001346C
:103EA0000E4B0F4A9B1AB4EB231F0CDA0C4800EBA5
:103EB000041043685B79002BF1D02301084AD358E2
:103EC0005B699847EBE70020FFF75CFF0028FAD119
:103ED000014B01221A7010BD8D14002064200108CE
:103EE0005420010808B5FFF731FE08F0A1FBFFF7E9
:103EF000E3FD0020FFF746FF0028FAD14FF0FF3224
:103F00004FF0FF33014807F041FEF2E7840600203E
:103F1000054B064A9B1AB1EBD30F02D252F831007F
:103F200070470020704700BF54200108F41F0108AB
:103F300008B5074BC31A1B1101334268137143685C
:103F40001960436801225A71FFF746FE08BD00BFA1
:103F5000542001080EB400B582B0014603AB53F8FB
:103F6000042B01930348FFF7A9FA02B05DF804EBB4
:103F700003B07047D7F2000830B585B011F0440F98
:103F800005D01A4B1C6834B9002005B030BD184963
:103F9000FFF7E0FFF9E7174B1968B2FBF1F1B1FB4E
:103FA000F4FC154AA2FB0C32D20A4FF4616E0EFBF0
:103FB00012CE124BA3FB0E535B0904FB1C114FF4F2
:103FC0007A7C0CFB01F1B1FBF4F505FB14110CFB41
:103FD00001F1B1FBF4F102910195C3EB0311AEEBDA
:103FE000810100910649FFF7B5FFCEE7C00E002022
:103FF00078250108C40E0020C5B3A291898888885D
:104000008425010861B108B52AB1064A52F8232077
:1040100012B9054A00E0044A0449FFF79BFF08BDB6
:10402000704700BFFC250108A0250108A82501084C
:1040300011F0100F0BD108B511F0200F03D0044977
:10404000FFF788FF08BD0349FFF784FFFAE77047D1
:10405000FC230108AC2501082DE9F04105460F4677
:10406000164698460699FFF7E3FF0024444505DA13
:1040700024492846FFF76EFF0134F7E7002409E0E2
:1040800020492846FFF766FF0BE01F492846FFF747
:1040900061FF01340F2C0CDC002C02DD14F0070F43
:1040A000EED0B442F1D23A5D18492846FFF752FFEC
:1040B000EFE717492846FFF74DFF002409E01149B3
:1040C0002846FFF747FF0BE012492846FFF742FF5B
:1040D00001340F2C13DC002C02DD14F0070FEED09E
:1040E000B44207D23A5D0C4BD35C13F0970FEBD17F
:1040F0002E22E9E703492846FFF72CFFE8E7BDE851
:10410000F08100BFD4250108B8250108B0250108B9
:10411000BC250108C0250108453B01082DE9F041F7
:10412000804616461D46BDF9187059B90024002F67
:104130001CDB86B10123079A934013F0100F18D1AE
:104140000D4E09E00D4B079A53F822200C49FFF75A
:1041500001FF0446EBE7084E39462846FFF7D8FE34
:10416000024631464046FFF7F5FE04442046BDE8CE
:10417000F081044EF0E700BFC4250108382601088D
:10418000D0250108CC2501082DE9F04F85B0054662
:104190000C46164603939DF8388001F0020B01F09F
:1041A000010AC1F3C0090BF047F8E8B10246134910
:1041B0002846FFF7CFFE0746BBF1000F16D1424657
:1041C000514628460BF047F8CDF80480BDF9403041
:1041D00000939DF83C30324649462846FFF79EFF43
:1041E000384405B0BDE8F08F0027E5E7039A214683
:1041F0002846FFF7C1FE0744E1E700BFD8250108C4
:104200002DE9F04385B006460C4617468B680A88B0
:10421000C2F3821812F4E07F35D04A680978C1F3FE
:10422000C2016AB32048121A42F3CF0202920191EE
:10423000CDF80080002239463046FFF7A5FF8146C1
:10424000254655F80C3BC3F3492343B1B8F1000FA1
:104250001CD116482B46324615490AF0EBFC628801
:10426000C2F3CB022168C1F34921294482B9B8F1D4
:10427000000F13D130460BF021F805B0BDE8F083F4
:104280004FF0FF32D2E74FF00009D9E70948E1E7E4
:1042900000974B4630460AF0F6FFE8E742463946BB
:1042A00030460AF0E4FFE5E7F41F01080FF30008C9
:1042B000BD340008D7F2000870B582B00446056826
:1042C00042F20F738B4228BF0B460E4A0521684607
:1042D0000AF005FD064663685B680B220A4928461A
:1042E0000AF0ACFF63685B683246694628460AF00C
:1042F000A5FF63685B681B22044928460AF09EFFFD
:1043000002B070BDF82B01082C2601081026010808
:10431000074B01221A6004E04008054A13685B005D
:104320001360044B9842F7D8034B1860704700BFE6
:10433000C40E002040420F00C00E002070B506469B
:104340000D46002406E0054B1868315D8368DB6983
:1043500098470134AC42F6D3284670BDDC0E0020ED
:10436000014B024A1A607047DC0E0020E41C010871
:1043700008B5034B01221A7002480AF09FFF08BDDE
:104380008E1400208826010808B50248FFF794FF24
:1043900008BD00BF8826010808B50F220148FFF7B5
:1043A0002FFF08BD8826010810B5044C02E054F820
:1043B000043B9847024B9C42F9D310BDF41F0108FF
:1043C000F41F0108064B1B684BB110B55C1E044A74
:1043D00052F8233098472346002CF7D110BD704780
:1043E000EC1F0108014910220A60704710ED00E03F
:1043F00072B6404080F31188BFF36F8FBFF34F8FC9
:1044000030BF62B6BFF36F8F704700BF2DE9F04732
:1044100096B000AF054601233B816C4688B06B46E1
:1044200013F10C0200F0CA801421012038811AB166
:10443000042901DD67481861286812B1082900DDE8
:104440005861686812B10C2900DD9861A86812B142
:10445000102900DDD861132940F3B38014202AB15C
:1044600000217960052139717968D96000216FF3E5
:1044700000016FF341016FF382016FF3C501012663
:1044800066F3881100F47D7363F352216FF3DE410C
:104490006FF3DF71002350480AF060FFA5463E81AC
:1044A0006C4688B06B4613F10C0200F08D8014212D
:1044B000012038811AB1042901DD48481861E868F3
:1044C00012B1082900DD5861286912B10C2900DDFC
:1044D0009861686912B1102900DDD861132976DD71
:1044E00014202AB100217960052139717968D960D9
:1044F00000216FF300016FF341016FF382016FF34D
:10450000C501012666F3881100F47D7363F352211F
:104510006FF3DE416FF3DF71DFF8BC8000234046AC
:104520000AF01CFFA5463E81EB692D4ABA63FB6386
:1045300000247C604FF0030A87F804A07B687B634B
:10454000214664F3000164F3410164F3820164F3E2
:10455000C50166F388114FF00C0969F3522164F329
:10456000DE4164F3DF71234607F1340240460AF06E
:10457000F5FE3E81AB691B4A3A657B657C6087F836
:1045800004A07B68FB64214664F3000164F34101ED
:1045900064F3820164F3C50166F3881169F3522163
:1045A00064F3DE4164F3DF71234607F14C024046B9
:1045B0000AF0D4FE5837BD46BDE8F0876FF00041E1
:1045C00033E76FF01B004AE76FF0004170E76FF0D0
:1045D0001B0086E7982601081C200108C826010850
:1045E000F82601080827010840B2002807DB00F080
:1045F0001F02400901239340014A42F820307047CE
:1046000000E100E040B200280CDB00F01F0240098E
:10461000012393402030044A42F82030BFF34F8FEB
:10462000BFF36F8F704700BF00E100E04209054B08
:1046300053F8222000F01F00012303FA00F010407D
:10464000704700BF00E100E0013140B2002808DB04
:104650000901C9B200F1604000F5614080F8001323
:10466000704700F00F000901C9B2014B195470479F
:1046700014ED00E030BFFFF7FDBF00BF08B50F4BE2
:104680000F4A22F07F029A60BFF34F8FBFF36F8F04
:10469000D3F8882022F47002C3F88820EFF3148343
:1046A00023F0040383F31488BFF36F8F07F098F8A7
:1046B00008F010F800F0AEFE07F09EF800ED00E004
:1046C00000000008094A9368986709490968D96792
:1046D00008494B6843F080534B60002383F31188F3
:1046E000BFF36F8F9368D86F704700BF30140020FE
:1046F0009439010800ED00E012498A684FF030005B
:104700001044EFF3098C80E8F01F102080F312882A
:10471000BFF36F8F0C4F4FF000668A698A603E606E
:10472000906F0023936780F3118804B5104600F062
:10473000C5FEBDE8044002F1300090E8F01F8CF3A4
:10474000098870473014002004ED00E01EF0040FCB
:104750000CBFEFF30880EFF30980816911F8021CA8
:104760000229FFD001B50AF072FE01BD10B4A2F11A
:1047700020040D4942F8081C21F0010142F8081CF0
:1047800042F8203C019B42F81C3C029B42F8183C3A
:10479000039B42F8143C4FF0807342F8043C0465DC
:1047A0000023836710BC7047FBEC0008114B9A682C
:1047B000EAB110F1160F10D0936EA3F1200C8445CE
:1047C00005D8834205D98B4205D800210AE0002193
:1047D00008E0002106E0012104E0936E8B4294BFC3
:1047E0000021012109B900207047906E7047002018
:1047F000704700BF3014002008B50D461446084B22
:10480000986000F05BFE204685F30988002163B6BE
:1048100081F31188BFF36F8F002200230AF06DFA35
:104820003014002001B5EFF30580A0F110004FEA2D
:10483000C0000449014409C99847BDE80140024944
:1048400008470000441D01084D480008044B9968C2
:104850009869884203D003494FF080520A6070473C
:104860003014002004ED00E000B585B00F290FDC06
:10487000084B103903910293074B019300200090DD
:104880000346012205490AF0F6FD05B05DF804FB78
:10489000034BEEE7542701086C2701081C20010890
:1048A0003827010870B5BAB005460E4614460122F5
:1048B000ADF80820A84B0E930023019302218DF838
:1048C000041001990D91194663F3000163F341014E
:1048D00063F3820163F3C50162F38811082262F376
:1048E000522163F3DE4163F3DF710DAA9B480AF0A6
:1048F00035FD9B4B9B6A13F4805F28D1984B9B6AD4
:1049000013F4006F46D1964B9B6A13F4007F64D179
:10491000934B9B6A13F4806F40F0B480904B9B6A7A
:1049200013F4807F40F0D1808D4B9B6A13F4005FBD
:1049300040F0EE808A4A936A43F47F4393620121F8
:1049400028460AF096FD207000203AB070BD012282
:10495000ADF80820834B14930023019302218DF8B6
:10496000041001991391194663F3000163F34101A7
:1049700063F3820163F3C50162F38811082262F3D5
:10498000522163F3DE4163F3DF7113AA73480AF027
:10499000E5FCB3E70122ADF80820734B1A9300231E
:1049A000019302218DF8041001991991194663F3BE
:1049B000000163F3410163F3820163F3C50162F314
:1049C0008811082262F3522163F3DE4163F3DF7141
:1049D00019AA62480AF0C2FC95E70122ADF8082046
:1049E000624B20930023019302218DF8041001995A
:1049F0001F91194663F3000163F3410163F38201E0
:104A000063F3C50162F38811082262F3522163F354
:104A1000DE4163F3DF711FAA50480AF09FFC504B40
:104A20009A6B9B6A13F4004F3FF472AF0120ADF80C
:104A300008004F4B269327920023019303228DF801
:104A40000420019A2592194663F3000163F34101A2
:104A500063F3820163F3C50160F388110C2262F3F2
:104A6000522163F3DE4163F3DF7125AA3B480AF06C
:104A700075FC002E3FF44CAF394A936A23F400438F
:104A8000936245E70122ADF808203A4B2C930023AE
:104A9000019302218DF8041001992B91194663F3BB
:104AA000000163F3410163F3820163F3C50162F323
:104AB0008811082262F3522163F3DE4163F3DF7150
:104AC0002BAA26480AF04AFC28E70122ADF8082064
:104AD000294B38930023019302218DF8041001998A
:104AE0003791194663F3000163F3410163F38201D7
:104AF00063F3C50162F38811082262F3522163F364
:104B0000DE4163F3DF7137AA14480AF027FC11E78E
:104B10000122ADF80820194B3293002301930221A2
:104B20008DF8041001993191194663F3000163F384
:104B3000410163F3820163F3C50162F38811082226
:104B400062F3522163F3DE4163F3DF7131AA03485C
:104B50000AF004FCEEE600BF802701081C200108D3
:104B600000ED00E098270108AC270108C0270108E4
:104B7000DC270108F427010810280108282801086B
:104B800000B5B5B00122ADF808208E4B0E9300237E
:104B9000019302218DF8041001990D91194663F3D8
:104BA000000163F3410163F3820163F3C50162F322
:104BB0008811082262F3522163F3DE4163F3DF714F
:104BC0000DAA81480AF0CAFB804B9B6A13F0007F54
:104BD00025D17E4B9B6A13F0807F43D17B4B9B6A30
:104BE00013F4002F61D1794B9B6A13F4802F7FD18E
:104BF000764B9B6A13F4003F40F09D80734B9B6A99
:104C000013F4803F40F0BA80704A936A6FEA03431E
:104C10006FEA13439362002035B05DF804FB012274
:104C2000ADF808206A4B14930023019302218DF8FC
:104C3000041001991391194663F3000163F34101D4
:104C400063F3820163F3C50162F38811082262F302
:104C5000522163F3DE4163F3DF7113AA5A480AF06D
:104C60007DFBB6E70122ADF808205A4B1A930023CA
:104C7000019302218DF8041001991991194663F3EB
:104C8000000163F3410163F3820163F3C50162F341
:104C90008811082262F3522163F3DE4163F3DF716E
:104CA00019AA49480AF05AFB98E70122ADF80820F2
:104CB000494B20930023019302218DF804100199A0
:104CC0001F91194663F3000163F3410163F382010D
:104CD00063F3C50162F38811082262F3522163F382
:104CE000DE4163F3DF711FAA37480AF037FB7AE72A
:104CF0000122ADF80820394B2693002301930221AD
:104D00008DF8041001992591194663F3000163F3AE
:104D1000410163F3820163F3C50162F38811082244
:104D200062F3522163F3DE4163F3DF7125AA264863
:104D30000AF014FB5CE70122ADF80820284B2C9305
:104D40000023019302218DF8041001992B9119463B
:104D500063F3000163F3410163F3820163F3C5016F
:104D600062F38811082262F3522163F3DE4163F398
:104D7000DF712BAA14480AF0F1FA3FE70122ADF8DF
:104D80000820184B32930023019302218DF8041060
:104D900001993191194663F3000163F3410163F313
:104DA000820163F3C50162F38811082262F3522184
:104DB00063F3DE4163F3DF7131AA03480AF0CEFAF0
:104DC00022E700BF582801081C20010800ED00E080
:104DD0007028010884280108A0280108C0280108BB
:104DE000E82801080429010800B591B000230B70E0
:104DF0000122ADF8082010490E91019302218DF88F
:104E0000041001990D91194663F3000163F3410108
:104E100063F3820163F3C50162F38811082262F330
:104E2000522163F3DE4163F3DF710DAA03480AF0F8
:104E300095FA11B05DF804FB302901081C20010827
:104E4000F0B5B5B005460C4616460122ADF808206F
:104E5000A34B0E930023019302218DF804100199B6
:104E60000D91194663F3000163F3410163F382017D
:104E700063F3C50162F38811082262F3522163F3E0
:104E8000DE4163F3DF710DAA96480AF067FA964B8C
:104E90009B6A13F0100F34D1934B9B6A13F0080FE9
:104EA00052D1914B9B6A13F0020F70D16FF015072E
:104EB0008D4B9B6A13F0010F40F0C0808A4B9B6AB8
:104EC00013F0200F40F0DD80874B9B6A13F0100F2A
:104ED00004D1854B9C6A14F0020405D0824B5C68B7
:104EE00014F4006440F0F0807F4A936A43F0FF03BB
:104EF0009362012128460AF0BCFA3070204635B092
:104F0000F0BD0122ADF80820784B149300230193E3
:104F100002218DF8041001991391194663F30001E1
:104F200063F3410163F3820163F3C50162F3881106
:104F3000082262F3522163F3DE4163F3DF7113AAA7
:104F400068480AF00BFAA7E70122ADF80820684B81
:104F50001A930023019302218DF8041001991991ED
:104F6000194663F3000163F3410163F3820163F3C4
:104F7000C50162F38811082262F3522163F3DE4116
:104F800063F3DF7119AA57480AF0E8F989E70122AB
:104F9000ADF80820574B20930023019302218DF890
:104FA000041001991F91194663F3000163F3410155
:104FB00063F3820163F3C50162F38811082262F38F
:104FC000522163F3DE4163F3DF711FAA45480AF003
:104FD000C5F9454B5F6B9B6A13F0800F02D16FF0F0
:104FE000150765E70122ADF80820434B2693279764
:104FF0000023019303218DF804100199259119468E
:1050000063F3000163F3410163F3820163F3C501BC
:1050100062F388110C2262F3522163F3DE4163F3E1
:10502000DF7125AA2F480AF099F9002C3FF440AF10
:105030002D4A936A23F08003936239E70122ADF889
:1050400008202E4B2C930023019302218DF804108D
:1050500001992B91194663F3000163F3410163F356
:10506000820163F3C50162F38811082262F35221C1
:1050700063F3DE4163F3DF712BAA1A480AF06EF97D
:105080001CE70122ADF808201D4B32930023019349
:1050900002218DF8041001993191194663F3000142
:1050A00063F3410163F3820163F3C50162F3881185
:1050B000082262F3522163F3DE4163F3DF7131AA08
:1050C00008480AF04BF9FFE629463846FFF76EFB21
:1050D000044600283FF408AF80F30988022403E760
:1050E000542901081C20010800ED00E06C2901088A
:1050F000AC270108A0290108B8290108D029010816
:1051000028280108F0B5A9B007460E460123ADF8DE
:105110000830734A0E920024019402228DF8042074
:10512000019A0D92214664F3000164F3410164F396
:10513000820164F3C50163F38811082363F35221EC
:1051400064F3DE4164F3DF7123460DAA65480AF07B
:1051500005F93470644BDD6A15F002050AD1624B23
:10516000DB6A002B2ADB604BD86A10F0804049D103
:1051700029B0F0BD0123ADF808305C4A26920194B5
:1051800002228DF80420019A2592214664F3000141
:1051900064F3410164F3820164F3C50163F3881190
:1051A000082363F3522164F3DE4164F3DF71234685
:1051B00025AA4C480AF0D2F82046D9E70122ADF8DA
:1051C00008204B4B20930023019302218DF80410FB
:1051D00001991F91194663F3000163F3410163F3E1
:1051E000820163F3C50162F38811082262F3522140
:1051F00063F3DE4163F3DF711FAA3A480AF0AEF8A9
:105200002846B5E70122ADF808203A4B1493002355
:10521000019302218DF8041001991391194663F34B
:10522000000163F3410163F3820163F3C50162F39B
:105230008811082262F3522163F3DE4163F3DF71C8
:1052400013AA28480AF08AF8BB6933F8022C4DF6F5
:1052500002739A420DD0244B93F828307BBB224B2B
:1052600093F829308BBB204B5B8D9BB29BBB2846B0
:105270007EE70122ADF808201F4B1A933B681B9371
:105280000023019303218DF8041001991991194607
:1052900063F3000163F3410163F3820163F3C5012A
:1052A00062F388110C2262F3522163F3DE4163F34F
:1052B000DF7119AA0B480AF051F8386858E73246EE
:1052C00001213846FFF7BCFD52E73246012138463E
:1052D000FFF7E8FA4CE73846FFF752FC48E700BF13
:1052E000F02901081C20010800ED00E0082A01084F
:1052F0002C2A01083C2A01085C2A010870B598B0E4
:10530000384B5D68C5F30805002383F31188BFF3AC
:105310006F8F02F07F43B3F17F4F3CD102F00C035B
:10532000082B10D012F0080F32D00C4600260DF1D9
:105330004702294620460AF0ABF805469DF847305B
:1053400063B318B070BD0123ADF80430264A16923D
:105350000024009402228DF80020009A1592214624
:1053600064F3000164F3410164F3820164F3C50155
:1053700063F38811082363F3522164F3DE4164F37D
:10538000DF71234615AA194809F0E8FF2646CEE743
:1053900004460126CBE700263446C8E70DF1240C6D
:1053A00020686168A268E368ACE80F002069616961
:1053B000A269E369ACE80F0046B1C3F308025AB929
:1053C0006FEA53236FEA4323109305E0109B23F405
:1053D000FF7323F00103109309A928460AF02BF864
:1053E000AFE700BF00ED00E0782A01081C200108AB
:1053F000024A536943F010035361704700ED00E027
:10540000EFF30880EFF3098101B57246FFF776FFED
:1054100001BD00BF002206E002F00F01094B0B4462
:10542000102119760132542A0ADC53B2002BF3DB27
:1054300003F1604303F56143102183F80013F1E7A2
:10544000704700BFFCEC00E0102080F31188084892
:105450004FF40261401880F30988EFF314800221B1
:10546000084380F31488BFF36F8FFFF707F900003C
:10547000602D002008B5084B9B68834202D007F0DE
:10548000EDF808BDEFF30583002BF8D0034A53680D
:1054900043F080535360F2E73014002000ED00E049
:1054A00008B5034B034A012103480AF046F808BD3A
:1054B0000080022000000020A82A010808B5836EA1
:1054C000203B0548036020234360044B8360012197
:1054D0000AF037F808BD00BFE40E002000000B15ED
:1054E000084AC2F898000B6823F01F03034343F0F7
:1054F0001003C2F89C308B6843F00103C2F8A0305F
:10550000704700BF00ED00E010B590B004460728DA
:1055100004D8FFF7E5FF204610B010BD0122ADF81A
:105520000820114B0E930F900023019303218DF857
:10553000041001990D91194663F3000163F34101D1
:1055400063F3820163F3C50162F388110C2262F3F5
:10555000522163F3DE4163F3DF710DAA034809F0C2
:10556000FDFE6FF01500D7E7B42A010814200108EA
:105570002DE9F04391B080460F4699461646002526
:1055800009E02146F0B209F0B9FF064610F1160F06
:1055900037D001360135BD4233DA05EB450408EB5F
:1055A00084046268002AF5D0B9F1000FE9D02046E2
:1055B00009F093FF0028E4D10122ADF80820134B35
:1055C0000E930F950023019303218DF80410019988
:1055D0000D91194663F3000163F3410163F3820106
:1055E00063F3C50162F388110C2262F3522163F365
:1055F000DE4163F3DF710DAA054809F0AFFE6FF0DD
:105600001506304611B0BDE8F08300BFDC2A010862
:105610001420010810B5034C01232278FFF7A8FFDE
:10562000207010BD8F14002008B50023094A12789D
:10563000FFF79EFF10F1160F0AD0034606E0064A58
:10564000C2F898300021C2F8A0100133072BF6DD14
:1056500008BD00BF8F14002000ED00E0044B0522C0
:10566000C3F89420BFF34F8FBFF36F8F704700BF15
:1056700000ED00E0BFF35F8F024B0022C3F89420DF
:10568000704700BF00ED00E038B50E4B1D68082DD7
:1056900015D8FFF7EFFF002409E00A4B596804EB27
:1056A0004402930019442046FFF71AFF0134A54233
:1056B000F3D8054B1D70FFF7D1FF002038BD4FF028
:1056C000FF30FBE7382B01088F140020014B1860D6
:1056D000704700BFBC02002070B506460D4600248E
:1056E00000E00134AC4208DA054B1B68984730559E
:1056F0000A2801D00D28F4D10134204670BD00BF26
:10570000B8020020F8B505460F46002404E0094B16
:105710001B68307898470134BC4208DA2E192B5D9B
:105720000A2BF4D1034B1B680D209847EFE738464E
:10573000F8BD00BFBC02002008B5052202490120C7
:1057400009F010FFFEE700BF002B01080246084BDE
:105750001968084BC8180A44C3F1005303F52033F5
:105760009A4202D2024B1A6070474FF0FF307047E6
:10577000F00E0020A039002008B51D2204490220A7
:1057800009F0F0FE404080F311884FF0030002DF83
:10579000082B0108F0B583B005460C461646144B9D
:1057A000186848B1A2B283681B6829469847034627
:1057B000C00F07D103B0F0BD0E4805F075FE0C4BCD
:1057C0001860EFE756B11846F4E705F0B7FC019012
:1057D0003A4601A9A8190BF062FD3E44A64204D244
:1057E000A71B042FF1D90427EFE70020E2E700BF51
:1057F000F40E0020582B010870B504460D461669BA
:1058000002E001220CE00134AC4217DA1F2CFADC72
:105810000123A3400A4A526933EA0202F1D000226E
:10582000002AF0D0064A536156F83430002BEAD0F3
:1058300006EBC402516820469847E4E770BD00BFFC
:105840000004014008B501238340044A11680B435A
:105850001360034B1856FEF7C7FE08BD0004014055
:105860007C2B01081F2806DC01238340024A1068B4
:1058700020EA03001060704700040140032932D879
:10588000DFE801F0020F1B27012303FA00F0164B9B
:105890009A6822EA00029A60DA6822EA0000D86078
:1058A0007047012303FA00F00F4B9A6802439A6095
:1058B000DA6822EA0000D8607047012303FA00F09A
:1058C000094BDA680243DA609A6822EA00009860BD
:1058D0007047012303FA00F0034B9A6802439A6071
:1058E000DA681043D860704700040140074B53F852
:1058F00030303BB9054B43F8301003EBC000426039
:10590000002070476FF00F00704700BFF80E0020B6
:10591000034B002243F8302003EBC0035A6070476A
:10592000F80E002086B00B68062B48D8DFE803F09D
:105930000410263C31471B004B68224A916C1943E6
:105940009164926C13400093009B002006B0704756
:105950004B681C4AD16C1943D164D26C134001933B
:10596000019B0020F2E74B68164A116D194311653F
:10597000126D13400293029B0020E7E74B68114A27
:10598000916D19439165926D13400393039B002021
:10599000DCE74B680B4AD16D1943D165D26D1340DA
:1059A0000493049B0020D1E74B68064A116E19430B
:1059B0001166126E13400593059B0020C6E76FF039
:1059C0008500C3E7001002400B68062B35D8DFE8DE
:1059D00003F0040C1C2C243414004968184A936CFE
:1059E00023EA01039364002070474968144AD36C8A
:1059F00023EA0103D364002070474968104A136DFD
:105A000023EA010313650020704749680C4A936D2F
:105A100023EA01039365002070474968084AD36D63
:105A200023EA0103D365002070474968044A136ED6
:105A300023EA01031366002070476FF0850070476A
:105A40000010024070B50C4615460D4B1E68012132
:105A5000304609F01EFE2368062B0ED8DFE803F05F
:105A60000404070A070D04002E60002070BD2860A2
:105A70000020FBE728600020F8E76FF08500F5E7DD
:105A8000C0030020104B1B6813F4806F09D10E4A2D
:105A9000136843F4807313600B4B1B6813F4806F1F
:105AA000FAD0094A936823F0030343F0010393609B
:105AB000936823F0F00318439060034B9B6803F056
:105AC0000C03042BF9D170470010024010B586B0CA
