:020000040800F2
:1000000080230020291D00087F870008E11C0008CC
:10001000E11C0008E11C0008E11C000800000000D1
:10002000000000000000000000000000D1180008DF
:10003000E11C0008000000004118000855570008A6
:10004000791A0008791A0008791A0008791A000844
:10005000791A0008791A0008791A0008791A000834
:10006000791A0008791A0008791A0008791A000824
:10007000791A0008791A0008791A0008791A000814
:10008000791A0008791A0008791A0008791A000804
:10009000791A0008791A0008791A0008791A0008F4
:1000A000791A0008791A0008791A0008791A0008E4
:1000B000791A0008791A0008791A0008791A0008D4
:1000C000791A0008791A0008791A0008791A0008C4
:1000D000791A0008791A0008791A0008791A0008B4
:1000E000791A0008791A0008791A0008791A0008A4
:1000F000791A0008791A0008791A0008791A000894
:10010000791A0008791A0008791A0008791A000883
:10011000791A0008791A0008791A0008791A000873
:10012000791A0008791A0008791A0008791A000863
:10013000791A0008791A0008791A0008791A000853
:10014000791A0008791A0008791A0008791A000843
:10015000791A0008791A0008791A0008791A000833
:10016000791A0008791A0008791A0008791A000823
:10017000791A0008791A0008791A0008791A000813
:10018000791A0008791A0008791A0008791A000803
:04019000791A0008D0
:0C019400FFFFFFFFFFFFFFFFFFFFFFFF6B
:1001A00001F0FF01102A2BDB10F0070F08D010F828
:1001B000013B013A8B422DD010F0070F42B3F6D12C
:1001C000F0B441EA012141EA014122F007047FF045
:1001D00000070023F0E80256083C85EA010586EA9C
:1001E000010685FA47F5A3FA87F586FA47F6A5FAD8
:1001F00087F68EB9EED1F0BC01F0FF0102F00702E4
:1002000032B110F8013B013A83EA010313B1F8D18E
:100210000020704701387047002D06BF354603386F
:10022000073815F0010F07D1013015F4807F02BFA8
:10023000013015F4C03F0130F0BC0138704700BFF9
:1002400053B94AB9002908BF00281CBF4FF0FF313D
:100250004FF0FF3000F00CB8ADF1080C6DE904CEA2
:1002600000F008F8DDF804E0DDE9022304B070478F
:10027000704700BF2DE9F04F099E88468E4615460F
:1002800004461946002B40F0C7804245B2FA82F777
:1002900046D94FB1C7F1200C08FA07F320FA0CFC3D
:1002A000BD404CEA030EBC404FEA15481FFA85FCDE
:1002B000BEFBF8F9220C08FB19E309FB0CFA42EA31
:1002C00003439A4528D9EB1809F1FF3004D29A4527
:1002D00002D9A9F102002B44A3EB0A03A4B2B3FB99
:1002E000F8F208FB123302FB0CFC44EA0344A44579
:1002F00014D92C1902F1FF3303D2A44501D9931E5E
:100300002C44A4EB0C0443EA00401EB1FC40002343
:1003100034607360BDE8F08F4846DDE71346F0E7D0
:1003200002B9FFDE8FBBA8EB020301214FEA154E95
:10033000AAB2B3FBFEFC200C0EFB1C330CFB02F834
:1003400040EA0343984563D9EB180CF1FF3004D21F
:10035000984502D9ACF102002B44A3EB0803A4B2E8
:10036000B3FBFEFC0EFB1C330CFB02F244EA03441D
:10037000A2424FD92C190CF1FF3304D2A24202D968
:10038000ACF102032C44A41ABDE7C7F1200C28FAF3
:100390000CF908FA07F320FA0CFCBD404CEA030202
:1003A0004FEA154EABB2B9FBFEFC110C0EFB1C90D4
:1003B0000CFB03F841EA0040804504FA07F423D916
:1003C00028180CF1FF3104D2804502D9ACF10201AA
:1003D0002844A0EB080092B2B0FBFEFC0EFB1C0010
:1003E0000CFB03F842EA004398450FD9EB180CF1D7
:1003F000FF3204D2984502D9ACF102022B44A3EBA0
:10040000080342EA014191E76146E2E76246F6E706
:100410006046A2E76346B6E7434505D90EB1C6E993
:1004200000080021084675E7B3FA83FCBCF1000F11
:1004300010D1434501D382420AD8841A68EB0303E2
:1004400001209E46002E68D0C6E9004E002161E7DB
:100450006046F7E7CCF1200E03FA0CF322FA0EF413
:100460001C4320FA0EF108FA0CF328FA0EFB19438C
:100470004FEA144902FA0CF5BBFBF9F8A3B209FBE9
:1004800018BB0A0C08FB03FA42EA0B42924500FA39
:100490000CF73ED9A21808F1FF3004D2924502D9D8
:1004A000A8F102002244A2EB0A0289B2B2FBF9F8D9
:1004B00009FB182208FB03F341EA024293422AD9BE
:1004C000A21808F1FF3104D2934202D9A8F1020127
:1004D000224441EA0040A0FB0598D21A42454B460F
:1004E000414602D306D14F4504D2B9EB050368EB70
:1004F000040101388EB1FC1A62EB010707FA0EFE07
:1005000024FA0CF34EEA030327FA0CF7C6E9003786
:100510009CE74046C7E74146DBE73146FAE610F87C
:10052000012B11F8013B012A28BF9A42F7D0D01ABB
:100530007047034613F8012B002AFBD1181A013823
:10054000704700000000000030B589B004460C9DE3
:100550000020C4F8C800C4F8CC0004F1D000C4F8EE
:10056000D000C4F8D40004F1D800C4F8D800C4F80E
:10057000DC00EDB12879E8B90120C4F8E0009FED76
:10058000107B8DED067B0020049003930290019078
:1005900000940D4B20460AF0D9F925B1296811B114
:1005A00020460AF0C0F920460AF0C0F909B030BD73
:1005B0000120E2E740F20110DFE700BFAFF3008067
:1005C000FFFFFFFFFFFFFFFF9963000810B5044620
:1005D00008460B490AF099FDA3681B6900221146E1
:1005E00020469847074B0322BFF35B8F53E8001F59
:1005F00043E800200028F9D1BFF35B8F10BD00BF96
:100600004008002050010020F0B583B004460D469C
:100610009D4E9E4F0FCF0FC697E80F0007C6338041
:1006200006E0BFF35B8F11D10A20002106F0C4FA67
:10063000974B0022BFF35B8F53E800CFBCF1010F53
:10064000EFD143E800210029EBD0F5E78E4E30468C
:10065000FFF76FFF0246A3685F680023314620461C
:10066000B847BFF35B8F8A4B1B68BFF35B8F23B91F
:100670006420002106F0A0FAF3E72B68854AA2FB6C
:1006800003239B090093844B402200217E480AF0FB
:1006900052FD06E0BFF35B8F10D10A20002106F067
:1006A0008BFA7B4B0022BFF35B8F53E8001F0129BD
:1006B000F0D143E800200028ECD0F6E7724E304637
:1006C000FFF737FF0246A3685F68002331462046E4
:1006D000B847BFF35B8F6E4B1B68BFF35B8F23B9CB
:1006E0006420002106F068FAF3E72B79012B0BD088
:1006F000022B12D013BB7D230093684B40220021B4
:1007000061480AF018FD19E0FA230093634B402278
:1007100000215D480AF00FFD10E04FF4FA730093DA
:100720005E4B4022002158480AF005FD06E0BFF369
:100730005B8F10D10A20002106F03EFA544B0022B4
:10074000BFF35B8F53E8001F0129F0D143E800207D
:100750000028ECD0F6E74C4E3046FFF7EAFE0246A2
:10076000A3685F68002331462046B84703E0642051
:10077000002106F021FABFF35B8F454B1B68BFF3E6
:100780005B8F002BF3D06B79063B062B39D8DFE863
:1007900003F0040A10161C232A003B4E404B0FCBDB
:1007A00086E80F002DE0384E3E4B0FCB86E80F0059
:1007B00027E0354E3C4B0FCB86E80F0021E0324E50
:1007C0003A4B0FCB86E80F001BE02F4E384F0FCF70
:1007D0000FC63B68337014E02B4E364F0FCF0FC659
:1007E0003B6833700DE0284E334F0FCF0FC63B6888
:1007F000337006E0BFF35B8F10D10A20002106F0B2
:10080000DBF9234B0022BFF35B8F53E8001F012964
:10081000F0D143E800200028ECD0F6E71A4E30462D
:10082000FFF787FE0246A3685F6800233146204633
:10083000B84703E06420002106F0BEF9BFF35B8FE8
:10084000134B1B68BFF35B8F002BF3D0AB79013BDD
:10085000032B47D8DFE803F0020910380A4E174F80
:100860000FCF0FC63B6833803CE0074E144F0FCFCD
:100870000FC63B68338035E0034E124F0FCF0FC6D3
:100880003B6833802EE000BFBC0700205CBB000843
:1008900054010020D34D62107CBB000890BB0008BF
:1008A000A4BB0008B4BB0008C4BB0008D4BB00084C
:1008B000E4BB0008F8BB00080CBC000820BC000822
:1008C00034BC000848BC00089E4E9F4F0FCF0FC697
:1008D0003B68338006E0BFF35B8F10D10A20002114
:1008E00006F06AF9994B0022BFF35B8F53E8001FB3
:1008F0000129F0D143E800200028ECD0F6E7914E22
:100900003046FFF716FE0246A3685F6800233146B3
:100910002046B84703E06420002106F04DF9BFF3FC
:100920005B8F8A4B1B68BFF35B8F002BF3D02B8947
:100930000093874B4022002182480AF0FCFB06E02E
:10094000BFF35B8F10D10A20002106F035F97F4BF1
:100950000022BFF35B8F53E8001F0129F0D143E869
:1009600000200028ECD0F6E7764E3046FFF7E1FD98
:100970000246A3685F68002331462046B847BFF3AC
:100980005B8F724B1B68BFF35B8F53B1EB7A002B0D
:1009900000F098806B4E6F4F0FCF0FC63B683360EF
:1009A00008E06420002106F007F9E8E70A200021AA
:1009B00006F002F9654B0022BFF35B8F53E8001F7E
:1009C000012903D143E800200028F7D1BFF35B8F52
:1009D000ECD05C4E3046FFF7ACFD0246A3685F6882
:1009E000002331462046B847BFF35B8F574B1B6847
:1009F000BFF35B8F002B56D0AB7A0093564B40224F
:100A0000002150480AF097FB504B0022BFF35B8F48
:100A100053E8001F012903D143E800200028F7D143
:100A2000BFF35B8F44D0474E3046FFF782FD02464E
:100A3000A3685F68002331462046B847BFF35B8F49
:100A4000424B1B68BFF35B8F002B36D095F90C30FF
:100A50000093424B402200213A480AF06CFB3B4B8A
:100A60000022BFF35B8F53E8001F012903D143E845
:100A700000200028F7D1BFF35B8F58D0314D2846B6
:100A8000FFF757FD0246A3685E680023294620460B
:100A9000B047BFF35B8F2D4B1B68BFF35B8F002B01
:100AA0004AD003B0F0BD6420002106F085F89BE732
:100AB0000A20002106F080F8A6E76420002106F055
:100AC0007BF8BBE71F4E264F0FCF0FC697E80300FA
:100AD00046F8040B317003E00A20002106F06CF8A0
:100AE0001A4B0022BFF35B8F53E8001F012903D18B
:100AF00043E800200028F7D1BFF35B8FECD0114E04
:100B00003046FFF716FD0246A3685F6800233146B2
:100B10002046B847BFF35B8F0C4B1B68BFF35B8F5E
:100B2000002B93D16420002106F046F8F2E70A205A
:100B3000002106F041F892E76420002106F03CF81D
:100B4000A7E700BFBC0700205CBC000854010020E0
:100B500070BC00088CBC0008A0BC0008CCBC00081D
:100B6000B4BC0008F8B504460D4616461F46836817
:100B70001B690022114698476E71A3681B682946BD
:100B80002046984758B929463846FFF73DFDF8BD3D
:100B9000BFF35B8F11D10A20002106F00DF8134A34
:100BA0000021BFF35B8F52E800CFBCF1010FEFD102
:100BB00042E80013002BEBD0F5E70D4C2046FFF781
:100BC000B8FC0246BB685D68002321463846A8474A
:100BD00003E06420002105F0EFFFBFF35B8F034BC0
:100BE0001B68BFF35B8F002BF3D0D0E754010020CC
:100BF000E0BC0008F8B504460E4615461F4683685B
:100C00001B690022114698474FF47A7303FB05F5E0
:100C10003560A3681B6831462046984758B931466D
:100C20003846FFF7F1FCF8BDBFF35B8F11D10A2006
:100C3000002105F0C1FF134A0021BFF35B8F52E88A
:100C400000CFBCF1010FEFD142E80013002BEBD035
:100C5000F5E70D4C2046FFF76CFC0246BB685D686B
:100C6000002321463846A84703E06420002105F010
:100C7000A3FFBFF35B8F034B1B68BFF35B8F002B9E
:100C8000F3D0D0E75401002004BD0008F8B50546B4
:100C90000C4616461F4683681B690022114698477A
:100CA0007EB1236803F5C333A0332360AB681B68B0
:100CB00021462846984788B921463846FFF7A4FCC4
:100CC000F8BD2368A3F5C333A03B2360EEE7BFF371
:100CD0005B8F11D10A20002105F06EFF134A00211D
:100CE000BFF35B8F52E800CFBCF1010FEFD142E8B8
:100CF0000013002BEBD0F5E70D4C2046FFF719FC55
:100D00000246BB685D68002321463846A84703E0D9
:100D10006420002105F050FFBFF35B8F034B1B687D
:100D2000BFF35B8F002BF3D0CAE700BF5401002054
:100D300004BD000870B584B00446042A37D03B4A8D
:100D4000126801925B680093394B402200213948B8
:100D50000AF0F1F906E0BFF35B8F10D10A20002101
:100D600005F02AFF344B0022BFF35B8F53E8001FCE
:100D70000129F0D143E800200028ECD0F6E72D4D02
:100D80002846FFF7D6FB0246A3685E680023294683
:100D90002046B047BFF35B8F274B1B68BFF35B8FC9
:100DA000002B41D16420002105F006FFF2E7B3F9E2
:100DB000022093F90010039102921C4A12680192DA
:100DC0005B6800931D4B402200211A480AF0B3F9DA
:100DD00006E0BFF35B8F10D10A20002105F0ECFE86
:100DE000154B0022BFF35B8F53E8001F0129F0D1A0
:100DF00043E800200028ECD0F6E70E4D2846FFF728
:100E000098FB0246A3685E68002329462046B04747
:100E1000BFF35B8F084B1B68BFF35B8F23B9642064
:100E2000002105F0C9FEF3E704B070BDB80700204B
:100E30002CBD0008FC070020540100204CBD000818
:100E40002DE9F0438BB004460D4617461E4600239D
:100E50008DF82730ADF824300893BFF35B8F5E4ADE
:100E6000D2F80080BFF35B8F079305930693DFF8FA
:100E700080C1BCE80F0030607160B260F360BCE814
:100E8000030030617161BCF80030338306E0BFF3CA
:100E90005B8F12D10A20002105F08EFE4F4B4FF0E0
:100EA000000CBFF35B8F53E800EFBEF1010FEED1F2
:100EB00043E800C2002AEAD0F5E73046FFF739FBE5
:100EC0000246BB68D3F80490002331463846C84731
:100ED00003E06420002105F06FFEBFF35B8F3F4B02
:100EE0001B68BFF35B8F002BF3D0A3681B69002244
:100EF0001146204698474FF000095AE0BFF35B8F38
:100F000066D107ABBFF35B8F53E8002F013243E894
:100F100000210029F8D1BFF35B8F0421304807F08E
:100F200014FD01236B73A3681B682946204698476C
:100F30000890089B002BF6D1A3685B68042228491F
:100F400020469847089000236B73A3681B682946C6
:100F5000204698470890089B002BF6D1A368DB68D1
:100F60000DF12702039209AA02921E480021CDE941
:100F7000000104221C49204698470890BFF35B8F6C
:100F8000079BBFF35B8F0693BDF82430ADF8163096
:100F90009DF827308DF81430089A05AB3146384655
:100FA000FFF7C8FE09F1010944F62060002105F0B1
:100FB00003FEC1450CD20D4B0122BFF35B8F53E8FA
:100FC000001F91429AD143E80020002896D0F6E70E
:100FD0000BB0BDE8F08300BFB8070020540100202B
:100FE00040080020701101003C0800205001002042
:100FF0007CBD000870B50C4683681B690022114651
:10100000984706E0BFF35B8F10D10A20002105F05E
:10101000D3FD124B0022BFF35B8F53E8000F012872
:10102000F0D143E800210029ECD0F6E70C4D28462A
:10103000FFF77FFA0246A3685E6800232946204630
:10104000B047BFF35B8F054B1B68BFF35B8F23B9C2
:101050006420002105F0B0FDF3E770BD54010020CD
:1010600098BD000808B50B78022B13D0052B0DD0C6
:101070005BB90A4B0122BFF35B8F53E8001F43E8C3
:1010800000200028F9D1BFF35B8F08BD044805F0AC
:10109000FBF9FAE783685B699847F6E7540100209B
:1010A000C408002070B582B0A94804F0CFFD064600
:1010B000002300930193A74DA749284606F0B6FBED
:1010C00004460090FFF735FA0130A449284406F0A1
:1010D000ADFB0AF016F805460190A1492046FFF73E
:1010E0001EFAF8B99F4B0122BFF35B8F53E8001F34
:1010F00043E800200028F9D1BFF35B8F9A4BBFF380
:101100005B8F53E8002F43E800510029F9D1BFF36A
:101110005B8FB368DC68002340228E493046A047CD
:1011200002B070BD91492046FFF7F9F9002838D187
:101130008C4B0922BFF35B8F53E8001F43E800206C
:101140000028F9D1BFF35B8F06E0BFF35B8F10D1AE
:101150000A20002105F030FD854B0022BFF35B8F94
:1011600053E8001F0129F0D143E800200028ECD00B
:10117000F6E7804C2046FFF7DCF90246B3685D686D
:10118000002321463046A847BFF35B8F784B1B688E
:10119000BFF35B8F002BBCD16420002105F00CFD58
:1011A000F2E775492046FFF7BAF960B96D4B0422A2
:1011B000BFF35B8F53E8001F43E800200028F9D1FC
:1011C000BFF35B8FA5E76D492046FFF7A8F960B92B
:1011D000644B0622BFF35B8F53E8001F43E80020F7
:1011E0000028F9D1BFF35B8F93E765492046FFF7ED
:1011F00096F960B95B4B0722BFF35B8F53E8001F82
:1012000043E800200028F9D1BFF35B8F81E75D49F7
:101210002046FFF784F9B8B95B4BBFF35B8F53E807
:10122000002F43E800510029F9D1BFF35B8F4D4BEC
:101230000522BFF35B8F53E8001F43E8002000281E
:10124000F9D1BFF35B8F64E750492046FFF767F998
:1012500000286FD1063D062D11D8DFE805F05E515C
:1012600044372A1D04004A4B0C22BFF35B8F53E81E
:10127000001F43E800200028F9D1BFF35B8F394BF2
:101280000822BFF35B8F53E8001F43E800200028CB
:10129000F9D1BFF35B8F3CE73D4B0B22BFF35B8F74
:1012A00053E8001F43E800200028F9D1BFF35B8F0B
:1012B000E5E7374B0A22BFF35B8F53E8001F43E893
:1012C00000200028F9D1BFF35B8FD8E7304B09220B
:1012D000BFF35B8F53E8001F43E800200028F9D1DB
:1012E000BFF35B8FCBE72A4B0822BFF35B8F53E83A
:1012F000001F43E800200028F9D1BFF35B8FBEE751
:10130000234B0722BFF35B8F53E8001F43E8002005
:101310000028F9D1BFF35B8FB1E71D4B0622BFF365
:101320005B8F53E8001F43E800200028F9D1BFF38A
:101330005B8FA4E70B4B0022BFF35B8F53E8001FCA
:1013400043E800200028F9D1BFF35B8FE1E600BF3E
:10135000BCBD000844080020C4BD000848BD00080A
:10136000C8BD000850010020B8070020CCBD00080F
:1013700054010020D4BD000804BE00080CBE0008C3
:1013800014BE00081CBE0008580100202CBE000836
:101390005C01002000B58BB00023099307930893EC
:1013A0000393049305930693BFF35B8FAA4B1B68CB
:1013B000BFF35B8F0393BFF35B8FA84B1B68BFF337
:1013C0005B8F8DF8113001238DF812300823ADF8B2
:1013D000143014238DF81830A14809F05BFAE0B1FD
:1013E0009F4883681B6803A998470990099B002BB5
:1013F0001ADB9C499C4809F074FB9C4804F026FCCD
:10140000044609F047FAB0B1A3681B68002B34D03A
:1014100000229749204698472FE04FF0FF304FF0C9
:10142000FF3105F0C9FBDBE74FF0FF304FF0FF3134
:1014300005F0C2FBDDE74FF0FF304FF0FF3105F064
:10144000BBFBE1E7A368DD68002340228949204611
:10145000A847834883681B69874A88499847884B0F
:101460000022BFF35B8F53E8001F022903D143E83A
:1014700000200028F7D1BFF35B8FBFF35B8F804B59
:101480001B68BFF35B8F013B082B00F2DF8001A2DA
:1014900052F823F00715000845140008B914000895
:1014A00031150008B3150008571500088515000808
:1014B000EB1500082516000801238DF81930684D3A
:1014C000AE68336803A92846984740F6B830002133
:1014D00005F072FB736804226A492846984733690D
:1014E000654A664928469847654B0222BFF35B8FE1
:1014F00053E8001F032903D143E800200028F7D157
:10150000BFF35B8FB9E7604B224603A95448FFF74E
:1015100097FC5B4B0222BFF35B8F53E8001F01294E
:1015200003D143E800200028F7D1BFF35B8FA4E785
:1015300003A92046FFF768F8514B0222BFF35B8FE7
:1015400053E8001F042903D143E800200028F7D105
:10155000BFF35B8F91E74C4B00932346012203A915
:101560003F48FFF793FB464B0222BFF35B8F53E8E4
:10157000001F062903D143E800200028F7D1BFF35C
:101580005B8F7AE7404B00932346002203A934483F
:10159000FFF77CFB3A4B0222BFF35B8F53E8001F3F
:1015A000072903D143E800200028F7D1BFF35B8F60
:1015B00063E7BFF35B8F284B1A68BFF35B8F324B37
:1015C0000093234603A92648FFF714FB2C4B022265
:1015D000BFF35B8F53E8001F052903D143E80020C8
:1015E0000028F7D1BFF35B8F47E7BFF35B8F1B4B3F
:1015F0001A68BFF35B8F244B00932346D2B203A932
:101600001748FFF7AFFA1E4B0222BFF35B8F53E878
:10161000001F082903D143E800200028F7D1BFF3B9
:101620005B8F2AE7184A21460D48FFF7E3FC144B6D
:101630000222BFF35B8F53E8001F092903D143E85F
:1016400000200028F7D1BFF35B8F16E7642000214C
:1016500005F0B2FA11E700BF580100205C0100203C
:10166000D8B70008A5100008C4080020BCBD0008B9
:10167000651000084408002037870008CD050008E1
:101680005001002040080020840800204FF0100284
:10169000EFF3118382F31288BFF36F8F83F3118806
:1016A000BFF36F8F024B034A1A600020704700BFE0
:1016B0001C03002000093D0010B5044C02E054F862
:1016C000043B9847024B9C42F9D310BDA0BA0008D6
:1016D000A0BA0008064B1B684BB110B55C1E044A4B
:1016E00052F8233098472346002CF7D110BD70479D
:1016F00098BA0008014910220A60704710ED00E016
:1017000072B6404080F31188BFF36F8FBFF34F8FE5
:1017100030BF62B6BFF36F8F704700BF40B2002882
:1017200007DB00F01F02400901239340014A42F801
:101730002030704700E100E040B200280CDB00F0F0
:101740001F024009012393402030044A42F8203010
:10175000BFF34F8FBFF36F8F704700BF00E100E012
:101760004209054B53F8222000F01F00012303FA21
:1017700000F01040704700BF00E100E0013140B2CE
:10178000002808DB0901C9B200F1604000F56140A2
:1017900080F80013704700F00F000901C9B2014B37
:1017A0001954704714ED00E030BFFFF7FDBF00BFD4
:1017B00008B5144B144A22F07F029A60BFF34F8F92
:1017C000BFF36F8FD3F8882022F47002C3F888200B
:1017D000D3F8882042F4A002C3F8882003F50073F0
:1017E0004FF040425A63BFF34F8FBFF36F8F002318
:1017F000E1EE103A04F0FEFA05F046FA00F07AFA4B
:1018000004F004FB00ED00E000000008094A9368C2
:10181000986709490968D96708494B6843F08053BC
:101820004B60002383F31188BFF36F8F9368D86FE9
:10183000704700BF200E002098C3000800ED00E0B4
:1018400021498A6882F8C1E04FF030001044EFF37C
:10185000098C80E8F01F1EF0100F03D102F1800008
:1018600080EC108A102080F31288BFF36F8F174F1F
:101870004FF000668A698A603E6092F9C1E0906F1D
:101880000023936780F311881EF0100F03D000230C
:10189000E1EE103A03E002F1800090EC108AEFF3E1
:1018A000148323F0040383F31488BFF36F8F04B50C
:1018B000104600F073FABDE8044002F1300090E8F1
:1018C000F01F8CF309887047200E002004ED00E023
:1018D0001EF0040F0CBFEFF30880EFF3098081695D
:1018E00011F8021C0229FFD001B506F03CFF01BD32
:1018F00010B4017B11F0020F05D0816E603181665A
:10190000C16E6039C166A2F12004144942F8081C76
:1019100021F0010142F8081C42F8203C019B42F8EA
:101920001C3C029B42F8183C039B42F8143C4FF0CD
:10193000807342F8043C046500238367C0F8C0301C
:10194000FD2380F8C130037B13F0020F03D04FF664
:101950000853C0F8C0305DF8044B70473987000861
:10196000037B13F0020F1AD190F8C13013F0100F5F
:1019700015D0194A536B23F080435363D0F8C0301D
:1019800013F0080F25D023F00803C0F8C030836E91
:10199000603B8366C36E6033C366202070470E4A87
:1019A000536B43F080435363D0F8C03013F0080FFB
:1019B00009D143F00803C0F8C030836E60338366FA
:1019C000C36E603BC366037B43F002030373802056
:1019D00070472020704700BF00EF00E0184B9B6865
:1019E0000BB3D3F8C02012F0080F0ED0802210F1F4
:1019F000160F1AD010B49C6EA21A824207D88442E5
:101A00000BD98C420BD8002102E02022EFE7002105
:101A100039B900205DF8044B70470021F8E7012137
:101A2000F6E7986EF6E7002070479A6E8A4294BFF8
:101A30000021012109B900207047986E704700BF4E
:101A4000200E002008B504460E46154606F09DFE01
:101A5000084B9C60204600F0A1F9284686F30988CF
:101A6000002163B681F31188BFF36F8F002200233A
:101A700006F062FE200E002001B5EFF30580A0F114
:101A800010004FEAC0000449014409C99847BDE865
:101A90000140024908470000F0B70008A11A0008F9
:101AA000044B99689869884203D003494FF08052EB
:101AB0000A607047200E002004ED00E010B51446C7
:101AC000124B9A6A9A6A9B6A13F4007F0BD00F4BF1
:101AD0009A6B9B6A13F4004F05D021B10B4A936AAD
:101AE00023F400439362094B9A6A9B6A13F4807F44
:101AF00001D1064B9B6A054A936A43F47F43936284
:101B0000012106F050FE2070002010BD00ED00E025
:101B1000074B9A6A9A6A9A6A9A6A9A6A9A6A9A6A57
:101B20006FEA02426FEA12429A620020704700BFD9
:101B300000ED00E070B505461646204B9A6A9A6A99
:101B40009B6A13F0020F0CD01C4B586B9B6A13F06E
:101B5000800F25D039B1194A936A23F0800393622C
:101B600001E06FF01500154B9A6A9A6A9B6A13F0B0
:101B7000100F04D1114B9C6A14F0020404D00F4BD7
:101B80005C6814F400640ED10C4A936A43F0FF03BE
:101B900093620121284606F006FE3070204670BD93
:101BA0006FF01500DFE72946FFF718FF044600280D
:101BB000EAD080F309880224E6E700BF00ED00E0E8
:101BC00008B5844600230B701B4BD86A10F0020046
:101BD0002ED1DB6A002B2CDB174BDB6A13F0804322
:101BE00028D0DCF8183033F8022C4DF602739A42F4
:101BF0000FD0114B93F8283073B90F4B93F829305D
:101C000083B90D4B5B8D9BB29BB16046FFF780FFA4
:101C10000FE0DCF800000CE00A4601216046FFF707
:101C200089FF06E00A4601216046FFF747FF00E012
:101C3000002008BD1846FCE700ED00E070B59CB040
:101C40000C46224B5968C1F30801002383F3118825
:101C5000BFF36F8F02F07F43B3F17F4F15D102F0D6
:101C60000C03082B14D012F0080F0BD000260DF136
:101C70006F02204606F09CFD05469DF86F3053B17B
:101C80001CB070BD04460126F1E700263446EEE79D
:101C900000263446EBE76822214601A809F035FA10
:101CA0004EB1089BC3F308025AB96FEA53236FEA97
:101CB0004323089305E0089B23F4FF7323F00103FB
:101CC000089301A9284606F04AFDD9E700ED00E097
:101CD000024A536943F010035361704700ED00E07E
:101CE000EFF30880EFF3098101B57246FFF7A6FF15
:101CF00001BD00BF002206E002F00F01094B0B44BA
:101D0000102119760132542A0ADC53B2002BF3DB7E
:101D100003F1604303F56143102183F80013F1E7F9
:101D2000704700BFFCEC00E0102080F311880848E9
:101D30004FF40261401880F30988EFF31480022108
:101D4000084380F31488BFF36F8FFFF731FD000065
:101D50008025002008B5084B9B68834202D004F020
:101D600059FF08BDEFF30583002BF8D0034A5368F1
:101D700043F080535360F2E7200E002000ED00E0B6
:101D800008B5034B034A0121034806F097FD08BD3F
:101D9000008002200000002044BE000810B5044668
:101DA000FFF7DEFD0346A26E121A0448026043608C
:101DB000034B8360012106F085FD10BDD40800208F
:101DC00000000B15084AC2F898000B6823F01F03A7
:101DD000034343F01003C2F89C308B6843F00103C7
:101DE000C2F8A030704700BF00ED00E010B5034C12
:101DF0000123227806F03AFD207010BD800E0020ED
:101E000008B50023094A127806F030FD10F1160FCC
:101E10000AD0034606E0064AC2F898300021C2F80C
:101E2000A0100133072BF6DD08BD00BF800E002097
:101E300000ED00E0044B0522C3F89420BFF34F8F60
:101E4000BFF36F8F704700BF00ED00E0BFF35F8FFF
:101E5000024B0022C3F89420704700BF00ED00E061
:101E600038B50E4B1D68082D15D8FFF7EFFF00247D
:101E700009E00A4B596804EB4402930019442046D8
:101E8000FFF7A0FF0134A542F3D8054B1D70FFF703
:101E9000D1FF002038BD4FF0FF30FBE788BE0008BF
:101EA000800E002070B506460D46002400E0013487
:101EB000AC4208DA054B1B68984730550A2801D018
:101EC0000D28F4D10134204670BD00BF6001002010
:101ED000F8B505460F46002404E0094B1B6830782E
:101EE00098470134BC4208DA2E192B5D0A2BF4D135
:101EF000034B1B680D209847EFE73846F8BD00BF3D
:101F00006401002008B505220249012006F0EBFC1F
:101F1000FEE700BF50BE00080246084B1968084B98
:101F2000C8180A44C3F1005303F520339A4202D281
:101F3000024B1A6070474FF0FF307047E0080020F6
:101F40002032002008B51D220449022006F0CBFCF7
:101F5000404080F311884FF0030002DF58BE0008B4
:101F6000F0B583B005460C461646144B186848B1C8
:101F7000A2B283681B68294698470346C00F07D161
:101F800003B0F0BD0E4803F061FE0C4B1860EFE7A4
:101F900056B11846F4E703F0A3FC01903A4601A9B4
:101FA000A81909F0B2F83E44A64204D2A71B042F98
:101FB000F1D90427EFE70020E2E700BFE4080020A2
:101FC000A8BE000870B504460D46166902E001225D
:101FD0000CE00134AC4217DA1F2CFADC0123A340D9
:101FE0000A4A526933EA0202F1D00022002AF0D0F4
:101FF000064A536156F83430002BEAD006EBC4028F
:10200000516820469847E4E770BD00BF00040140D6
:1020100008B501238340044A11680B431360034B46
:102020001856FFF77BFB08BD00040140CCBE00083A
:102030001F2806DC01238340024A106820EA0300BF
:102040001060704700040140032932D8DFE801F036
:10205000020F1B27012303FA00F0164B9A6822EAAD
:1020600000029A60DA6822EA0000D8607047012313
:1020700003FA00F00F4B9A6802439A60DA6822EA8A
:102080000000D8607047012303FA00F0094BDA68BA
:102090000243DA609A6822EA0000986070470123E0
:1020A00003FA00F0034B9A6802439A60DA6810431F
:1020B000D860704700040140074B53F830303BB9FB
:1020C000054B43F8301003EBC0004260002070471E
:1020D0006FF00F00704700BFE8080020034B00229C
:1020E00043F8302003EBC0035A607047E808002033
:1020F00086B00B68062B48D8DFE803F00410263CB6
:1021000031471B004B68224A916C19439164926CD1
:1021100013400093009B002006B070474B681C4A98
:10212000D16C1943D164D26C13400193019B002000
:10213000F2E74B68164A116D19431165126D134091
:102140000293029B0020E7E74B68114A916D194307
:102150009165926D13400393039B0020DCE74B686D
:102160000B4AD16D1943D165D26D13400493049B82
:102170000020D1E74B68064A116E19431166126EB2
:1021800013400593059B0020C6E76FF08500C3E769
:10219000001002400B68062B35D8DFE803F0040C72
:1021A0001C2C243414004968184A936C23EA010358
:1021B0009364002070474968144AD36C23EA0103F2
:1021C000D364002070474968104A136D23EA010365
:1021D00013650020704749680C4A936D23EA010398
:1021E0009365002070474968084AD36D23EA0103CC
:1021F000D365002070474968044A136E23EA01033F
:102200001366002070476FF0850070470010024091
:1022100070B50C4615460D4B1E680121304606F080
:10222000F9FB2368062B0ED8DFE803F00404070A45
:10223000070D04002E60002070BD28600020FBE721
:1022400028600020F8E76FF08500F5E71C03002008
:10225000104B1B6813F4806F09D10E4A136843F4C6
:10226000807313600B4B1B6813F4806FFAD0094A1C
:10227000936823F0030343F001039360936823F012
:10228000F00318439060034B9B6803F00C03042B8E
:10229000F9D170470010024010B586B003A806F0CF
:1022A000B4FB00F01DF8684606F0B7FB0020FFF70E
:1022B000CFFF0A4C236823F08073236003A968468C
:1022C00003F05CFC236823F480332360236823F04D
:1022D00001032360002006B010BD00BF00100240C3
:1022E00082B0064B9A6D42F080529A659B6D03F066
:1022F00080530193019B02B0704700BF0010024061
:102300002DE9F041144643681E69481E5A6982420D
:1023100016D99F6900EB40054FEAC50807EBC505D4
:1023200000F010FA084B1B5C1E4473689BB263609C
:1023300017F808306370AB7923700020BDE8F08196
:102340006FF01500FAE700BFF4BE0008F8B5426868
:10235000966901EB4103DB00183B1E4417694C1ED4
:102360005369A34214D90546204600F0EBF90A4B05
:102370001A5CBB5823F00203BB502146384606F0D6
:1023800069FC2146284606F0E0FB0020B071F8BD4C
:102390006FF01500FBE700BFF4BE00082DE9F84F11
:1023A0001F46406806694C1E4369A34264D99046A3
:1023B000D0F818A004EB44054FEAC50B0AEBC5059D
:1023C0002146304606F046FC8146002857D15AF88F
:1023D0000B10012907D002292CD059B36FF0150931
:1023E0004846BDE8F88F204600F0ACF9DFF894A02D
:1023F0001AF800303344C3F80C80204600F0A2F9EC
:102400001AF8003033449F602B792BB3204600F03C
:1024100099F9AB680A9AB2FBF3F31A4A115C31449A
:102420004A68120C120413434B602146304600F0F8
:10243000F3F9D5E7204600F085F9DFF848A01AF84F
:1024400000303344C3F80880204600F07BF91AF8C6
:1024500000303344DF60D7E7204600F073F9EB68C3
:102460000A9AB2FBF3F3074A115C31444A68120C32
:10247000120413434B60D8E76FF01509B0E76FF013
:102480000F09ADE7F4BE00082DE9F04F8DB0064608
:102490000D461446D0F804B0DBF8189001EB410764
:1024A000FF00183F09EB0708DBF810A001A808F0AF
:1024B000D3F9638803F4FE63B3F5FE6F68D0013D82
:1024C000DBF81430AB4240F2F18098F80630002B74
:1024D00040F0EF802946504606F0BCFB002840F053
:1024E000EB802946304606F030FB22695369B3F58C
:1024F000803F80F0E480E188A388994240F0E28048
:10250000042B04D0022B02D0012B40F0DE80137F7D
:10251000C3F38012B2EBD31F40F0DA80012388F8B6
:102520000630A369C8F814302388C3F3C21349F8EE
:1025300007306269C8F81020A288C8F80820E2882D
:10254000C8F80C20226911685068012B2DD0019128
:10255000029020680BA9C0F3833006F066FA061ECD
:1025600012DB208803A9C0F3C21006F079FA061E18
:102570000ADB2388C3F3C213012B00F08580022BF2
:1025800017D0B3B16FF0150630460DB0BDE8F08F2F
:10259000012388F8063088F80530A369C8F814309C
:1025A0006369C8F810300026EEE702915368019382
:1025B000CFE7236993F81CB0CBF30110CBF3810B69
:1025C00006A906F060FA061EDEDB05A9584606F0ED
:1025D0006BFA061ED8DB23691B7F13F0400F5BD01C
:1025E0002023049359F80730022B14BF0023012342
:1025F00088F80430A38893FAA3F2B2FA82F20BB9F6
:102600004FF0FF32344B53F822300793E38893FAAC
:10261000A3F2B2FA82F20BB94FF0FF322F4B53F80C
:102620002230089398F80430002B38D023695B6976
:10263000A288B3FBF2F30993237803F07F030A9394
:10264000284600F07FF8014601AA504603F07EF9C3
:10265000284600F077F8224B1A5C5AF8023043F013
:1026600002034AF8023023691B7F13F0400F8BD01E
:10267000284600F067F81A4B1A5C5AF8023043F00B
:1026800004034AF802307FE7236993F81CB0CBF3C8
:102690008100CBF3011B93E700230493A2E7236996
:1026A0005B69E288B3FBF2F30993C5E76FF01506A7
:1026B0006AE76FF00F0667E76FF00F0664E76FF0E9
:1026C000150661E76FF015065EE76FF015065BE72C
:1026D0006FF0150658E700BF44BF000838BF000878
:1026E000F4BE000870B505464468154808F0D2F8F5
:1026F00058B1134883681B68214698470646DEB9DF
:10270000A3682846984700230AE06FF01206F6E710
:10271000A26903EB430102EBC10200219171013375
:1027200062699342F4D32A69002313602A695360D3
:102730002A699360304670BD6FF00406FAE700BF67
:10274000B8B60008014B53F820007047E4BF0008FA
:1027500008B5024B53F82130984708BDC8BF0008A0
:1027600008B5024B53F82130984708BDACBF0008AC
:1027700008B5044B53F821309847003818BF0120A2
:1027800008BD00BF90BF000808B5044B53F82130C6
:102790009847003818BF012008BD00BF74BF00086B
:1027A00008B5024B53F82130984708BD58BF0008C0
:1027B00038B504460D460846FFF7C4FF084B1B5CBE
:1027C000E35813F0020F06D029462046FFF7DCFF3E
:1027D00018B1012000E0002038BD0020FCE700BF58
:1027E00050BF000838B504460D460846FFF7AAFF5B
:1027F000084B1B5CE35813F0040F06D02946204613
:10280000FFF7B6FF18B1012000E0002038BD00201E
:10281000FCE700BF50BF000810B504460846FFF7AC
:1028200091FF034B1A5CA35843F00103A35010BD62
:1028300050BF000810B504460846FFF783FF074B5A
:102840001B5CE25822F00102E250E35813F0010F42
:1028500002D06FF00A0010BD0020FCE750BF000856
:102860004A4201F0030302F0030258BF534204330B
:102870009A000F2393400A46002919DB43EAA2037A
:102880005FFA83FC0CF102010B4A52F821101A0C7A
:1028900021EA134392FAA2F262B1B2FA82F200FA8A
:1028A00002F21A430CF1020C034B43F82C20704740
:1028B000CA1CE3E72022F2E700000140424200F098
:1028C000030302F0030258BF534204339A000F235C
:1028D00093400246002810DB43EAA200C3B2023351
:1028E000084A52F82320030C02EA104093FAA3F39B
:1028F0002BB1B3FA83F3D8407047C21CECE7202316
:10290000F9E700BF0000014010B5446869B10C341C
:102910000D4807F0BFFF28B10B4883681B682146AC
:10292000984710BD6FF01200FBE70C34064807F023
:10293000B1FF28B1044883685B6821469847F0E7F7
:102940006FF01200EDE700BFB8B6000870B582B0B6
:1029500006460D460D4B93E8030002AB03E9030066
:102960000B4807F097FF48B1094883681B68694620
:10297000984704462CB1204602B070BD6FF0120497
:10298000F8E729463046FFF76BFFF4E734BB000851
:10299000B8B60008F8B50C46114647680269B1F5AB
:1029A000005F1FD01D46B1F5804F34D01D49204631
:1029B000FFF782FB064688BB2146B868FFF7C6FFD3
:1029C000B5F5802F23D0B5F5C02F22D0B5F5003F47
:1029D0001BD031462046FFF737FB2046FFF718FB98
:1029E0003046F8BD2046FFF769FFBB68984201D02A
:1029F0000026F5E72046FFF71BFB2046FFF76EFB9E
:102A000000212046FFF720FBF2E70221E2E7012147
:102A1000E0E70321DEE76FF08506E1E76FF00F06E0
:102A2000DEE700BFFF8D00082DE9F0418AB00D46BA
:102A3000D0F80480066902AC6A4F0FCF0FC497E844
:102A40000F0084E80F00D8F8084033689D4200F07A
:102A5000BD80AB88C3F34512082A02D0102A40F08B
:102A6000B78013F4004F14D1636823F01003636040
:102A70005D4807F00FFF88B15B4B9B68DB6883B153
:102A800001AA4146584898470028C0F2A480012373
:102A90000BE0636843F010036360E9E76FF0120036
:102AA000F2E76FF05700EFE70133082B04DC019ADF
:102AB000DA4029689142F7D3082B00F38F8022680F
:102AC00022F040022260013B0AAA02EB830353F882
:102AD000203C226822F0380213432360AB8813F0B5
:102AE000020F40D0236843F002032360AB8813F049
:102AF000040F3DD0236843F001032360236823F4CF
:102B000044432360AB8813F0100F36D0236843F0A2
:102B100080032360236823F400532360AB68002BF9
:102B200030D0236843F400732360636823F0040308
:102B30006360AB8813F0010F3CD0236823F48273E9
:102B40002360AB88C3F34513082B38D0636843F484
:102B500070636360636843F4805363603560002092
:102B60000AB0BDE8F081236823F002032360BDE7CB
:102B7000236823F001032360C0E7236823F0800368
:102B80002360C7E7AB8813F0010F08D0236823F454
:102B900000732360636823F004036360C9E723685C
:102BA00023F4007343F480232360636843F0040339
:102BB0006360BEE7236843F482732360C1E7636800
:102BC00023F4706343F4E0636360C3E70020C7E766
:102BD0006FF08500C4E76FF00400C1E76FF01500E7
:102BE000BEE700BF3CBB0008B8B600082DE9F041C5
:102BF0000D461646D0F80480046904F1A40720228B
:102C00000021384608F08FFAC4F8B860002D38D09B
:102C1000C4F8A85094F8C630002B3DD094F8C030CA
:102C20006FF3051384F8C030D8F808300C33C4F8BB
:102C3000A43094F8C530BBB394F8C0306FF383036D
:102C400084F8C030D4F8C82094F8C13062F303038C
:102C500084F8C130C4F89870C4F89C40D4F880005F
:102C600083681B6804F18802D4F88410984730B94F
:102C7000D4F88000D4F8841083689B689847BDE836
:102C8000F0810D4BC4F8A83094F8C030022262F3F2
:102C9000051384F8C030C7E794F8C030022262F30D
:102CA000051384F8C030BFE794F8C030022262F305
:102CB000830384F8C030C5E77C0A00202DE9F04189
:102CC0000D461646D0F80480046904F1F00720226E
:102CD0000021384608F027FAC4F80461002D39D0E5
:102CE000C4F8F05094F81131002B40D094F80C3116
:102CF0006FF3830384F80C31D8F808300C33C4F830
:102D0000F43094F81231002B39D094F80C316FF371
:102D1000051384F80C31D4F8142194F80D3162F3C2
:102D2000030384F80D31C4F8E470C4F8E840D4F823
:102D3000CC0083681B6804F1D402D4F8D010984703
:102D400030B9D4F8CC00D4F8D01083689B68984789
:102D5000BDE8F0810E4B00221A60C4F8F03094F800
:102D60000C31022262F3830384F80C31C4E794F837
:102D70000C31022262F3830384F80C31BCE794F82F
:102D80000C31022262F3051384F80C31C3E700BF53
:102D90007C0A00202DE9F04182B0044605694768AD
:102DA000514807F077FD58B34F4883681B68394690
:102DB00098478046B8F1000F40F08D8001AA0021AD
:102DC000F86807F006FD002805DB019B0022197951
:102DD000186807F017FD002869DB3B692046984713
:102DE000D5F8800018B107F055FD002876D0D5F849
:102DF000CC0018B107F04EFD002872D0AC6813E08B
:102E00006FF01208D6E723F4805213F0010F26D09A
:102E1000012303FA01FE3B6843EA0E033B6033687B
:102E20009847002824DB0834AB68EA6803EBC20348
:102E30009C421CD2206807F02DFD00283AD0206863
:102E40002179637943F4B0538668076913F4406FBE
:102E5000D9D013F0010FD6D083F44063D3E7012318
:102E600003FA01FE3B6823EA0E033B60D7E74046C6
:102E700000281CDB2B68BBB19B68ABB11A689AB108
:102E8000986804F071F82B689B6818681A790369D0
:102E900019680123934019420FD143467BB10121A8
:102EA00091408368DB689847AB6973B1404602B0D4
:102EB000BDE8F0816FF01200DAE70123EEE70121AF
:102EC000914083681B699847EEE76B6005F110003D
:102ED00003F02AF9EAE76FF00400E8E76FF0120068
:102EE000E5E76FF01200E2E7B8B6000808B502485F
:102EF00003F0CAFA08BD00BF9802002008B508F028
:102F000060F80A220023FDF79BF9024B1B68C01AE8
:102F100008BD00BF800A002008B5024808F055F837
:102F200008BD00BFF803002000B583B0830F820006
:102F3000121843F1000392185B4100200021CDE9F3
:102F40000001034804F074F803B05DF804FB00BF0F
:102F5000F803002008B508F034F80A220023FDF732
:102F60006FF9014B186008BD800A0020014B1868FA
:102F7000704700BF800A002070B5044600F1440588
:102F80000223BFF35B8F55E8002F012A03D145E8E8
:102F900000310029F7D1BFF35B8F0CBF012600265B
:102FA0000ED1084BDB6A984700236360BFF35B8F49
:102FB00055E8002F45E800310029F9D1BFF35B8FB8
:102FC000304670BD34C1000810B50648446800237F
:102FD0004361FFF7D1FF20B11CB10021204604F06E
:102FE00023FB10BD840A002010B5064B5C68DB682B
:102FF00013B1044A106898471CB10021204604F020
:1030000013FB10BD840A002010B505484468FFF783
:10301000B3FF20B11CB10021204604F005FB10BD18
:10302000840A0020F0B583B017461D46244C66681C
:10303000A4685CB1009313460A4601462048006824
:10304000A047204B5B6B0020984737E01E4B0222C5
:10305000BFF35B8F53E8004F012C04D143E8002CF1
:10306000BCF1000FF6D1BFF35B8F27D1443BDB6C83
:103070001A788A4200D91970114CE36C1A7801460B
:10308000A06C08F042F8236D03B11F800C4B5B6D00
:1030900003B11D700B4BDB6A9847094B0021596047
:1030A0004433BFF35B8F53E8002F43E80010002840
:1030B000F9D1BFF35B8F304604F0B6FA03B0F0BD30
:1030C000840A002034C10008C80A002070B50D46EB
:1030D0000F490120BFF35B8F51E8004F002C03D153
:1030E00041E80006002EF7D1BFF35B8F0CD14439C5
:1030F0004B60084E736DD4B221469847B36A21469F
:1031000028469847002070BD6FF00F00FBE700BF16
:10311000C80A002034C1000870B58EB014460AAA4F
:103120000A920B9200230C930D9305930693079339
:10313000089309939DF82130012565F304038DF868
:1031400021300992214B5B6B002B3BD0134622466A
:10315000FFF7BCFF002823DB1D4B5E6A1B4903956C
:10316000E4B2029491F83F3001938B8F009391F871
:103170003A3091F8392091F838102846B04700FAD3
:1031800005F1C0F34173C200521843F100039218D5
:103190005B41294605A804F09BF9002802DB0020CA
:1031A0000EB070BD0948FFF7E7FE08B10020F7E751
:1031B0004FF0FF324FF0FF33294605A804F088F99D
:1031C0000020EDE76FF01500EAE700BF840A002059
:1031D00034C1000830B58DB08DF8072008AA0892D8
:1031E000099200230A930B93039304930593069388
:1031F00007939DF81930012060F304038DF819300E
:103200000792214BBFF35B8F53E8002F002A03D1B5
:1032100043E80004002CF7D1BFF35B8F30D1443B6F
:1032200000249C6008AA5A6099640DF10702DA64D0
:10323000129A1A65139A5A65144D6B6DFF219847BF
:103240006B6B20469847DDE91023012103A804F0A9
:103250003FF9041E04DB9DF8074020460DB030BD49
:103260000B48FFF789FE0028F7D14FF0FF324FF0EF
:10327000FF33012103A804F02BF99DF80740ECE788
:103280006FF00F04E9E700BFC80A002034C100084E
:10329000840A00201346FAB103B159B310B501B343
:1032A000174A0120BFF35B8F52E8004F002C04D176
:1032B00042E8000CBCF1000FF6D1BFF35B8F1CD1CC
:1032C000443A9160D3600F4C636DFF219847636B64
:1032D00000209847002010BD0029DDD06FF01500B8
:1032E00070470948FFF748FE08B10020F3E76FF088
:1032F0001500F0E76FF0150070476FF00F00EAE778
:10330000C80A002034C10008840A002070B58AB0C1
:103310000C462B4B0122BFF35B8F53E8001F0029A3
:1033200003D143E800200028F7D1BFF35B8F43D1DE
:10333000244BDB6820689847637BEBB9E27A002A6C
:1033400038D0A17A1F4B9D69012009900023089372
:10335000079306930593049103920A22029222890D
:1033600001920093A37962792179A8471648FFF763
:1033700003FE00200AB070BD144D20686168A26889
:10338000E3680FC50F4BDD696379A1794FF47A6269
:103390000892002207920692059201200490E67A94
:1033A00003962689029601910093237994F90C10D3
:1033B000A847DBE70021C5E76FF00F00DAE700BFA1
:1033C000C80A002034C10008840A0020B80A00207E
:1033D00030B58BB0084611461D4606AB06930793E1
:1033E000002408940994019402940394049405948D
:1033F0009DF811C0012464F3040C8DF811C00593ED
:10340000214BBFF35B8F53E8002F002A04D143E820
:10341000004CBCF1000FF6D1BFF35B8F31D1443BC0
:1034200006AA5A60194A5A61194BDB6B2A4698471B
:103430002DB14FF4FA6202FB05F1002301E00021F7
:103440000B468A00521843EB830392185B4101211B
:1034500001A804F03DF8002802DB00200BB030BDCD
:103460000C48FFF789FD18B100200A4B5861F5E7B9
:103470004FF0FF324FF0FF33012101A804F028F88C
:10348000F2E76FF00F00E9E7C80A0020C92F000833
:1034900034C10008840A002089B110B584B0094BFA
:1034A0005C6A01200390D2B20292CB7A01930B891D
:1034B00000938B794A790979A04704B010BD6FF069
:1034C0001500704734C1000811B310B508461549FE
:1034D0000124BFF35B8F51E800CFBCF1000F04D192
:1034E00041E8004EBEF1000FF5D1BFF35B8F12D162
:1034F0000D490C6990F804C00C4951F82C10006873
:10350000A04704460A48FFF737FD38B1204610BDF2
:103510006FF0150070476FF00F00F8E76FF01500BF
:10352000F5E700BFC80A002034C1000820C1000828
:10353000840A002038B50F4B03F144020024BFF386
:103540005B8F52E8001F42E80045002DF9D1BFF320
:103550005B8F1860084A1A61084A9A61084A1A6221
:10356000DA61084D2A6803F110009047EB6A98472A
:10357000204638BD840A00200930000825300008A4
:10358000E92F000834C1000808B5044BC01A001127
:10359000034B53F820300020984708BD300B002023
:1035A000A802002010B58AB08DF807000DF10700C1
:1035B0000690012007900892099306AB049302231A
:1035C000059349B10B49486883681C68002304AA25
:1035D0000831A0470AB010BD06AB02930223039343
:1035E0000449486883681C6802AB04AA0831A047F4
:1035F000F0E700BF0C0B002070B5054692FAA2F66A
:10360000B6FA86F60AB94FF0FF36002400E001341E
:10361000032C13D8231D0A4A02EB83035B68AB42D9
:10362000F5D1084B03EBC4031B79B342EFD1A01CC7
:1036300002EB0010043002F027FFE8E770BD00BF86
:103640000C0B0020A0C1000808B51A4B18680369CC
:103650001B6813F4807F1DD10123EBB18368DB6805
:103660004FF4807198470A20002103F0A5FA114B0E
:10367000186803691B6813F4807F13D100239BB182
:103680008368DB684FF4807198473C20002103F089
:1036900093FA08BD0023E0E783681B694FF480714B
:1036A0009847E0E70123EAE783681B694FF48071DC
:1036B0009847EAE70C0B0020F8B5054600243EE0E9
:1036C00023F4805213F0010F6ED0012303FA01FCA2
:1036D000336843EA0C0333603B68984704EB4401CA
:1036E000394B03EB8101394B03EBC4031E790123F2
:1036F000B340374A4A608B60231D364A02EB83038E
:1037000058688368DB69002B56D00122984700284F
:1037100058DB231D2F4A02EB830358688168036935
:103720001A680123B3401A4249D14FF4B8228F6975
:1037300002F4C02302F4A0323146B8470134032C0E
:1037400040D855F82430002BF8D0204B53F83400E3
:1037500002F07CFA231D1F4A02EB8303586088B3F2
:103760001646A01C02EB00101B49043007F0B9F903
:10377000231D06EB83067068144B03EBC403197911
:103780005B7943F4002343F480738768066903F48C
:103790008052002A94D013F4406F91D013F0010F9F
:1037A0008ED083F440638BE7012303FA01FC336876
:1037B00023EA0C0333608FE76FF08500A7E74FF42F
:1037C0007032B4E7F8BD00BFDC0A0020A0C10008D9
:1037D000F93500080C0B00208935000830B583B09E
:1037E0000446334802F032FA324B5860002853D076
:1037F0004FF480729A81304A9A600022DA812F4811
:1038000002F024FA2E4B1860002848D00C221A71BE
:1038100001225A7100229A602648036141F607236B
:103820000822284906F0E3F9054610B1284603B0FE
:1038300030BD4FF47A70002103F0BEF91D4B1868BB
:1038400003691B6813F4807F1ED12B46F3B1836894
:10385000DB684FF4807198474FF47A70002103F0D1
:10386000ABF901220DF10701422006F001FA002810
:1038700018DB06F0F6F9002817DB2046FFF75AFEA2
:103880000028D3DA0546D1E70123DFE783681B6907
:103890004FF480719847DFE76FF01505C6E76FF0CA
:1038A0000405C3E76FF00405C0E76FF00405BDE74A
:1038B000CCC000080C0B002020A1070028C0000885
:1038C000700B002020C0000810B582B00B4B986927
:1038D000046983685B6801A99847034618B92168A1
:1038E000019A4A40019213B9019BC3F38023002B34
:1038F00002DC002002B010BD0120FBE70C0B002011
:103900000D4B1A685369516991B110B41968046874
:103910008C4208D91A465B6951690029F6D1506179
:103920000023436101E0506143615DF8044B70473F
:1039300050610023436170477C0B0020054B1B68DE
:1039400000E05B691BB18342FBD10120704700207E
:10395000704700BF7C0B002008B5054B1B680BB1FE
:1039600000225A724361024B186006F0EEF908BD5E
:103970007C0B002010B582B0044601A806F027F9A0
:10398000F4B12046FFF7DAFFD0B963682360012362
:10399000237200236372114B1B68ABB1FFF7AEFAC1
:1039A0002368184420600D4B1B681B68984211D295
:1039B0002046FFF7D1FF01A806F013F902B010BDB1
:1039C00001A806F00EF9F9E7FFF7C4FA2046FFF761
:1039D000C3FFF0E72046FFF793FFECE77C0B0020E6
:1039E00070B5FFF7C3FA0546FFF7B4FAA0EB050C74
:1039F0001C4B1E686EB1324602E00021196052690C
:103A0000536933B119686145F7D92C1A21441960FB
:103A1000F5E746B17269134B1A6000233372F368FD
:103A2000A3B1306998470F4B1B688BB11C68FFF737
:103A300065FA84420CD20B4A13685969116000225E
:103A40001A72DA681AB118699047ECE7FEE7FEE7E8
:103A5000044B186808B1437A03B170BD06F075F9DC
:103A6000FBE700BF7C0B002010B582B0044601A824
:103A700006F0ADF81B4B1A685AB154B100232372FB
:103A8000A2420AD013462BB3A34220D01A465B6948
:103A9000F9E701A806F0A5F81FE0537A73B10023F7
:103AA0005372506920B10F4B186006F04EF911E0C7
:103AB000FFF732FA0B4B00221A600BE0536913B187
:103AC000084A136006E0074B00221A6002E05B69B7
:103AD0002BB1536101A806F084F802B010BD002399
:103AE0005361F7E77C0B00200849A1FB0032120B61
:103AF00043F6095303FB120041F6846303EB0023F2
:103B0000A1FB03131B0B03EB0220704783DE1B4357
:103B1000002309E0FEE7124B03EBC10108795DF8D1
:103B2000044B70470133DBB2142B17D819460C4AEB
:103B300052F833208242F5D810B45A1C084C54F87D
:103B400032208242E7D80133DBB2142BE2D8194687
:103B5000034A52F833208242F5D8EEE7FEE700BF71
:103B6000E0C10008012806D0022806D008B10020D4
:103B7000704703487047034870470348704700BFC9
:103B800048E8010090D0030020A10700064B93F8FD
:103B9000E1303BB9044B93F80C311BB9024B0122C5
:103BA00083F80C21704700BFB40C0020014B93F840
:103BB000E0007047B40C002038B50546FFF794FFCD
:103BC0000446094BC3F8E450C0F30741062006F051
:103BD000B3F9C4F30721072006F0AEF9E1B20820DB
:103BE00006F0AAF938BD00BFB40C002008B5144B8C
:103BF00093F8E130012B00D008BD122006F0A8F99F
:103C000010F0010F0DD00521122006F095F90D4B93
:103C10001B68002BF0D09B69002BEDD0012098474A
:103C2000EAE70421122006F087F9064B1B68002BF7
:103C3000E2D09B69002BDFD000209847DCE700BF73
:103C4000B40C0020800B002038B53A4B93F8E030DC
:103C5000012B02D0022B51D038BD364B93F8E13006
:103C6000C3B1012BF8D1334B93F82F31002BF3D094
:103C70000221122006F060F92F4B1B68002BEBD0BD
:103C80005C69002CE8D01C2006F062F900F03F00CF
:103C9000A047E1E7274B9B6E5BB3264B93F80C31B3
:103CA000002BD9D0234B93F80D31002BD4D12348CE
:103CB000FFF7DAFE1F4C012384F80D31112006F0C6
:103CC00047F943085B4284F80E311B2006F040F9A7
:103CD00005021C2006F03CF9284306F080F8C4F8E1
:103CE00010010C2006F034F9C0F3471084F81401D9
:103CF000B2E7104B012283F80C21CEE70D4B93F86D
:103D0000E130012BA8D10B4B93F82F31002BA3D01E
:103D10000221122006F010F9074B1B68002B9BD0E4
:103D20005C69002C98D01C2006F012F900F03F00CE
:103D3000A04791E7B40C0020800B0020840B0020EA
:103D400008B53E2006F004F93F2006F001F94B4B80
:103D500093F8E030012B02D0022B62D008BD474B14
:103D600093F8E130CBB1012BF8D1FFF7ADFD00287E
:103D7000F4D04348FFF778FE8021122006F0DCF8EB
:103D80003E4B002283F8E0203E4B1B68002BE5D021
:103D9000DB68002BE2D09847E0E7FFF795FD0028AD
:103DA000DCD03948FFF760FE344BB3F816315BB90D
:103DB000324BB3F818313BB9304B93F8FE30EBB9C6
:103DC0000121324806F078F82C4BB3F81611B3F8FD
:103DD0001821881A93F81A31984216DB591EC9B275
:103DE0002B48104406F068F8244A92F81A31B2F8C9
:103DF00018110B44013BA2F81831AFE7322006F04E
:103E0000A7F81E4BA3F81601DEE7891AC9B22048AD
:103E1000104406F051F8194BB3F81621A3F81821F5
:103E20009CE7164B93F8E130002B97D1FFF74CFD40
:103E3000012893D0114BB3F81601B3F81821A0EB69
:103E4000020C93F81B118C450CDD1148104406F050
:103E50003AF80A4B93F81B21B3F818110A44A3F857
:103E600018217BE7811AC9B20948104406F02BF8E3
:103E7000024BB3F81621A3F818216FE7B40C002009
:103E80009C0B0020800B0020840B0020CA0D00201A
:103E9000B40B002010B582B03E2006F059F83F2048
:103EA00006F056F800238DF80730B14B93F8E03058
:103EB000012B04D0022B00F03F8102B010BDAC4BAF
:103EC00093F8E13043B3012BF7D14021122006F0E3
:103ED00033F8122006F03CF88DF807009DF8073003
:103EE00013F0200F00F0BD802021122006F024F8EE
:103EF0009F4B93F832311BB99D4B002283F8E02091
:103F00009C48FFF7B1FD9C4B1B68002BD5D01B696B
:103F1000002BD2D09847D0E7954B93F800310BBBDC
:103F2000934BB3F8161100295ED1B3F81831002B6A
:103F30005AD18F4B93F8FE30002B4ED101218F4880
:103F400005F0BAFF8A4CB4F81831B4F81611C91A42
:103F5000C9B28B48184405F0AFFFB4F81631A4F885
:103F600018314EE03F2005F0F3FF8DF807009DF873
:103F7000073013F0020FD3D10B213E2005F0DCFFF8
:103F800010213F2005F0D8FF7A48FFF76DFD784BF0
:103F900093F80231BBB97B48FFF766FD744B0022F2
:103FA00083F8E020744B1B6813B11B6903B1984779
:103FB0006F4B002283F80C2183F80D21A3F8182100
:103FC000A3F8162179E70D2005F0C2FF40F040016B
:103FD000C9B20D2005F0B0FFE4E7322005F0B8FFCC
:103FE000634BA3F81601ADE7614CB4F81831C91A58
:103FF000C9B26348184405F05FFFB4F81631A4F85D
:1040000018315C48FFF730FD594B93F80231F3B992
:10401000574B002283F8E0205A48FFF725FD564B06
:104020001B684BB19C683CB15149002391F90E21AA
:10403000B1F816115248A0474D4B002283F80C21CD
:1040400083F80D21A3F81821A3F8162135E70D20D8
:1040500005F07EFF40F04001C9B20D2005F06CFF75
:10406000DDE7192005F074FF43B202339B10404C8A
:1040700084F83C311A2005F06BFF03B294F93C211F
:10408000002A39DB3A4AD2F8E4103F4A91424CD92F
:1040900000EB23109D38364BA3F83E01132005F0AA
:1040A00057FF334C84F84001102005F051FF0146C2
:1040B0000D2005F041FF94F84011314805F0FCFE59
:1040C00094F8323113B9002284F8E0202948FFF730
:1040D000CBFC294B1B68002B3FF4EFAE9C68002CF7
:1040E0003FF4EBAE224991F93C31B1F93E2191F810
:1040F00040112348A047E0E6D4F8E44022498C422E
:1041000009D900EB231392B212FA83F39D3B184AAC
:10411000A2F83E31C2E700EB231392B212FA83F306
:10412000A43B134AA2F83E31B8E700EB2310A438B1
:104130000F4BA3F83E01B1E71448FFF795FC0C4B79
:1041400093F8E130012B0ED0094B002283F8E020D8
:10415000094B1B68002B3FF4B0AE1B68002B3FF4EB
:10416000ACAE9847A9E60821122005F0E5FEEBE782
:10417000B40C00209C0B0020800B0020CA0D0020F6
:10418000B40B0020840B002040DD4A1FF80D0020F6
:1041900038B5092005F0DCFE0546062005F0D8FEFE
:1041A0000404072005F0D4FE44EA0024082005F0AA
:1041B000CFFE204305F013FE04460021092005F040
:1041C000BBFE3B2005F0C4FE40F04001C9B23B20DD
:1041D00005F0B2FE3B2005F0BBFE10F0200FF9D138
:1041E0000C48FFF7E9FC3B2005F0B2FE40F040012F
:1041F000C9B23B2005F0A0FE3B2005F0A9FE10F05F
:10420000200FF9D12946092005F096FE2046FFF738
:10421000D3FC38BD00A1BC3308B50A48FFF724FC25
:104220000948FFF721FC0948FFF71EFC002005F0B4
:104230009BFE002005F01AFD054B002283F8E020CC
:1042400008BD00BF9C0B0020F80D0020840B00204F
:10425000B40C002008B50848FFF706FC0748FFF734
:1042600003FC0748FFF700FC012005F07DFE054B2D
:10427000002283F8E02008BD9C0B0020F80D0020F0
:10428000840B0020B40C002010B504462948FFF729
:10429000EBFB2146284805F077FD284B93F8E130E9
:1042A00063B1012B23D0254B022283F8E020224862
:1042B000FFF760FB032005F057FE10BD402005F01E
:1042C00047FE00F00301402005F036FE412005F0D6
:1042D0003FFE00F03E01412005F02EFE352005F0A6
:1042E00037FE00F03F00154B83F81A01DBE7134B54
:1042F00093F82F3173B1F521112005F01DFE4020F8
:1043000005F026FE00F0330141F04001402005F0A9
:1043100013FEC8E7F721112005F00EFE402005F03E
:1043200017FE00F03F0141F04001402005F004FE7F
:10433000B9E700BF9C0B0020F80D0020B40C002052
:1043400030B583B004468DF80710444B93F8E13044
:1043500033B1012B3AD00020FFF796FF03B030BDF8
:104360003E4B0022A3F818219DF80710A3F8161160
:1043700093F8FE30EBB901210DF1070005F0A3FD24
:104380009DF80720531EDBB23F2B16D8334B83F822
:104390001B21324D95F81B11204605F094FD95F830
:1043A0001B31B5F818211344A5F81831D5F80401CC
:1043B000D2E7322005F0C0FDE2E72146284805F0AB
:1043C000B9FC264B202283F81B21E2E7234B93F80C
:1043D000313153B3332005F0BBFD00F0BE01332073
:1043E00005F0AAFD19213B2005F0A6FD9DF8071058
:1043F0001A4B83F84011222005F09EFD00210E206B
:1044000005F09AFD00210D2005F096FD012005F034
:104410009FFD30F0F8031AD09DF80710204605F0F4
:1044200052FD0E4BD3F8340196E7332005F090FD92
:1044300041B221F0410141F0010101F0BF013320FF
:1044400005F07AFD1D213B2005F076FDCEE7FFF754
:1044500001FF012005F0BFFCDEE700BFB40C002027
:10446000B40B002070B504469D48FFF7FDFA9D4B44
:1044700093F8E130E3B1012B45D000264FF4807270
:104480000021994806F04FFE964B012283F8E02068
:10449000002C40F00781934B93F8E130002B00F0A3
:1044A0000A81002E00F01881052005F05DFD70BD29
:1044B0008C4D95F80261402005F04AFD00F00301A3
:1044C00041F00C01402005F037FD412005F040FD92
:1044D00060F03E01C9B2412005F02EFD352005F007
:1044E00037FD00F03F0085F81A011E210D2005F070
:1044F00023FD002385F80C3185F80D31A5F818311E
:10450000A5F81631BAE7774B93F8313153B333201E
:1045100005F01EFD40F04101C9B2332005F00CFD4D
:1045200019213B2005F008FD6E4BD3F82031082BF4
:1045300000F28780312005F00BFD00F07F01312073
:1045400005F0FAFC0021302005F0F6FC654BD3F8AD
:104550002031082B7ED8DFE803F01724313E4B587A
:10456000656A6F00332005F0F3FC41B221F0410190
:1045700041F0010101F0BF01332005F0DDFC1D21F8
:104580003B2005F0D9FCCFE748212F2005F0D4FCD3
:10459000544BD3F8E40000F5F4500230FFF70CFB65
:1045A00058E044212F2005F0C7FC4E4BD3F8E4001F
:1045B00000F522503430FFF7FFFA4BE044212F2062
:1045C00005F0BAFC474BD3F8E40000F57450043012
:1045D000FFF7F2FA3EE044212F2005F0ADFC414BFD
:1045E000D3F8E40000F5A2405E30FFF7E5FA31E0D1
:1045F00044212F2005F0A0FC3A4BD3F8E40000F54D
:10460000F4401230FFF7D8FA24E044212F2005F0BF
:1046100093FC344BD3F8E40000F52240C630FFF79A
:10462000CBFA17E040212F2005F086FC12E0402154
:104630002F2005F081FC0DE040212F2005F07CFCAF
:1046400008E0312005F084FC60F07F01C9B2312020
:1046500005F072FC234B93F8326193F82F31A3B12C
:104660001D21112005F068FC402005F071FC00F0D0
:104670003301402005F060FC00210F2005F05CFCB8
:1046800000210D2005F058FCF8E61F21112005F04F
:1046900053FC402005F05CFC00F03F01402005F099
:1046A0004BFCE9E7114D2146284605F06DFB2846F5
:1046B000FFF760F9EFE6052005F056FC002E7FF4C9
:1046C000F6AE0B4C074BD3F80811204605F05CFB07
:1046D0002046FFF74FF9EAE6062005F045FCE6E63E
:1046E000F80D0020B40C0020B40B00209C0B00201F
:1046F000840B002008B520B101280AD04FF0FF300C
:1047000008BD112005F024FCC0F34700404200B270
:10471000F6E70A4BD3F8E420094B9A4206D91B204E
:1047200005F016FC80B29D3800B2E9E71B2005F0C9
:104730000FFC80B2A43800B2E2E700BFB40C002046
:1047400040DD4A1F10B50446012005F001FC10F0C1
:10475000800F21D11D4B002283F8E1201B4B93F8E1
:10476000E130A34217D0194B83F8E140012C18D057
:10477000002005F0F9FB012005F0EAFB00F07F01C5
:10478000012005F0D9FB0021402005F0D5FB3021A8
:10479000412005F0D1FB10BD0C4B012283F8E12034
:1047A000DCE7002005F0E0FB012005F0D1FB60F024
:1047B0007F01C9B2012005F0BFFB0021402005F0B8
:1047C000BBFB0021412005F0B7FBE4E7B40C00205F
:1047D00038B5194B1860194C2146194805F0CBFA29
:1047E0002146184805F0C7FA2146174805F0C3FAD4
:1047F000FEF72AFFFFF7CCFC002005F0B5FB1348BD
:10480000FEF75AFF00240CE0114A04EB4403D518CC
:10481000D05CFFF797FFA978687805F08DFB01342D
:10482000E4B20F2CF0D90020FFF78CFF094B0022D7
:1048300083F8E02038BD00BF800B0020514E0008F7
:10484000F80D00209C0B0020840B0020A802002003
:1048500090C20008B40C00202DE9F04F85B004464A
:10486000019115460393BDF83C80BDF840A09DF82A
:1048700044709DF848909DF84C609DF858B09DF8A4
:104880005C300293FFF75EFF24B1012C69D005B0C4
:10489000BDE8F08FA04B019CC3F8F040C3F8F8507E
:1048A0000E9AC3F8F42083F8FE7083F8FF9083F823
:1048B000006183F801B1029A83F80221A3F8FC8019
:1048C0004FF4FA5202FB0AFABAFBF5F2C3F80821D8
:1048D000924BB3FBF5F5C5F30721022005F02CFB45
:1048E000E9B2032005F028FB2046FFF711F9014645
:1048F000122005F021FB0E98FFF70AF9014613205C
:1049000005F01AFB4FEA1821252005F015FB5FFA88
:1049100088F1262005F010FBDFB14946322005F072
:104920000BFB302005F014FB00F06F01B7B1002342
:10493000194341EA0611C9B2302005F0FDFA3120D1
:1049400005F006FB40F04001C9B2312005F0F4FA51
:104950009DE7FF21322005F0EFFAE2E76FF07F03D9
:10496000E6E7019B022B00D9FEE7019C07346A4B66
:10497000C3F82041C3F82451039A83F82921A3F8EE
:104980002A8183F82C7183F82D9183F82E619DF88C
:10499000502083F82F219DF8542083F8302183F88C
:1049A00031B1029A83F832210C2D03D8052D02D89B
:1049B000062500E00C25072C63D0082C6AD0564B46
:1049C000002283F828211D2005F0C2FA2301DAB263
:1049D000039B5B00DBB2134343EA07011D2005F094
:1049E000ABFA1E2005F0B4FA00F008032A01D2B297
:1049F0001A43B300DBB21343CAF3012119431E204B
:104A000005F09AFA262005F0A3FA41B221F0080138
:104A1000414B93F8283141EAC301C9B2262005F081
:104A20008BFA5FFA8AF11F2005F086FA4FEA182107
:104A3000202005F081FA5FFA88F1212005F07CFA48
:104A40005FBB354B93F82F3163BB092C3AD0092C4F
:104A500047D00321362005F06FFA062D4AD03120C9
:104A600005F076FA41B221F0070141F0030101F0AF
:104A7000FB01312005F060FA0A21372005F05CFACD
:104A800005E7A5F10B03012B97D8234B012283F8EF
:104A9000282198E70C2D92D1F7E74946222005F00E
:104AA0004BFACEE7442005F053FA60F07F01C9B21B
:104AB000442005F041FA184B93F83011242005F0FA
:104AC0003BFAC2E7144BD3F8E420154B9A42BED907
:104AD0000221362005F030FA64213A2005F02CFA44
:104AE000BBE70221362005F027FA7F213A2005F0A6
:104AF00023FAB2E7312005F02BFA41B221F0070189
:104B000041F0050101F0FD01312005F015FA0C21FD
:104B1000372005F011FABAE6B40C00200048E8018D
:104B200040DD4A1F2DE9F04F83B004460D46019247
:104B300000939DF83490BDF838709DF83C809DF846
:104B400040609DF844B09DF84CA0FFF7FBFD28465F
:104B500005F0A8F824B1012C57D003B0BDE8F08FC0
:104B6000814B83F8E8500198C3F8EC00009AC3F831
:104B7000F0200C9AC3F8F820A3F8FC7083F8FE80AC
:104B800083F8006183F801A1149AC3F80421FEF7A9
:104B9000ABFF0446C0F30721042005F0CDF9E1B2D4
:104BA000052005F0C9F9714C0C9BB4FBF3F4C4F378
:104BB0000721022005F0C0F9E1B2032005F0BCF99D
:104BC000390A252005F0B8F9F9B2262005F0B4F924
:104BD000302005F0BDF900F06F01B8F1000F11D0E1
:104BE0000023194341EA0611C9B2302005F0A4F9A7
:104BF000312005F0ADF940F04001C9B2312005F097
:104C00009BF9AAE76FF07F03EBE7574B83F81C5142
:104C1000009B022B00D9FEE7009C0734524BC3F8DF
:104C200020410C9AC3F8242183F82991A3F82A7112
:104C300083F82C8183F82FB19DF8482083F8302128
:104C400083F82E6183F831A1149AC3F834210C9BA8
:104C50000C2B04D8052B04D806230C9301E00C235D
:104C60000C93072C51D0082C58D03F4B002283F8CE
:104C70002821BBF1000F55D11D2005F069F9230152
:104C8000DAB24FEA4903DBB2134343EA08011D20BD
:104C900005F052F91E2005F05BF900F00B010C9BAA
:104CA0001B01DBB21943B300DBB219431E2005F030
:104CB00043F9262005F04CF941B221F008012A4BB6
:104CC00093F8283141EAC301C9B2262005F034F92E
:104CD000390A202005F030F9F9B2212005F02CF92D
:104CE0000C9B062B2ED0312005F032F941B221F079
:104CF000070141F0030101F0FB01312005F01CF92F
:104D00000A21372005F018F927E70C9B0B3B012BF4
:104D1000A9D8154B012283F82821AAE70C9B0C2B5C
:104D2000A3D1F6E7442005F013F960F07F01C9B282
:104D3000442005F001F90C4B93F83011242005F0C4
:104D4000FBF899E7312005F003F941B221F00701A2
:104D500041F0050101F0FD01312005F0EDF80C21D5
:104D6000372005F0E9F8F8E6B40C00200048E80127
:104D700030B58BB00D464FF47A7402FB04F4FEF7A5
:104D80001BFF089400200790069005900490039064
:104D90000523029301904FF4965300930346024675
:104DA0002946FFF7BFFE312005F0D2F800F0BF0121
:104DB000312005F0C1F8F021402005F0BDF8A02118
:104DC000412005F0B9F8084D2146284604F0DCFFE3
:104DD000064B022283F8E0202846FEF7CBFD032095
:104DE00005F0C2F80BB030BDF80D0020B40C002067
:104DF00038B504460D46FFF7A5FC14B1012C0AD0C6
:104E000038BD074B93F8FE30002BF9D129463220EC
:104E100005F092F8F4E72946232005F08DF8EFE736
:104E2000B40C002010B504460120FFF78BFC074BA3
:104E300083F8384124B13421392005F07DF810BDC4
:104E40001221392005F078F8F9E700BFB40C0020F2
:104E500038B5334B93F8E030012B02D0022B33D01E
:104E600038BD2F4B93F8E13043B12E4B1B68002B1C
:104E7000F6D0DB68002BF3D09847F1E7284C84F894
:104E80000C3184F80D31A4F81831A4F816310B2137
:104E90003E2005F051F810213F2005F04DF894F820
:104EA00002314BB10D2005F053F840F04001C9B27A
:104EB0000D2005F041F8D8E7194B002283F8E020D7
:104EC0001948FEF7D1FDD0E7FEF7BEFBFFF760F90A
:104ED000002005F049F800240CE0144A04EB4403D8
:104EE000D518D05CFFF72EFCA978687805F024F877
:104EF0000134E4B20F2CF0D90020FFF723FC084C5A
:104F000094F83801FFF78EFF002384F8E030054B5A
:104F10001B68002BA4D05B68002BA1D098479FE7AB
:104F2000B40C0020800B0020840B002090C20008ED
:104F30002DE9F04782B00C46066943681D680A797E
:104F4000012A15D0022A16D14FF4806E6379012B05
:104F500017D0022B18D08BB14FF4005CA179022935
:104F600015D0042919D0002A40F09780002716E0B8
:104F70004FF4C06EEAE74FF0000EE7E74FF4805CB5
:104F8000ECE74FF0000CE9E74FF4405CE6E70AB1CC
:104F9000002704E04FF0805701E04FF4805794F869
:104FA00007A0BAF1010F7BD04FF00008A2F103096E
:104FB0005FFA89F9B9F1010F40F29E8012B104291C
:104FC00000F09D80002B00F09D80022B00F09D8062
:104FD000012940F29D80042900F09D80BAF1000F64
:104FE00017D0514B9D4210D0A3F574439D420CD075
:104FF00003F580639D4208D003F580639D4204D091
:1050000003F550539D4240F08980BAF1010F40F002
:1050100088802B6823F001032B6043681A681368AB
:1050200003F4C0639E4505D0136823F4C0634EEAC1
:105030000303136043681A68536803F440539C45A4
:1050400005D0536823F440534CEA0303536043688C
:105050001A68136803F010239F4204D0136823F0EA
:1050600010231F43176043681A68936803F4407362
:10507000984505D0936823F4407348EA030393608E
:10508000D4F80080336898450DD12B6843F00103B4
:105090002B60002002B0BDE8F0874FF480577EE718
:1050A0004FF4407882E70369D0F8049059F80C7BFC
:1050B000D3F804A0504605F0EDFBB8B1DAF808309B
:1050C000DB68B3B101AA49465046984700280ADB7D
:1050D0003B6823F400433B60019B03EB5803B3FBA5
:1050E000F8F39BB2FB6023683360CEE76FF01200E9
:1050F000ECE76FF05700E9E76FF08500CAE76FF063
:105100008500C7E76FF08500C4E76FF08500C1E751
:105110006FF08500BEE76FF08500BBE76FF085009C
:10512000B8E76FF08500B5E7003801402DE9F041A0
:105130000546046943681E68A060A06920B105F0B7
:10514000A9FB002800F0A380D4F8B0302BB1A069EF
:1051500005F0A0FB002800F09D802B69002783F854
:10516000A8706B681A68936823F0800393604B49BA
:1051700004F1780005F0DCFC494904F5887005F07D
:10518000D7FC04F1440820223946404605F0CBFF05
:1051900006F124036364A76494F83D30002B56D0D5
:1051A00094F860306FF3830384F8603094F83E30F5
:1051B000002B54D094F860306FF3051384F86030FE
:1051C00094F860306FF3861384F86030DBB26FF3CD
:1051D000C71384F86030226C94F8613062F30303E3
:1051E00084F86130C4F8308065630027C4F84871E2
:1051F000C4F84C7104F1DC0820223946404605F021
:1052000092FF2836C4F8E060C4F8DC7094F8D5301A
:105210006BB394F8F8306FF3830384F8F83094F8A4
:10522000D63063B394F8F8306FF3051384F8F83090
:10523000D4F8D82094F8F93062F3030384F8F930F5
:10524000C4F8C880C4F8CC500020BDE8F08194F8C0
:105250006030022262F3830384F86030A6E794F89A
:105260006030022262F3051384F86030A8E794F8F6
:10527000F830022262F3830384F8F830CFE794F821
:10528000F830022262F3051384F8F830D0E76FF0AB
:105290001200DAE76FF01200D7E700BF6DA6000832
:1052A00083A300082DE9F04782B0054646680769E8
:1052B000B04658F80C4B4A48786005F0EBFA0028E5
:1052C00078D0474883681B6841469847002840F0DB
:1052D000848001AA0021306A05F07BFA002805DBF2
:1052E000019B00221979186805F08CFA00285EDB12
:1052F000236823F001032360236843F00C03236039
:10530000B369022B5ED0012B57D0002319462268C7
:1053100022F0805222F4B0520B431343236063689F
:1053200023F440536360337D2BB16B681A68936834
:1053300043F440739360D7F800902B69D5F804804C
:1053400058F80C7BD3F804A0504605F0A3FA0028C7
:105350003DD0DAF80830DB68002B3BD001AA41468B
:105360005046984700280ADB3B6823F400433B6023
:10537000019B03EB5903B3FBF9F39BB2FB60337F53
:105380001BB1A36843F00803A360236843F0010343
:105390002360E36913F4001FFBD0E36913F4800F6B
:1053A000FBD0B368284698472846FFF7BFFE02B0F7
:1053B000BDE8F0876FF0120088E74FF480534FF498
:1053C000C061A4E74FF480534FF480619FE76FF012
:1053D0001200C7E76FF05700C4E76FF00400E6E77C
:1053E000B8B6000838B5174B1C684FF01003EFF340
:1053F000118583F31288BFF36F8F636813F0400F3A
:1054000004D0204605F0B7F900280BDB636813F0E1
:10541000010F0AD0204605F0A0F968B9A06870B164
:10542000C0B204E06FF0040001E06FF00A0085F301
:105430001188BFF36F8F38BD6FF00400F7E76FF08E
:105440000A00F4E7C0020020F0B586468578C478EB
:105450004FF01003EFF3118C83F31288BFF36F8FBB
:10546000067833464778AD1B2540AA4200D9AAB238
:10547000B01820408EF800008CF31188BFF36F8FB6
:10548000084607E00EEB0302527900F8012B0133C6
:105490002340624602F1FF3C1FFA8CFC002AF1D146
:1054A000BE420FD14FF01002EFF3118382F3128846
:1054B000BFF36F8F9EF800208EF8012083F31188D0
:1054C000BFF36F8F401A80B22D1A9EF80430AB42A2
:1054D00005D3034B1A68136843F008031360F0BD4B
:1054E000C0020020F8B50D46144613F0010F03D199
:1054F0001F48FFF7A9FFF8BD0AB92046FBE74FF0A8
:105500001003EFF3118683F31288BFF36F8F5020DF
:10551000FCF726F907465020FCF70EF986F31188B0
:10552000BFF36F8F134B4FF48032C3F888212646A8
:1055300004E0BFF34F8F20BF40BF20BF0E4B1B685E
:105540005B6813F0010FF4D0FFF74CFF094B4FF4E9
:105550008032C3F88821002802DB013EB6B2A8558C
:10556000002EEBD1002FC8D05020FCF7D7F8C4E7AD
:10557000F802002000E100E0C002002010B5FFF7B3
:1055800031FF002806DBC4B221460B4805F005F9BF
:10559000002800DB10BD2146084805F0FEF8002871
:1055A00003DB074800F0C0FDF4E7064B1A681368F8
:1055B00023F008031360F4E7F80200200D03002035
:1055C000E0020020C0020020F8B50F46144607E0B4
:1055D0004FF0FF324FF0FF3306F1180000F0CCFD22
:1055E000CCB10E4D05F108064FF0FF324FF0FF33FE
:1055F000304600F0C1FD2246394605F14D00FFF767
:1056000023FF0546304600F08FFD002DE0D0641BDF
:10561000A4B22F44E4E70020F8BD00BFC002002080
:1056200038B5046945682D4BDA6822F0730242F000
:105630000102DA601A6922F4C00222F4FE4242F446
:10564000C0521A611A6842F080621A601A6942F404
:1056500080121A61214B1B6813F0006FFAD01F4AA9
:10566000D2F8883023F0406343F08063C2F888307A
:105670001B48606005F00EF920B1194883681B686B
:10568000294698472268136843F0080313602046B0
:1056900050F8082B136843F00403136001221146ED
:1056A00005F09FF904F120000122002105F099F98D
:1056B0000422082104F14D0005F083F80C2210218A
:1056C00004F1380005F07DF8002211465020FCF767
:1056D00055F85020FCF722F8002038BD0010024099
:1056E000B8B600084FF0E02399691A69986912F476
:1056F000803F01D1814208D2074B1A6807490968E7
:105700000A441A604FF0E0231B69044B1B681B1A04
:10571000014A1068184470471C0E0020180E002023
:10572000094B102283F8232041F63F72074B1A6081
:105730000020074B18604FF0E0235A6198611A6906
:1057400042F007021A61704700ED00E0180E0020D9
:105750001C0E002008B5FFF7C5FF0C4B18680C4A5B
:1057600011680844106000221A600A4A1368C01ABF
:105770000949A1FB0010400A4FF4FA5101FB003324
:10578000136001F06FFBFCF78BF908BD1C0E0020C5
:10579000140E0020100E0020D34D621011B1B0F194
:1057A000FF3F3AD070B5384B1D68B0F1FF3F3FD096
:1057B000012840DDB0F5036F3FDC441E4FF01003BD
:1057C000EFF3118683F31288BFF36F8FFFF78AFF21
:1057D0004FF0E02399692D4B1A68104418602C4B48
:1057E00000221A602B4B1A68831A29D44FF4FA5CF2
:1057F0000CFB043303F5F9531F33274CA4FB03437D
:105800005B0A121A0CFB0323B3F5806F1DD9234AE0
:1058100093421CD91C4B1A601BE04FF0E022136925
:1058200023F001031361184B4FF07F421A60704759
:105830004FF40360BEE70024C0E74FF40364BDE704
:10584000114B4FF480621A6003E04FF480630E4AFC
:1058500013604FF0E0239C690B4A1268013A5A61C9
:1058600000229A61A14209D22D1B0D442844074B06
:10587000186086F31188BFF36F8F70BD0D1B28442D
:10588000024B1860F5E700BF180E0020140E002030
:105890001C0E0020100E0020D34D621000DCFF0013
:1058A00010B54FF01003EFF3118483F31288BFF3A8
:1058B0006F8FFFF717FF074B1B681844064B1B68D9
:1058C000C01A84F31188BFF36F8F044BA3FB003021
:1058D000400A10BD140E0020100E0020D34D62109F
:1058E00010B54FF01003EFF3118483F31288BFF368
:1058F0006F8FFFF7F7FE044B1B68184484F3118881
:10590000BFF36F8F10BD00BF140E0020AF2817D853
:10591000F8B504460D46164603090B4A52F82370A3
:105920005FB1384604F0B6FF38B133462A4604F07A
:105930000F01384603F0ECFBF8BD6FF01200FBE7F7
:105940006FF01500704700BF40C3000830B5936882
:10595000D46823431469234354692343946923433C
:10596000D4692343946A2343174C655C00EB050E0E
:10597000445924F4FF4C2CF0700C43EA0C034351BF
:105980005368CEF80C301368CEF80830146ADEF88D
:1059900004301B0C1B042343CEF80430546AD0F8A7
:1059A000A8308A000F21914023EA010391FAA1F166
:1059B00041B1B1FA81F104FA01F11943C0F8A8101C
:1059C000002030BD2021F6E77CC30008074B1B6890
:1059D00013F0007F07D00120044B1B6813F0006F09
:1059E00000D0012070470020F6E700BF0010024001
:1059F000014B1860704700BF1C030020421E294B5A
:105A00009A424CD8284B1B6803F4C063B3F5007F5F
:105A100011D0264B984229D8A3F5F403A3F590534F
:105A2000984232D8224B984232D8224B984232D8F0
:105A3000002108461CE0204B98420BD81F4B98428F
:105A40000BD81F4B98420BD81E4B98420BD8002105
:105A500008460DE0042100200AE00321002007E0B1
:105A60000221002004E00121002001E000210120AA
:105A7000154A136823F007030B431360136803F000
:105A8000070399420AD00120704703210020EFE765
:105A900002210020ECE701210020E9E77047012006
:105AA000704700BFFFB3C4040070004080BA8C018F
:105AB000001BB700808D5B000090D003006CDC02FF
:105AC0000048E8010024F4000020024070B50C46B4
