:020000040800F2
:1000000000230020ED1F0008A91A0008C11F0008E6
:10001000C11F0008C11F0008C11F00080000000028
:10002000000000000000000000000000E91B0008C4
:10003000C11F000800000000591B0008ED7C0008EB
:100040007D1D00087D1D00087D1D00087D1D000828
:100050007D1D00087D1D00087D1D00087D1D000818
:100060007D1D00087D1D00087D1D00087D1D000808
:100070007D1D00087D1D00087D1D00087D1D0008F8
:100080007D1D00087D1D00087D1D00087D1D0008E8
:100090007D1D00087D1D00087D1D00087D1D0008D8
:1000A0007D1D00087D1D00087D1D00087D1D0008C8
:1000B0007D1D00087D1D00087D1D00087D1D0008B8
:1000C0007D1D00087D1D00087D1D00087D1D0008A8
:1000D0007D1D00087D1D00087D1D00087D1D000898
:1000E0007D1D00087D1D00087D1D00087D1D000888
:1000F0007D1D00087D1D00087D1D00087D1D000878
:100100007D1D00087D1D00087D1D00087D1D000867
:100110007D1D00087D1D00087D1D00087D1D000857
:100120007D1D00087D1D00087D1D00087D1D000847
:100130007D1D00087D1D00087D1D00087D1D000837
:100140007D1D00087D1D00087D1D00087D1D000827
:100150007D1D00087D1D00087D1D00087D1D000817
:100160007D1D00087D1D00087D1D00087D1D000807
:100170007D1D00087D1D00087D1D00087D1D0008F7
:100180007D1D00087D1D00087D1D00087D1D0008E7
:040190007D1D0008C9
:0C019400FFFFFFFFFFFFFFFFFFFFFFFF6B
:1001A00001F0FF01102A2BDB10F0070F08D010F828
:1001B000013B013A8B422DD010F0070F42B3F6D12C
:1001C000F0B441EA012141EA014122F007047FF045
:1001D00000070023F0E80256083C85EA010586EA9C
:1001E000010685FA47F5A3FA87F586FA47F6A5FAD8
:1001F00087F68EB9EED1F0BC01F0FF0102F00702E4
:1002000032B110F8013B013A83EA010313B1F8D18E
:100210000020704701387047002D06BF354603386F
:10022000073815F0010F07D1013015F4807F02BFA8
:10023000013015F4C03F0130F0BC0138704700BFF9
:1002400053B94AB9002908BF00281CBF4FF0FF313D
:100250004FF0FF3000F00CB8ADF1080C6DE904CEA2
:1002600000F008F8DDF804E0DDE9022304B070478F
:10027000704700BF2DE9F04F099E88468E4615460F
:1002800004461946002B40F0C7804245B2FA82F777
:1002900046D94FB1C7F1200C08FA07F320FA0CFC3D
:1002A000BD404CEA030EBC404FEA15481FFA85FCDE
:1002B000BEFBF8F9220C08FB19E309FB0CFA42EA31
:1002C00003439A4528D9EB1809F1FF3004D29A4527
:1002D00002D9A9F102002B44A3EB0A03A4B2B3FB99
:1002E000F8F208FB123302FB0CFC44EA0344A44579
:1002F00014D92C1902F1FF3303D2A44501D9931E5E
:100300002C44A4EB0C0443EA00401EB1FC40002343
:1003100034607360BDE8F08F4846DDE71346F0E7D0
:1003200002B9FFDE8FBBA8EB020301214FEA154E95
:10033000AAB2B3FBFEFC200C0EFB1C330CFB02F834
:1003400040EA0343984563D9EB180CF1FF3004D21F
:10035000984502D9ACF102002B44A3EB0803A4B2E8
:10036000B3FBFEFC0EFB1C330CFB02F244EA03441D
:10037000A2424FD92C190CF1FF3304D2A24202D968
:10038000ACF102032C44A41ABDE7C7F1200C28FAF3
:100390000CF908FA07F320FA0CFCBD404CEA030202
:1003A0004FEA154EABB2B9FBFEFC110C0EFB1C90D4
:1003B0000CFB03F841EA0040804504FA07F423D916
:1003C00028180CF1FF3104D2804502D9ACF10201AA
:1003D0002844A0EB080092B2B0FBFEFC0EFB1C0010
:1003E0000CFB03F842EA004398450FD9EB180CF1D7
:1003F000FF3204D2984502D9ACF102022B44A3EBA0
:10040000080342EA014191E76146E2E76246F6E706
:100410006046A2E76346B6E7434505D90EB1C6E993
:1004200000080021084675E7B3FA83FCBCF1000F11
:1004300010D1434501D382420AD8841A68EB0303E2
:1004400001209E46002E68D0C6E9004E002161E7DB
:100450006046F7E7CCF1200E03FA0CF322FA0EF413
:100460001C4320FA0EF108FA0CF328FA0EFB19438C
:100470004FEA144902FA0CF5BBFBF9F8A3B209FBE9
:1004800018BB0A0C08FB03FA42EA0B42924500FA39
:100490000CF73ED9A21808F1FF3004D2924502D9D8
:1004A000A8F102002244A2EB0A0289B2B2FBF9F8D9
:1004B00009FB182208FB03F341EA024293422AD9BE
:1004C000A21808F1FF3104D2934202D9A8F1020127
:1004D000224441EA0040A0FB0598D21A42454B460F
:1004E000414602D306D14F4504D2B9EB050368EB70
:1004F000040101388EB1FC1A62EB010707FA0EFE07
:1005000024FA0CF34EEA030327FA0CF7C6E9003786
:100510009CE74046C7E74146DBE73146FAE610F87C
:10052000012B11F8013B012A28BF9A42F7D0D01ABB
:100530007047034613F8012B002AFBD1181A013823
:1005400070470000000000002DE9F04F2DED028BF8
:100550008BB00023644D8DF81530ADF8163006933E
:10056000BFF35B8FD5F80090BFF35B8FCDE9073306
:100570005E4E099304460D461746BFF35B8F56E85F
:10058000002F012A03D146E800310029F7D1BFF33B
:100590005B8F11D198460A20002108F0ABFFBFF312
:1005A0005B8F56E8003F012B03D146E80082002A0A
:1005B000F7D1BFF35B8FEED04D48FFF7BAFF02468D
:1005C000BB684B49D3F8048038460023C04703E09A
:1005D0000A20002108F08EFFBFF35B8F3368BFF362
:1005E0005B8F002BF4D0A36800221B6911462046C4
:1005F0009847B9F1000F6CD09FED398BDFF8F8A068
:10060000DFF8F8B04FF000083A4ABFF35B8F0126DD
:1006100052E8003FB34203D142E800610029F7D11C
:10062000BFF35B8F55D1BFF35B8F07AB53E8002F50
:10063000324443E800210029F8D1BFF35B8F042145
:10064000504601F089FE6E73A36829461B68204658
:1006500098470690069E002EF6D1A36804225B6898
:100660005146204698476E730690A36829461B683A
:10067000204698470690069B002BF6D18DED008B07
:100680000DF11502A36803920DF11602029259466C
:10069000DB680422204698470690BFF35B8F079BD8
:1006A000BFF35B8F0993BDF81630ADF82230069981
:1006B0009DF815308DF8203008AA384600F096FDD8
:1006C00008F1010840F6B830002108F013FFC845D2
:1006D0009AD10BB0BDEC028BBDE8F08FAFF3008078
:1006E0007011010000000000B80700205401002034
:1006F00050BE000850010020400800203C080020A7
:1007000000B50A2383B09FED067BA0FB03230648B8
:100710008DED007B09F07EF903B05DF804FB00BFAE
:100720000000000000000000F803002000000000AE
:100730002DE9F04F2DED028B9FED518BDFF84C81B1
:1007400087B0054600F1D00900F1D80A00274FF024
:100750001003EFF3118683F31288BFF36F8FD5F880
:10076000C840002C63D0D5F8CC202368C5F8C83029
:10077000944208BFC5F8CC30D5F8E030626843F049
:100780000203C5F8E030E36823F0040343F00103FB
:10079000E36086F31188BFF36F8F204690474FF0D8
:1007A0001003EFF3118283F31288BFF36F8FE368B6
:1007B000980723F001010FD4E160D5F8E03023F071
:1007C0000203C5F8E03082F31188BFF36F8FDB05B9
:1007D000BDD408F0F1FDBAE7D8F8000023F0030318
:1007E000E3600028E9D0436806689C424FF0000BA4
:1007F000014608D0002EE0D030468B46436836686C
:100800009C420146F6D10168D8F80430BBF1000FD4
:100810002DD09842CBF8001008BFC8F804B040F8BB
:10082000087B059208F062F8059A5946E2E7D5F888
:10083000E03023F004025C07C5F8E02008D48DED19
:10084000008B02974A4631460F4808F01DFF7EE7AD
:1008500000220121504608F0E3FE0028EFD00022DC
:100860000121504608F0DCFE0028F1D1E7E798426C
:10087000C8F80010D3D1C8F80410D0E7AFF3008057
:10088000FFFFFFFFFFFFFFFF100E0020140E0020F0
:1008900030B589B004460020C4E932000C9D04F153
:1008A000D000C4E9340004F1D800C4E936000DB327
:1008B0002879002840F2011008BF01209FED0E7B2F
:1008C000C4F8E0000020CDE90100039304908DED11
:1008D000067B0B4B0094204607F054FE25B1296897
:1008E00011B1204607F018FE204609B0BDE830409F
:1008F00007F016BE0120E1E7FFFFFFFFFFFFFFFF4C
:1009000031070008000000002DE9F84F2DED028BA3
:10091000064608F01DFB4FF01003EFF3118583F33B
:100920001288BFF36F8FDFF8D490DFF8D480D9F846
:100930000040C8F800604C454DD09FED2D8B2E4FE8
:100940002B46D7E9002120464FEAE67C1D4654B3EA
:100950002369D4F814E09E427CEB0E0BA6EB030A4D
:100960003DDB9A1841EBE37384ED048BC7E9002368
:10097000C8F800A008F0BAFE85F31188BFF36F8FA6
:10098000A36898474FF01003EFF3118583F31288A3
:10099000BFF36F8FD9F80040D8F800604C452B4664
:1009A000CFD14FEAE67C3B689B193B607B684FF0F8
:1009B000000443EB0C037B60C8F8004008F0B2FE73
:1009C000214607F0B9F985F31188BFF36F8FBDECAD
:1009D000028BBDE8F88F084F4FEAE67CE3E79B1BEC
:1009E0006EEB0C0123616161DDE700BFAFF30080B6
:1009F0000000000000000000C806002020030020C6
:100A0000280E0020704700BF10B5044608460B4969
:100A10000AF0E6FBA36800221B69114620469847AE
:100A2000BFF35B8F064B032253E8001F43E800200F
:100A30000028F9D1BFF35B8F10BD00BF4008002034
:100A400050010020704700BF2DE9F041DFF8A4E21B
:100A5000DFF88C82A14C06460F46BEE80F00C44664
:100A6000ACE80F009EE80F00ACE8070084B0ACF8DB
:100A700000300025BFF35B8F54E8003F012B12D1FB
:100A800044E80052002A0ED0F6E70A20002108F0C0
:100A900031FDBFF35B8F54E8003F012B03D144E8E5
:100AA0000052002AF7D1BFF35B8FEED08C48FFF7DE
:100AB00040FD0246B3688A495D6830460023A84776
:100AC00003E00A20002108F015FDBFF35B8F2368C7
:100AD000BFF35B8F002BF4D03B68824A8048A2FBB7
:100AE00003239B09009340227F4B002100250AF03D
:100AF0008DFBBFF35B8F54E8003F012B12D144E81C
:100B00000052002A0ED0F6E70A20002108F0F2FC7D
:100B1000BFF35B8F54E8003F012B03D144E8005240
:100B2000002AF7D1BFF35B8FEED06D48FFF701FDD0
:100B30000246B3686A495D6830460023A84703E06F
:100B40000A20002108F0D6FCBFF35B8F2368BFF3B7
:100B50005B8F002BF4D03979012958D002294CD071
:100B6000002942D0BFF35B8F002354E8002F012AF5
:100B700003D144E800310029F7D1BFF35B8F11D1D5
:100B80001D460A20002108F0B5FCBFF35B8F54E836
:100B9000003F012B03D144E80052002AF7D1BFF3F4
:100BA0005B8FEED04E48FFF7C4FC0246B3684C4959
:100BB0005D6830460023A84703E00A20002108F0C2
:100BC00099FCBFF35B8F2368BFF35B8F002BF4D0DE
:100BD0007B79063B062B2CD8DFE813F003010801D4
:100BE000FE006F006C00690022007D23009340220C
:100BF0003E4B3B480AF00AFBB4E74FF4FA7300930C
:100C000040223A4B364800210AF000FBAAE7FA23BB
:100C100000934022354B324800210AF0F7FAA1E751
:100C2000DFF8D4C02E4DBCE80F000FC5DCF8003053
:100C30002B700023BFF35B8F54E8002F012A03D1F0
:100C400044E800310029F7D1BFF35B8F11D11D4675
:100C50000A20002108F04EFCBFF35B8F54E8003FF0
:100C6000012B03D144E80052002AF7D1BFF35B8F78
:100C7000EED01B48FFF75DFC0246B36818495D687B
:100C800030460023A84703E00A20002108F032FC88
:100C9000BFF35B8F2368BFF35B8F002BF4D0BB796E
:100CA000013B032B17D8DFE803F091948E0DDFF89A
:100CB0004CC0B7E7DFF848C0B4E70D4B0FCB88E86E
:100CC0000F00B6E7DFF83CC0054DBCE80F000FC5CC
:100CD000DCF800302B8000251AE000BF5401002012
:100CE000BC070020D34D621050BC000864BC000853
:100CF000A8BC000830BC0008E0BC0008CCBC000860
:100D0000B8BC000830BD00080A20002108F0F2FB42
:100D1000BFF35B8F54E8003F012B03D144E800523E
:100D2000002AF7D1BFF35B8F0CBF01230023EBD068
:100D3000A0480393FFF7FDFB0246B168039B4D6893
:100D40009C493046A84703E00A20002108F0D2FB66
:100D5000BFF35B8F2368BFF35B8F002BF4D03A891E
:100D60000092954B9348402200210AF04FFA00254B
:100D700003E00A20002108F0BDFBBFF35B8F54E8BD
:100D8000003F012B03D144E80052002AF7D1BFF302
:100D90005B8F0CBF01230023EBD086480393FFF742
:100DA000C8FB0246B168039B4D6882493046A8479C
:100DB000BFF35B8F2368BFF35B8FE3B900210A2089
:100DC00008F098FBF4E7DFF808C27DE7DFF804C21B
:100DD0007AE7DFF804C277E7784B0FCB88E80F009B
:100DE00027E7774B0FCB88E80F0022E7754B0FCB37
:100DF00088E80F001DE7FB7A002B36D0DFF8DCC156
:100E00006C4DBCE80F000FC5DCF800302B604FF0D4
:100E1000000803E00A20002108F06CFBBFF35B8FA1
:100E200054E8003F012B03D144E80082002AF7D1A7
:100E3000BFF35B8F0CBF01230023EBD05D4803930E
:100E4000FFF777FB0246B168039B4D68594930466E
:100E5000A847BFF35B8F2368BFF35B8F002B3BD1A9
:100E600000210A2008F046FBF3E7DFF874C1514D7A
:100E70009846BCE80F000FC59CE8030045F8040B3A
:100E8000297003E00A20002108F034FBBFF35B8FD8
:100E900054E8003F012B03D144E80082002AF7D137
:100EA000BFF35B8F0CBF01230023EBD041480393BA
:100EB000FFF73FFB0246B168039B4D683D49304652
:100EC000A847BFF35B8F2368BFF35B8F13BB002181
:100ED0000A2008F00FFBF4E7BA7A00923A4B354843
:100EE000402200210AF092F90025BFF35B8F54E8FD
:100EF000003F012B03D144E80052002AF7D1BFF391
:100F00005B8F0CBF0123002323D100210A2008F0AE
:100F1000F1FAEAE797F90C2000922C4B2548402281
:100F200000210AF073F90025BFF35B8F54E8003FFE
:100F3000012B03D144E80052002AF7D1BFF35B8FA5
:100F40000CBF012300231BD100210A2008F0D2FA94
:100F5000EAE718480393FFF7ECFA0246B168039BEF
:100F60004D6814493046A847BFF35B8F2368BFF331
:100F70005B8F002BCED100210A2008F0BBFAF3E7EB
:100F80000C480393FFF7D5FA0246B168039B4D68FE
:100F900008493046A847BFF35B8F2368BFF35B8FD8
:100FA00023B900210A2008F0A5FAF4E704B0BDE84F
:100FB000F08100BFBC07002044BD000898BC0008B9
:100FC00078BC000888BC000874BD000888BD000813
:100FD0001CBD0008F4BC000808BD000860BD000886
:100FE0009CBD0008F8B51F4683680D4616460022D2
:100FF00004461B69114698476E71A36829461B6811
:1010000020469847B0B3BFF35B8F1D4C002554E8D2
:10101000003F012B14D144E80052002AF7D1BFF35E
:101020005B8F10D10A20002108F064FABFF35B8FB8
:1010300054E8002F012A03D144E80053002BF7D1D4
:10104000BFF35B8FEED00F48FFF773FA0246B96823
:1010500000234D680B493846A84703E00A200021C9
:1010600008F048FABFF35B8F2368BFF35B8F002B58
:10107000F4D0F8BD29463846BDE8F840FFF7E4BC97
:1010800054010020B4BD0008F8B51E46836815461B
:10109000002204460F461B69114698474FF47A73A5
:1010A00003FB05F5A3683D601B6820463946984759
:1010B000B0B3BFF35B8F1D4C002554E8003F012BFC
:1010C00014D144E80052002AF7D1BFF35B8F10D14E
:1010D0000A20002108F00EFABFF35B8F54E8002FBE
:1010E000012A03D144E80053002BF7D1BFF35B8FF3
:1010F000EED00F48FFF71DFA0246B16800234D6895
:101100000B493046A84703E00A20002108F0F2F915
:10111000BFF35B8F2368BFF35B8F002BF4D0F8BD68
:1011200039463046BDE8F840FFF78EBC5401002038
:10113000D8BD0008F8B51E4683680C461746002245
:1011400011461B69054698472268002F46D002F5D4
:10115000C332A032AB6822601B68284621469847FC
:10116000B0B3BFF35B8F1F4C002554E8003F012B49
:1011700014D144E80052002AF7D1BFF35B8F10D19D
:101180000A20002108F0B6F9BFF35B8F54E8002F66
:10119000012A03D144E80053002BF7D1BFF35B8F42
:1011A000EED01148FFF7C5F90246B16800234D683B
:1011B0000D493046A84703E00A20002108F09AF9BB
:1011C000BFF35B8F2368BFF35B8F002BF4D0F8BDB8
:1011D00021463046BDE8F840FFF736BCA2F5C332E1
:1011E000A03AB7E754010020D8BD000870B5444BC1
:1011F00054681D68042984B006463DD0CDE90045F9
:10120000404C414B414840220021002509F0FEFF9F
:10121000BFF35B8F54E8003F012B12D144E800522A
:10122000002A0ED0F6E70A20002108F063F9BFF388
:101230005B8F54E8003F012B03D144E80052002AA1
:10124000F7D1BFF35B8FEED03048FFF772F902465B
:10125000B16800234D682D493046A84703E00A20B5
:10126000002108F047F9BFF35B8F2368BFF35B8F62
:10127000002BF4D004B070BD92F90030B2F9022016
:101280000094204C0393CDE90152214B1F4840228A
:101290000021002509F0BAFFBFF35B8F54E8003F3F
:1012A000012B12D144E80052002A0ED0F6E70A20A2
:1012B000002108F01FF9BFF35B8F54E8003F012BBA
:1012C00003D144E80052002AF7D1BFF35B8FEED080
:1012D0000E48FFF72EF90246B16800234D680B490E
:1012E0003046A84703E00A20002108F003F9BFF3C5
:1012F0005B8F2368BFF35B8F002BF4D0BAE700BF8E
:10130000B80700205401002000BE0008FC070020A0
:1013100020BE0008836870B500221C4C1B690E4675
:10132000002511469847BFF35B8F54E8003F012B1F
:1013300012D144E80052002A0ED0F6E70A2000211C
:1013400008F0D8F8BFF35B8F54E8003F012B03D1BE
:1013500044E80052002AF7D1BFF35B8FEED00C486F
:10136000FFF7E7F80246B16800234D6808493046A8
:10137000A84703E00A20002108F0BCF8BFF35B8F08
:101380002368BFF35B8F002BF4D070BD54010020A5
:101390006CBE00080B78022B03D0052B11D01BB1BB
:1013A000704783685B691847074BBFF35B8F012267
:1013B00053E8001F43E800200028F9D1BFF35B8FFA
:1013C0007047024807F0FABB54010020840800204F
:1013D0002DE9F041A148A24D06F078FFA14906464B
:1013E000284608F075FF0446FFF7A3F801309E4930
:1013F000284408F06DFF09F0EFFE9C49074620469F
:10140000FFF78DF800BBBFF35B8F994B012253E8C8
:10141000001F43E800200028F9D1BFF35B8FBFF322
:101420005B8F944B53E8002F43E800710029F9D1FA
:10143000BFF35B8FB3688A49DC683046A44600235B
:10144000BDE8F041402260478B492046FFF767F82E
:10145000054600283FD1BFF35B8F854B092253E837
:10146000001F43E800200028F9D1BFF35B8FBFF3D2
:101470005B8F824C54E8003F012B12D144E80052AC
:10148000002A0ED0F6E70A20002108F033F8BFF357
:101490005B8F54E8003F012B03D144E80052002A3F
:1014A000F7D1BFF35B8FEED07548FFF742F80246E5
:1014B000B16800234D6872493046A84703E00A200E
:1014C000002108F017F8BFF35B8F2368BFF35B8F31
:1014D000002BF4D0AEE76B492046FFF720F878B137
:1014E00069492046FFF71BF8A8B9BFF35B8F604B33
:1014F000062253E8001F43E80020002898D0F8E7B0
:101500005B4BBFF35B8F042253E8001F43E80020CE
:1015100000288DD0F8E75D492046FFF700F8D8B1E4
:101520005B492046FEF7FBFF10BBBFF35B8F594BB7
:1015300053E8002F43E800710029F9D1BFF35B8F16
:10154000BFF35B8F4A4B052253E8001F43E800209E
:1015500000283FF46DAFF7E7454BBFF35B8F0722E1
:1015600053E8001F43E8002000283FF461AFF7E78D
:1015700049492046FEF7D3FF002862D1BB1F062B46
:1015800011D8DFE803F03D325348271C0400434BD9
:10159000BFF35B8F0C2253E8001F43E800200028B4
:1015A000F9D1BFF35B8FBFF35B8F314B082253E858
:1015B000001F43E8002000283FF43AAFF7E7374B1D
:1015C000BFF35B8F0B2253E8001F43E80020002885
:1015D000E7D0F8E7314BBFF35B8F0A2253E8001FD7
:1015E00043E800200028DCD0F8E72C4BBFF35B8FEA
:1015F000072253E8001F43E800200028D1D0F8E775
:10160000264BBFF35B8F062253E8001F43E8002000
:101610000028C6D0F8E7214BBFF35B8F092253E8BF
:10162000001F43E800200028BBD0F8E71B4BBFF3A6
:101630005B8F082253E8001F43E800200028B0D049
:10164000F8E70B4BBFF35B8F002253E8001F43E822
:10165000002000283FF4ECAEF7E700BF90BE000882
:101660004408002098BE00081CBE00089CBE00086C
:1016700050010020B8070020A0BE0008540100203F
:10168000A8BE0008D8BE0008E0BE0008E8BE0008FA
:10169000F0BE00085801002000BF00085C010020D7
:1016A0002DE9804887B00023DFF888920193BFF3CB
:1016B0005B8FD9F80020BFF35B8F8DF80C30944B13
:1016C0000292BFF35B8F1968924ABFF35B8F0123CD
:1016D0008DF80E3014238DF80D100492ADF81430EF
:1016E0008D4806F027FE002800F0F7808A4FBB687F
:1016F00002A91B68384698470190019B002BC0F255
:10170000FA808649864807F02FFA864806F0DEFD03
:10171000834606F00FFE002800F0E680DBF8083074
:101720001B681BB180490022584698477F4C7A4D70
:10173000DFF804A2DFF80482BFF35B8F2268BFF3F7
:101740005B8F013A082A00F2DD80DFE802F0B39FE8
:101750007A6A53412F17050059462846FFF7DAFDEC
:10176000BFF35B8F022354E8002F092A03D144E81A
:1017700000310029F7D1BFF35B8FDDE7644BBFF386
:101780005B8F1A68BFF35B8F5B46D2B202A9284613
:10179000FFF728FCBFF35B8F022354E8002F082AD1
:1017A000E9D144E800310029E5D0F6E75B460022A4
:1017B00002A92846FFF7BEFCBFF35B8F022354E863
:1017C000002F072AD7D144E800310029D3D0F6E70B
:1017D0005B46012202A92846FFF7ACFCBFF35B8FF2
:1017E000022354E8002F062AC5D144E8003100291D
:1017F000C1D0F6E7BFF35B8F5B46D9F80020BFF39B
:101800005B8F02A92846FFF73FFCBFF35B8F0223E3
:1018100054E8002F052AAED144E800310029AAD0AF
:10182000F6E702A95846FFF70FF9BFF35B8F0223D3
:1018300054E8002F042A9ED144E8003100299AD0B0
:10184000F6E7BE68012233688DF8152002A9284604
:101850009847002140F6B83007F04CFE7368042228
:1018600051462846984733693149424628469847A9
:10187000BFF35B8F022354E8002F032A7FF47BAF72
:1018800044E8003100293FF476AFF4E7BB6828490B
:101890001B69424628469847BFF35B8F002354E8F4
:1018A000002F022A7FF467AF44E8003100293FF49B
:1018B00062AFF4E75A4602A92846FEF745FEBFF399
:1018C0005B8F022354E8002F012A7FF454AF44E8D1
:1018D000003100293FF44FAFF4E74FF0FF314FF0F4
:1018E000FF3007F007FE01E74FF0FF314FF0FF3008
:1018F00007F000FE12E74FF0FF314FF0FF3007F026
:10190000F9FDFEE60021642007F0F4FD14E700BFB6
:101910005C0100200C000401ACB80008D1130008E1
:101920008408002090BE0008951300085001002094
:10193000090A00085801002040080020450A000854
:101940008C460446114608B51A466046A04707F083
:10195000E9FD00F061FB00BF704700BF4FF01002CF
:10196000EFF3118382F31288BFF36F8F83F3118833
:10197000BFF36F8F024B034A1A600020704700BF0D
:101980001C03002000093D000020704708B500F04E
:1019900015F8BDE8084000F001B800BF38B5054CA7
:1019A000054DAC4204D254F8043B9847AC42FAD3FC
:1019B00038BD00BF74BB000874BB000838B5064DC5
:1019C0002C6844B1631C05EB8305013C55F8043DCC
:1019D0009847002CF9D138BD6CBB00080149102292
:1019E0000A60704710ED00E072B6404080F3118845
:1019F000BFF36F8FBFF34F8F30BF62B6BFF36F8FF0
:101A0000704700BF06F0B6BC0146006806F0B2BCE5
:101A100043B2002B08DB05495B09012200F01F00DF
:101A200002FA00F041F82300704700BF00E100E037
:101A300043B2002B0DDB5B0906490122203300F085
:101A40001F0002FA00F041F82300BFF34F8FBFF3ED
:101A50006F8F704700E100E0054B420900F01F0066
:101A600053F82220012303FA00F01040704700BF12
:101A700000E100E0013143B20901002BC9B206DBED
:101A800003F1604303F5614383F800137047034B90
:101A900000F00F0003441976704700BFFCEC00E033
:101AA00000210120FFF7AEBF08B500F005F8BDE842
:101AB000084000F077B900BF30BFFFF7FDBF00BF9F
:101AC000144A08B5144B22F07F029A60BFF34F8F7F
:101AD000BFF36F8FD3F88820104922F47002C3F847
:101AE0008820D3F888204FF0404042F4A002C3F889
:101AF00088204863BFF34F8FBFF36F8F0023E1EE61
:101B0000103A06F071FC07F0D7FD00F063FA06F01A
:101B100075FC00BF0000000800ED00E000EF00E0F1
:101B200010B40A4A0A4C936824680A49C3E91E049F
:101B30004B6843F0805300204B6080F31188BFF363
:101B40006F8F93685DF8044BD86F7047E00D0020ED
:101B500084C4000800ED00E021498A6882F8C1E0F1
:101B60004FF030001044EFF3098C80E8F01F1EF0B6
:101B7000100F03D102F1800080EC108A102080F356
:101B80001288BFF36F8F174F4FF000668A698A6023
:101B90003E6092F9C1E0906F0023936780F3118853
:101BA0001EF0100F03D00023E1EE103A03E002F123
:101BB000800090EC108AEFF3148323F0040383F386
:101BC0001488BFF36F8F04B5104600F047FABDE8E4
:101BD000044002F1300090E8F01F8CF30988704750
:101BE000E00D002004ED00E01EF0040F0CBFEFF349
:101BF0000880EFF30980816911F8021C0229FFD0E7
:101C000001B5FFF701FF01BD017B10B411F0020423
:101C100005D0816E60318166C16E6039C16642F85F
:101C2000203C019B42F81C3C029B42F8183C4FF0C0
:101C3000807342F8043C039B42F8143C0C4B23F0A5
:101C4000010342F8083C0021203A02658167C0F890
:101C5000C0102CB9FD235DF8044B80F8C1307047EB
:101C60004FF608535DF8044BC0F8C030704700BF12
:101C70004119000830B4037BD0F8C0209D0702F062
:101C8000080403D490F8C110C9060BD4164D696B33
:101C900041F080416963C4B143F00203037330BC77
:101CA0008020704710494B6B23F080434B63BCB1DD
:101CB000D0E91A1322F0080260396033C0E91A1320
:101CC000C0F8C02030BC20207047D0E91A4142F053
:101CD000080260346039C0E91A41C0F8C020DBE76F
:101CE000202030BC704700BF00EF00E0104B9B6825
:101CF000DBB110B4D3F8C040024614F0080F986E60
:101D000014BF8023202312F1160F08D0C31A934268
:101D100003D900205DF8044B70478242F9D281421A
:101D200028BF00205DF8044B70471846704700BF7D
:101D3000E00D002008B514460D460022E1EE102A01
:101D4000EFF3148222F0040282F31488BFF36F8F42
:101D5000BFF36F8F084A906000F080F9204685F34A
:101D60000988002163B681F31188BFF36F8F0022C9
:101D70000023FFF7E5FD00BFE00D002001B5EFF304
:101D80000580A0F110004FEAC0000449014409C9D0
:101D90009847BDE80140024908470000C4B8000860
:101DA000A51D0008044B99689869884203D003492F
:101DB0004FF080520A607047E00D002004ED00E013
:101DC00038B51A4B9C6A9C6A9D6AAD07144603D5C8
:101DD0005D6B9A6A120621D46FF01505134B9A6A4F
:101DE0009A6A9A6AD1060BD49B6A9A0708D4002093
:101DF0000E4A936A002143F0FF039362217038BDBD
:101E00000A4B5B681B05F2D501462846FFF76EFFBB
:101E10000028ECD080F309880220E9E70029DDD012
:101E20009A6A22F080029A62D8E700BF00ED00E0D3
:101E30000E4B9A6A9A6A9A6A920508D59A6B9A6AC0
:101E4000120404D518B19A6A22F400429A62074B30
:101E50009A6A9A6AD205054A58BF9B6A936A00201B
:101E600043F47F4393620870704700BF00ED00E0C9
:101E700070B54E4B5B689CB0C3F30803002585F337
:101E80001188BFF36F8F02F07F44B4F17F4F69D1A7
:101E900002F00C04082C65D0140747BF0C462E46F0
:101EA000044601260022033B8DF80720032B66D849
:101EB000DFE803F03B3125023C4B00259A6A9A6A21
:101EC0009A6A9A6A9A6A9A6A9A6A6FEA02426FEA08
:101ED00012429A626822214602A809F081F9099B00
:101EE000002E42D0C3F3080240F2FF110AB90B439F
:101EF000099302A92846FFF785FD1CB070BD0DF1BE
:101F000007010020FFF794FF9DF807300546002BDE
:101F1000E0D01CB070BD0DF1070200212046FFF794
:101F20004FFF9DF807300546F1E7204BDD6A15F0BD
:101F3000020524D1DA6A002ACCDBDA6A5200C9D55C
:101F4000A26932F8021C4DF60272914223D093F836
:101F50002820B2B993F82920FAB95A8D92B2002AF2
:101F6000B8D0ABE72E462C469CE723F4FF7323F052
:101F7000010302A928460993FFF744FDBDE70025A8
:101F8000A8E70DF1070201212046FFF719FF9DF890
:101F900007300546BBE725689CE70DF107010120E6
:101FA000FFF746FF9DF807300546B0E700ED00E07B
:101FB000024A536943F010035361704700ED00E09B
:101FC000EFF30880EFF3098101B57246FFF750FF88
:101FD00001BD00BF044800231021C2180133552B56
:101FE00082F80013F9D1704700E100E0102080F37F
:101FF000118808484FF40261401880F30988EFF314
:1020000014800221084380F31488BFF36F8FFFF719
:1020100057FD000000250020084B9B68834201D03B
:1020200007F096BAEFF30583002BF9D0044A536802
:1020300043F08053536007F08BBA00BFE00D0020DF
:1020400000ED00E0024B034A0348012100F064B8B0
:10205000008002200000002018BF000810B50446D0
:10206000FFF708FEA26E064B064C9C60121AC3E9ED
:102070000020BDE810400121184600F057B800BF0D
:102080009408002000000B15002941D0F0B5214F25
:1020900084464FF0000EDCF804406CB3DCF80050CE
:1020A00053B11F2C04D944EA0500661E304203D008
:1020B0006FF015021046F0BD202CDCF80860D2B29B
:1020C00022D9B4F1004F21D8013CB4FA84F4C4F110
:1020D0001F046400072A44EA0604E9D825F01F0516
:1020E000154345F0100544F00104C7F89820C7F8DF
:1020F0009C500132C7F8A0400EF1010E8E450CF144
:102100000C0CC8D11046F0BD0824E3E73E24E1E7FB
:102110001046704700ED00E010B5034C0123227813
:10212000FFF7B2FF207010BD3C0E002008B5094A31
:1021300000231278FFF7A8FF10F1160F09D0072827
:1021400007DC054AC2F8980001300828C2F8A03020
:10215000F8D108BD3C0E002000ED00E01A4B10B491
:102160001C68082C2CD8BFF35F8F18480022C0F8D9
:1021700094201CB35968C0F898200B6823F01F0303
:10218000134343F010030C31C0F89C3051F8043C69
:10219000013243F00103A242C0F8A030EBD1D2B229
:1021A0000B480A4B02700521C3F89410BFF34F8F00
:1021B000BFF36F8F00205DF8044B70472246EFE7B6
:1021C0004FF0FF30F7E700BF5CBF000800ED00E014
:1021D0003C0E0020002070474FF0FF30704700BFDA
:1021E00000207047F8B50F1E0FDD7D1E084E441EFF
:1021F000054414F8010F0A2803D133680D209847CD
:10220000207833689847AC42F3D13846F8BD00BF18
:1022100064010020F0B583B00191002A16DD013A77
:102220000B4F0E464C1E8D1803E00D280BD0AC4210
:1022300009D03B689847234602330A2804F8010F67
:10224000A3EB0603F1D1184603B0F0BD0023FAE773
:1022500060010020F8B51746002A0FDD551E084E14
:102260004C1E0D4414F8010F0A2803D133680D20C9
:102270009847207833689847AC42F3D13846F8BD88
:10228000640100204FF0FF30704700BF002070470E
:102290000228CCBF00200120704700BF00207047FB
:1022A000002070474FF400534B600020704700BF80
:1022B000F8B50B4C0B4E271D65253368284698470B
:1022C000BC420BD014F8015F0A2DF6D133680D2003
:1022D0009847336828469847BC42F3D1FEE700BFD1
:1022E00024BF00086401002030B4084C084D236866
:1022F000C5F10051C21801F520318A423ABF581980
:1023000022604FF0FF3030BC704700BFA0080020B3
:10231000A031002010B50446142007F01BFF2060F8
:10232000BDE8104006F0FEB94FF0FF324FF0FF332A
:1023300006F000BA06F082BA06F008B808B51D210A
:102340000448FFF74FFF404080F311884FF003002F
:1023500002DF00BF2CBF0008F0B5144E336883B015
:1023600005460C464BB19968A2B20E68184629463C
:10237000B047002807DB03B0F0BD0D4805F0A6FF0D
:1023800003463060EFE7002CF5D00026A71B042F92
:1023900028BF042705F096FD3A46019001A9A81927
:1023A0003E4408F01DFFB442F0D8E4E7A408002042
:1023B0007CBF0008002208B511460620FFF75AFB33
:1023C000002211460720FFF755FB00221146082086
:1023D000FFF750FB002211460920FFF74BFB0022BC
:1023E00011460A20FFF746FB002211461720FFF78F
:1023F00041FB002228201146FFF73CFB002008BDCE
:102400002DE9F04107690E4D0A24012607F1040861
:1024100002E00134102C11D06A6906FA04F333EAA1
:102420000202F6D157F834206B612046002AF0D022
:1024300058F8341001349047102CEDD1BDE8F081EC
:1024400000040140064B5A69D20700D47047016965
:102450000A6801205861002AF8D049680020104716
:1024600000040140064B5A69920700D47047016985
:102470008A6802205861002AF8D0C96801201047F4
:1024800000040140064B5A69520700D470470169A5
:102490000A6904205861002AF8D0496902201047CF
:1024A00000040140064B5A69120700D470470169C5
:1024B0008A6908205861002AF8D0C96903201047AA
:1024C00000040140064B5A69D20600D470470169E6
:1024D0000A6A10205861002AF8D0496A042010477F
:1024E000000401402DE9F04107690E4D0524012645
:1024F00007F1040802E001340A2C11D06A6906FAD7
:1025000004F333EA0202F6D157F834206B61204617
:10251000002AF0D058F83410013490470A2CEDD13D
:10252000BDE8F08100040140064A074910B40123C8
:1025300014688340234308565DF8044B1360FFF78B
:1025400067BA00BF00040140A0BF00081F2807DCD5
:10255000044901220B6802FA00F023EA0000086037
:10256000704700BF0004014003290DD8DFE801F0E7
:1025700025190D02174A0123916803FA00F001435F
:102580009160D3681843D0607047124B0122D9681C
:1025900002FA00F00143D9609A6822EA00009860CC
:1025A00070470C4B0122996802FA00F001439960D0
:1025B000DA6822EA0000D8607047064B0122996869
:1025C00002FA00F021EA00019960DA6822EA0000CC
:1025D000D860704700040140084B10B453F83040F5
:1025E00044B943F8301003EBC00320465A605DF84D
:1025F000044B70476FF00F00F9E700BFA8080020F8
:10260000034A02EBC001002342F830304B607047B0
:10261000A80800200B68042B04D8054B1B68136026
:1026200000207047062BF8D06FF08500704700BF80
:102630001C0300200B6886B0062B4DD8DFE803F0A2
:10264000101C2834404C0400254A4B68116D194376
:102650001165126D13400193019B002006B0704775
:102660001F4A4B68916C19439164926C1340059317
:10267000059B002006B07047194A4B68D16C19437E
:10268000D164D26C13400093009B002006B07047C9
:10269000134A4B68916D19439165926D13400293F3
:1026A000029B002006B070470D4A4B68116E19431B
:1026B0001166126E13400493049B002006B070470D
:1026C000074A4B68D16D1943D165D26D134003930E
:1026D000039B002006B070476FF08500BEE700BF87
:1026E000001002400B68062B35D8DFE803F00C140D
:1026F0001C242C340400194A4968136D23EA010391
:10270000002013657047154A4968936C23EA01035A
:10271000002093647047114A4968D36C23EA01038F
:102720000020D36470470D4A4968936D23EA010382
:10273000002093657047094A4968136E23EA010334
:10274000002013667047054A4968D36D23EA0103E8
:102750000020D36570476FF085007047001002407D
:1027600010B586B00023CDE90033029300F03CF8A9
:1027700003A800F031F8174B1A68510506D41A68FF
:1027800042F480721A601A685205FCD5114CA36895
:1027900023F0030343F00103A360A36823F0F003D5
:1027A000A360A36803F00C03042BFAD1236823F081
:1027B00080732360694603A805F024FD236823F491
:1027C000803323602368002023F00103236006B0D8
:1027D00010BD00BF00100240002114224FF0007312
:1027E00080E80E00704700BF064B9A6D42F08052A1
:1027F0009A659B6D82B003F080530193019B02B0F8
:10280000704700BF00100240002208B511460B209F
:10281000FFF730F90B20FFF7FBF8002211460C20E0
:10282000FFF728F90C20FFF7F3F8002211460D20DE
:10283000FFF720F90D20FFF7EBF8002211460E20DC
:10284000FFF718F90E20FFF7E3F8002211460F20DA
:10285000FFF710F90F20FFF7DBF8002211461020D8
:10286000FFF708F91020FFF7D3F8002211201146D6
:10287000FFF700F9BDE808401120FFF7C9B800BF15
:1028800043682DE9F0415D691F69481E854217D9EB
:102890009D69144600EB400205EBC2064FEAC208F0
:1028A00000F04AFB084B55F808201B5C3B44002015
:1028B0005B686270B27922709BB26360BDE8F081A0
:1028C0006FF01500FAE700BFC8BF000870B5466892
:1028D0000446124D284605F02DFDE0B1AB682846B0
:1028E0001B68314698470546A8B9B3682046984703
:1028F00072694AB1B36902EB420203EBC202294694
:10290000997118339342FBD123690022C3E9002255
:102910009A60284670BD6FF00405FAE78CB700088E
:1029200043682DE9F0419C691F6901EB410304EB09
:10293000C304002382B00646A37138460D4600F05A
:1029400029FB05F1010880B163794BB1D4E9041585
:10295000002342463046AC4602B0BDE8F041604735
:102960002946384600F0EEFAF0E72946384600F0EE
:10297000F7FA38B16379002BE8D12946384600F0E0
:10298000E7FAE3E73846294600F024FB20B1D4E912
:1029900004156FF00403DCE773682946186900F03A
:1029A000DDFA736829461869019000F0D1FA0198A0
:1029B000294600F0C7FA0198294600F005FBE6E732
:1029C0000021FFF7ADBF00BF0121FFF7A9BF00BF86
:1029D0000221FFF7A5BF00BF0321FFF7A1BF00BF82
:1029E0000421FFF79DBF00BF0521FFF799BF00BF7E
:1029F0000621FFF795BF00BF4368D3E90402013900
:102A00008A4215D900B583B0CDE9000100F0A0FAE3
:102A1000DDE9000100F096FADDE9000100F0D4FAEA
:102A2000DDE9000100F0D8FA002003B05DF804FBF6
:102A30006FF01500704700BF426801EB41032DE9BC
:102A4000F041DB0007469069183B00EB0308D2E930
:102A500004634D1EAB4282B02BD9284600F06CFABD
:102A6000154B1A5C935923F00203935141F28A34B7
:102A700005E0013C09D00A20002106F03BFD294673
:102A8000304600F0B7FA0028F3D17B682946186970
:102A9000019000F05DFA0198294600F053FA019880
:102AA000294600F091FA002088F8060002B0BDE83F
:102AB000F0816FF01500F9E7C8BF00082DE9F04F6D
:102AC000406899464369066983B04D1EAB42019246
:102AD0001ED9D0F818A005EB45074FEAC70B41F205
:102AE0008A340AEBC70705E0013C56D00A200021D2
:102AF00006F000FD2946304600F07CFA80460028AA
:102B0000F2D15AF80B20012A08D032F002032CD05F
:102B10006FF01508404603B0BDE8F08F284600F07E
:102B20000BFA214C019B225C32442846D36000F012
:102B300003FA225C32442846C2F808903A793AB344
:102B400000F0FAF9BA68205C0C9BB3FBF2F2304457
:102B50004168090C09040A4342602946304600F0E6
:102B60003BFA404603B0BDE8F08F284600F0E4F998
:102B70000D4C019B225C32442846936000F0DCF946
:102B8000225C32442846C2F80C903A79002AD7D108
:102B900000F0D2F9FA68205CD6E76FF00F084046E3
:102BA00003B0BDE8F08F00BFC8BF00082DE9F04FAB
:102BB00044688FB01746824603A8D4F818B0266937
:102BC00001EB41084D1E05F057FA7B884FEAC80813
:102BD00003F4FE63A8F11808B3F5FE6F0BEB0809C8
:102BE00000F088806369AB427ED999F8063041F2E3
:102BF0008A343BB1A3E0013C00F0A1800A2000210F
:102C000006F078FC2946304600F0F4F90028F2D1AD
:102C1000DAF80420019029461069009000F098F934
:102C20000098294600F08EF92946009800F0CCF96A
:102C30003969019B4A69B2F5803F55D2FC88B7F8E3
:102C400004C0644550D1042C02D0621E012A4BD826
:102C50000A7FC2F38010B0EBD21F45D13A88B86921
:102C6000C9F81400C2F3C21278694FF0010E89F856
:102C700006E04BF80820C9F81000D1E900E0012A6D
:102C80000CBFCDE9030ECDE903E03868C0F3833013
:102C9000C9E902C4032827D8DFE800F03A464A020F
:102CA0004FF440500D90012A36D0022A44D0DAB9B0
:102CB0004FF4804205920A7FC2F3011EC2F3810ADB
:102CC000BEF1010F5FFA8EF03FD0022840D058B914
:102CD00080200890BAF1010F5FFA8AF035D00228FF
:102CE00000F09580002836D06FF0150318460FB01D
:102CF000BDE8F08F0123B9697A6989F8063089F84F
:102D0000053000231846C9E904210FB0BDE8F08F53
:102D10000020012A0D90C8D10A7F10200590C2F32F
:102D2000810EC2F3011ACBE74FF480500D90BAE741
:102D30004FF400500D90B6E700220592BBE76FF00C
:102D40000F0318460FB0BDE8F08F6FF08503CDE795
:102D500000200890BEE7402007905BF80800496912
:102D6000DFF8B4E0009312F0400F14BF20220022DD
:102D70000692A0F10202B2FA82F2520989F8042006
:102D8000BCF1000F9CFAACF2B2FA82F208BF4FF02D
:102D9000FF32002C5EF82220099294FAA4F2DFF8A8
:102DA0007CE0B2FA82F208BF4FF0FF3202285EF8F0
:102DB00022200A923A7818BFB1FBF4F102F07F02A8
:102DC000284608BFB1FBFCF10C920B9100F0B4F85F
:102DD00003AA0146304605F011F9284600F0ACF888
:102DE0000C4C3A69215C177F8A59009B42F0020221
:102DF00017F0400F8A513FF479AF284600F09CF855
:102E0000215C009B8A5942F004028A516EE700203F
:102E10000790A2E7C8BF000818C000080CC000084F
:102E20000068C0F3400070470068C0F3401070476E
:102E30000068C0F3402070470068C0F3403070471E
:102E40000068C0F3404070470068C0F340507047CE
:102E50000068C0F3406070470068C0F380007047AE
:102E60000068C0F3801070470068C0F3802070478E
:102E70000068C0F3803070470068C0F3804070473E
:102E80000068C0F3805070470068C0F380607047EE
:102E900002234360704700BF20234360704700BF98
:102EA0004FF40073436070474FF400534360704722
:102EB0004FF40033436070474FF400134360704792
:102EC0004FF000734360704704234360704700BFB6
:102ED00040234360704700BF4FF4806343607047F6
:102EE0004FF48043436070474FF480234360704742
:102EF0004FF48003436070474FF080634360704736
:102F000008234360704700BF80234360704700BFC1
:102F10004FF40063436070474FF4004343607047D1
:102F20004FF40023436070474FF400034360704741
:102F30004FF0006343607047014B53F82000704727
:102F4000B8C00008014B53F8213018479CC0000856
:102F5000014B53F82130184780C00008704700BF6C
:102F600008B5094B094A53F82130D25C835813F055
:102F7000020307D0064B53F821309847003818BF9A
:102F8000012008BD184608BDB8C0000824C00008CC
:102F900048C0000808B5094B094A53F82130D25CF3
:102FA000835813F0040307D0064B53F82130984799
:102FB000003818BF012008BD184608BDB8C0000879
:102FC00024C0000864C00008014B53F821301847A2
:102FD0002CC0000800207047044B054A53F82130EC
:102FE000D25C835843F0010383507047B8C0000897
:102FF00024C00008084B094A53F82130D35CC2585A
:1030000022F00102C250C35813F0010F14BF6FF039
:103010000A000020704700BFB8C0000824C00008A4
:1030200043685B681B690B600020704743685B68FE
:1030300010B45C6962400A40624000205DF8044BB5
:103040005A61704743685B6800209961704700BF10
:1030500043685B6800209962704700BF43685A6804
:103060005369594000205161704700BF70B4056931
:10307000AE68E6B13346002400E0034699420DD025
:1030800018681C460028F8D16FF0150022B1E868D6
:103090000E60A96098B1002070BC70470B68E868AA
:1030A00084B18142236008BFEC6000230B60002ADA
:1030B000F1D0E868AE680E60A9600028EBD1E96045
:1030C00070BC70478142AB60EFD1EB60EDE700BFB1
:1030D0002DE9F043B2F5005F4768006983B00C4604
:1030E00057D0B2F5804F7DD00246404920461D465C
:1030F000FFF772FA0646002871D13D4BD7F80880D9
:1031000093E803006F4687E80300DFF8EC90484639
:1031100005F010F930B1D9F8083039461B68484637
:103120009847A0B1B5F5802F2FD0B5F5C02F2ED080
:10313000B5F5003F14BF002102212046FFF714FA25
:103140002046FFF7F1F9304603B0BDE8F08304F004
:103150000302043293000F229A4042EA9402D3B24F
:103160009B0003F1804303F58033110C91FAA1F128
:10317000B1FA81F108FA01F8996821EA124248EAA5
:103180000202B5F5802F9A60CFD10121D5E7032146
:10319000D3E701F0030304339A000F23934043EA7B
:1031A0009103DAB21349B868023251F82220190C9F
:1031B00002EA134391FAA1F2B2FA82F2D3409842A2
:1031C00001D00026BFE72046FFF7C0F92046FFF7F1
:1031D00017FA00212046FFF7C7F90026B3E76FF082
:1031E0000F06B0E76FF08506ADE700BFAD3300080E
:1031F00008BC0008000001408CB70008F0B5446826
:10320000012066688840C2F3801526EA00068D40DA
:1032100035436560A76890FAA0F602F0300CC2F35F
:10322000C11E3EB1B6FA86F67600032505FA06F60B
:1032300027EA060790FAA0F5002D54D0B5FA85F5D7
:103240006D000EFA05F53D43A560E76890FAA0F61B
:10325000C2F341223EB1B6FA86F67600032505FA9E
:1032600006F627EA060790FAA0F5D5B3B5FA85F574
:103270006D0002FA05F53D43BCF1200FE56018D062
:1032800090FAA0F221684FEA1C133AB1B2FA82F226
:103290005200032505FA02F221EA020190FAA0F099
:1032A00018B3B0FA80F0400003FA00F00843206041
:1032B000F0BD07291FDC90FAA0F2216A3AB1B2FAF8
:1032C00082F292000F2505FA02F221EA020190FA39
:1032D000A0F24AB3B2FA82F2920093400B43236207
:1032E000CEE74025C5E74025ABE7402003FA00F0D4
:1032F00008432060F0BD020A656A92FAA2F139B172
:10330000B1FA81F189000F2606FA01F125EA0105DB
:1033100092FAA2F232B1B2FA82F2920093402B43B7
:103320006362ADE78022F9E78022D6E708B593050E
:1033300011D593071FD4D3064FF0100C21D54CF4B0
:10334000007C1305406823D4520509D54268012347
:103350008B40936204E0D305406807D44FF0300CF3
:1033600000236246FFF74AFF002008BDD30614D5AC
:103370004FF4007CF4E7530715D5D3064FF0500CFB
:10338000DDD49306DDD5130540684CF4806CDBD5A5
:10339000426801238B409361E2E712F0200C18BFD2
:1033A0004FF4806CDCE76FF0850008BD8B688BB153
:1033B00070B501224E681C6802FA00F59A682A402E
:1033C0001946304601D05B68984714B123462468FB
:1033D000F4E770BD704700BF38B5036944685860B2
:1033E000084D284604F0A6FF40B1AB680C341B68BA
:1033F00021462846984700EAE07038BD6FF0120079
:1034000038BD00BF8CB7000808B54068FFF7F6FE6E
:10341000002008BD3BB1CB6F43F00103CB6701F146
:10342000640005F063BAD1F8D03093420DD0D1F8E2
:1034300084309342CB6F0CBF43F0020343F001038F
:10344000CB6701F1640005F051BACB6F43F0040380
:10345000CB6701F1640005F049BA00BF08B523202D
:1034600000220521FEF706FBBDE808402320FEF7F9
:10347000CFBA00BF2DE9F0415E4D0F46164680469B
:103480000FCD8AB002AC0FC495E80F0084E80F009E
:103490003B68B34200F0A380B388C3F34512082A07
:1034A00002D0102A40F0A280D8F8084013F4004F50
:1034B000636814BF43F0100323F0100363604E4DA4
:1034C000284604F037FF002800F08D80AB68DB68E9
:1034D000002B00F088804146284601AA9847002822
:1034E000C0F2818001983168012320FA03F28A42F8
:1034F00007D90133092BF8D16FF015000AB0BDE8E8
:10350000F08122680AA922F04002226001EB8303C5
:10351000226853F8243C22F038021A43B388226010
:103520009A0741D4226822F00202226022685807DA
:103530004CBF42F0010222F001022260226822F414
:10354000444222602268D9064CBF42F0800222F039
:1035500080022260226822F400522260B26803F0E6
:10356000010132B3226842F400722260626822F0E4
:103570000402626041B3226822F482722260C3F3C3
:103580004513082B636806BF23F4706343F4E063BC
:1035900043F4706363606368002043F480536360A6
:1035A0003E600AB0BDE8F081226842F0020222606B
:1035B000BCE7226822F4007259B942F480222260EA
:1035C000626842F004026260226842F48272226001
:1035D000D5E72260626822F004026260CBE7002037
:1035E0000AB0BDE8F0816FF0040087E76FF0850056
:1035F00084E700BF10BC00088CB7000810B5046950
:103600002368A3B19B6893B11A6882B1986806F0E9
:103610009FF923689B6818681B7901219940036909
:103620001B68194283680CBF1B69DB689847A36954
:103630000BB1002010BD636004F1100005F056F9D5
:10364000002010BD70B58468636823F080030D46C8
:1036500009686360636823F040036360636823F074
:10366000200382B016466360D9B18B68CBB11A686B
:10367000BAB18A88D00414D4986806F069F92B6826
:103680009B6818681A79036901211B6891401942E7
:1036900083680CBF1B69DB689847A368D90703D50B
:1036A000E368A368D907FBD4236803F48273B3F5F6
:1036B000827F15D0A3689B0606D5A3680193019B62
:1036C000236823F040032360236823F04003236032
:1036D0002E6405F1280002B0BDE8704005F006B97F
:1036E000A3681A06E6D5A3681A06F9D4E2E700BF74
:1036F00070B444680169A3689A6812F4B87F83B013
:1037000040F034818C6DC4B10D68AA88D6071DD5F0
:103710009D68AD075DD5002C5BD0C2F34512082A29
:103720004D6D00F013812A889A81013C8C65002C34
:1037300000F02C8102354D654FE00A6E002AE3D17E
:103740000169406803B070BCFFF77CBF9E68B60794
:10375000FCD5C2F34512082A4E6D7CD0002E00F035
:103760008D80002C64D032889A81013C8C65002CBD
:1037700000F08D8002364E659A68D607FCD5AC887D
:103780000A6ECD6DC4F34514082CDC6852D01DB10F
:10379000002A3DD02C800A6E002A39D0013A0A66F0
:1037A000002A31D1D1E913420834013AC1E9134268
:1037B00032B994E00834C1E91342002A00F08F8046
:1037C0006568012D02F1FF32F4D96D0822680D669B
:1037D0001DE05A6822F080025A609A68D40717D513
:1037E000CA6DAAB10C6E9CB10C68A488C4F34514D0
:1037F000082C00F08E80DC6814800A6E42B1013A19
:103800000A66002A00F0EA80CA6D0AB10232CA656F
:103810009A6812F4B87F40F0F5808B6D13B103B055
:1038200070BC70470A6E002A8AD003B070BC704723
:103830009C81A1E71DB1002AEAD02C700A6E002AF3
:10384000E6D0013A0A66002A38D0CA6D002ADFD0D5
:103850000132CA65DCE7002E59D004B134781C73FC
:103860008A6D002A3ED0013A0D688A65002A3BD055
:103870004A6D002A80D001324A657DE79E81002C86
:103880003FF47AAF013C8C65002C7FF475AF4C6C33
:103890008A6C0834013A4C648A642AB934E00834EA
:1038A000C1E91142002A2FD06668012E02F1FF32D1
:1038B000F5D9760822688E654A655DE7D1E913423D
:1038C0000834013AC1E913424AB16568013A002D52
:1038D0007FF47CAF0834C1E91342002AF5D10022FD
:1038E0000A6694E70D6847E74C6C8A6C0834013A25
:1038F0004C648A6442B16668013A002EDAD1083419
:10390000C1E91142002AF6D100228A65D4E7344683
:10391000A5E7DC6814700A6E002A3FF479AF013A1B
:103920000A66002A91D1D1E913420834013AC1E96B
:103930001342002AD3D06568013A002D7FF446AFC8
:103940000834C1E91342002AF5D1C8E72A781A736E
:103950008A6D002A3FF441AF013A8A655AB34A6D35
:10396000002A3FF43AAF01324A6536E79A685206B8
:1039700005D5DA680092009A9B680093009B6FF06F
:103980000402204603B070BCFFF75CBED1E91142CF
:103990000834013AC1E9114222B91CE00834C1E9F6
:1039A0001142C2B16568012D02F1FF32F6D96D08EE
:1039B00022688D65D8E7D1E911420834013AC1E99E
:1039C000114242B16568013A002DF1D10834C1E9D4
:1039D0001142002AF6D100228A65C5E7D1E91342D7
:1039E0000834013AC1E9134232B978E70834C1E931
:1039F0001342002A3FF473AF6568012D02F1FF32D4
:103A0000F4D9E2E69A68520608D5DA680192019A7A
:103A10009B680193019B6FF0040291E66FF0040232
:103A20008EE600BF2DE9F04F06691F4643689D688A
:103A3000D6F8CC3083B080460C46914623B1D6F8F8
:103A40008030002B40F0BB80B9F1000F23D0A38859
:103A5000990404D5B36913B973689C4208D04FF038
:103A6000FF3206F110004FF0FF3304F069FF74607D
:103A70002246D8F81010D8F80400FFF7FBFC0446E3
:103A800068B133689B8813F4005300F08F802046A0
:103A900003B0BDE8F08F002FD9D13C46F7E7B9F16C
:103AA000000F00F0A282D9F800207264002A00F012
:103AB000B382D9F80430B36433B998E20832C6E966
:103AC0001123002B00F093825168013B0029F5D0AF
:103AD0001368B1657365002F00F082823A68F26462
:103AE000002A00F09B827B68336533B97AE20832A2
:103AF000C6E91323002B00F075825168013B0029B1
:103B0000F5D013683166F36500233364AB68DA07D8
:103B100003D5EB68AB68DB07FBD42B68D8F8104003
:103B200043F040032B6023689BB19B688BB11868FE
:103B300078B11A79036901211B68914019428368A1
:103B400014BF1B69DB68984723689B68986805F079
:103B5000FFFE6B6843F020036B601FB16B6843F09E
:103B600040036B60336EB26D69683046934238BF74
:103B7000134650F8282B41F08001146869604FF417
:103B8000FA520A2103FB02F2B2FBF4F202F1C8037B
:103B9000A3FB012304F0D4FE002840F045823368E3
:103BA000346C9B8813F400537FF471AF736006F19B
:103BB000100004F09BFE204603B0BDE8F08F002A01
:103BC00000F01B82A3889A0404D5B36913B9736803
:103BD0009C4208D04FF0FF3206F110004FF0FF3347
:103BE00004F0AEFE746006F1640004F0D5FE2246D7
:103BF000D8F81010D8F80400FFF73CFC0446002861
:103C00007FF43FAFB9F1000F00F00182D9F8003026
:103C10007364002B00F00682D9F80420B26432B934
:103C2000F7E10833C6E91132002A00F0F281596841
:103C3000013A0029F5D01B68B1657365002F00F0CB
:103C4000E1813B68F364002B00F0EA817A68326519
:103C500032B9D9E10833C6E91332002A00F0D48121
:103C60005968013A0029F5D01B683166D8F810A0D0
:103C7000F365DAF8003000223264B3B19B68A3B177
:103C8000186890B11A79036901211B6891401942A3
:103C9000836814BF1B69DB689847DAF800309B68BB
:103CA000986805F055FED8F810A02B68B46DD6F8CA
:103CB000609043F0400322464C462B60002C00F0FD
:103CC000238112B1944228BF14460021DAF85CB077
:103CD000D8F80430F1670AF1A40920224846BAF85E
:103CE0008E700193B4FBF7F707F088FA019BCAF8CE
:103CF000B8700021BBF1000F00F027819AF8C620B0
:103D0000CAF8A8B0002A00F013819AF8C02061F325
:103D100005128AF8C0209B68DAF8C820CAF8989083
:103D20000C33CAF8A4309AF8C530CAF89CA0002B0E
:103D300014BF0023022302F00F029B0043EA022378
:103D4000BAF8C020DAE9200122F4706222F00C02F5
:103D50001343AAF8C03083680AF188021B689847A9
:103D60000146002840F0D680DAE9200183689B688C
:103D700098470146002840F0CD80D8F81070019097
:103D800007F1F00318462022BAF8D890DAF854B0B8
:103D9000D8F804A0B4FBF9F907F030FA0199C7F894
:103DA00004910346BBF1000F00F0E48097F8112165
:103DB000C7F8F0B0002A00F0D58097F80C2161F325
:103DC000830287F80C21DAF80820C7F8E43097F866
:103DD0001231D7F8CC00C7F8E870002BD7F81431AF
:103DE00002F10C0203F00F01C7F8F42018BF002302
:103DF000B7F80C2108BF02231B0122F4736243EAC7
:103E000001231343A7F80C318368D7F8D0101B683F
:103E100007F1D4029847014600287BD1D7E9330146
:103E200083689B6898470146002873D16B68D8F86F
:103E3000107043F001036B606B6843F002036B602A
:103E400007F1640906E0FB6FDB0779D4FB6F13F021
:103E5000060F29D142F210720023484604F070FD8B
:103E60000028F0D0D8F810A00446D8F80400514635
:103E70002246FFF7E7FB2B68D6F88000D6F88410BF
:103E800023F040032B606B6823F002036B606B68C8
:103E900023F001036B608368DB689847D6E9330140
:103EA0008368DB689847ECE5AB6813F4C05FFBD12F
:103EB000AB689F07FCD5AB681806F9D46B68B26D88
:103EC00023F002036B606B6823F001036B604AB15F
:103ED000944207D8121BB265002A6DD0736D0BB1E6
:103EE00023447365336EE3B19C4239D81B1B3366A0
:103EF000002B4CD0F16D99B32144F1651C46D8F8E4
:103F000010A0002C7FF4DDAE1446002A7FF4DDAE55
:103F10001446AAE7D8F810A00C46A6E70023C6E985
:103F20001733D8F810A01446002A7FF4CEAEEFE77E
:103F30009AF8C020022161F305128AF8C020EAE64F
:103F4000D8F810A06FF004048FE7394ACAF8A82007
:103F50009AF8C020022161F305128AF8C020DAE63F
:103F60001C46CCE797F80C21022161F3830287F805
:103F70000C2128E72E4AC7F8F020C2F800B097F8C5
:103F80000C21022161F3830287F80C211BE7F16CFD
:103F9000336D0831013BF16433652BB9BEE708315D
:103FA000C6E91313002BB9D04C68013B002CF6D0A6
:103FB0000B68C6E91734A2E7716CB36C0831013B9A
:103FC0007164B36423B915E00831C6E911138BB1EC
:103FD0004868013B0028F7D00B68B065024680E7CF
:103FE000C6E91377002333668DE5C6E911990023EE
:103FF000B3656FE50023B36573E7002F7FF4E2AD8F
:104000003C4644E5C6E91377002333662EE6C6E94D
:1040100011990023B36510E6B264E8E73265E1E781
:104020003365F1E7B364F4E76FF0730429E500BF8B
:104030003C0A00202DE9F0470569D0F8048082B0E1
:1040400004464F4E304604F075F9002800F0958084
:10405000B36830461B68414698470746002840F041
:104060008C80D8F80C0001AA394603F05DFF0028C7
:104070005BDB019B3A461979186803F077FF00284B
:1040800053DB2046D8F810309847D5F8800018B197
:1040900004F050F9002842D0D5F8CC0018B104F053
:1040A00049F900283BD0D5E9024304EBC3039C4205
:1040B00040D208344FF001082AE054F8080C14F8F4
:1040C000041C14F8033CD0F810E0D0F80890DEF897
:1040D00000C0D9F80090DA0754BF43F4B05383F41A
:1040E000D05323F4805208FA01FADB074CBF4CEAA4
:1040F0000A032CEA0A03CEF80030C847002804F16E
:10410000080412DBD5E9023203EBC2039E4211D24E
:1041100054F8080C264604F00DF90028CDD16FF0B4
:104120001207384602B0BDE8F0870746384602B0AD
:10413000BDE8F0872B68A3B19B6893B11A6882B180
:10414000986805F005FC2B689B6818681A79036964
:1041500001211B6891401942836814BFDB681B6909
:104160009847AB69002BDCD16B6005F1100004F0BF
:10417000BDFB384602B0BDE8F0876FF00407D0E71A
:104180008CB7000800F0DCBE014804F017BD00BF8A
:104190009802002008B505F0C3FB0A220023FCF7B3
:1041A0004FF808BD08B505F0BBFB0A220023FCF759
:1041B00047F8024B1B68C01A08BD00BF400A002028
:1041C00001207047014805F079BC00BFF8030020CA
:1041D00008B505F0A5FB0A220023FCF731F8014BD6
:1041E000186008BD400A0020014B1868704700BFE6
:1041F000400A00200A21A0FB010105F07BB900BFA5
:10420000704700BF704700BF4FF01002EFF31183FB
:1042100082F31288BFF36F8F03607047036883F3E4
:104220001188BFF36F8F7047074BDA6810B55C6871
:104230000AB1186890472CB100212046BDE8104013
:1042400005F040BF10BD00BF440A00202DE9F04139
:10425000274CA56884B0844617461E466DB1206879
:10426000009313460A466146A847224B5B6B0393B3
:10427000002004B0BDE8F041184704F144050223D2
:10428000D4F80480BFF35B8F55E8002F012A03D1D7
:1042900045E800300028F7D1BFF35B8F25D1E36CF0
:1042A0001A788A4202D91970E36C1A78A06C6146B8
:1042B00006F096FF236D03B11F80636D03B11E707E
:1042C0000C4BDB6A984700216160BFF35B8F55E8B8
:1042D000003F45E80012002AF9D1BFF35B8F40464A
:1042E00004B0BDE8F04105F0EDBE04B0BDE8F081DA
:1042F000440A002008C2000870B5144D022305F1DD
:1043000044046E68BFF35B8F54E8002F012A03D189
:1043100044E800310029F7D1BFF35B8F14D10C4B77
:10432000DB6A984700216960BFF35B8F54E8003F68
:1043300044E80012002AF9D1BFF35B8F26B1304662
:10434000BDE8704005F0BEBE70BD00BF440A00204D
:1043500008C20008F8B5154C0026666104F1440552
:1043600002236768BFF35B8F55E8002F012A03D152
:1043700045E800310029F7D1BFF35B8F14D10C4B16
:10438000DB6A98476660BFF35B8F55E8003F45E8FE
:104390000062002AF9D1BFF35B8F2FB13146384656
:1043A000BDE8F84005F08EBEF8BD00BF440A00200D
:1043B00008C2000870B50546164608461C4603F0BC
:1043C00085FF286000B3E2048168056906D514F40E
:1043D000406F03D0E3070FD584F4406424F4805287
:1043E000E4072B680BD50124B44023432B600B68F2
:1043F0003146BDE8704018472B6824F480520124F0
:10440000B44023EA0403F1E76FF0040070BD00BF7D
:104410002DE9F047414D8EB08A46696B002405AB0B
:1044200001270C94CDE90533CDE90744CDE90944D2
:104430000B940D938DF83170002968D0BFF35B8F1A
:1044400005F1440858E8001FA14203D148E8007074
:104450000028F7D1BFF35B8F5CD1DFF8C4906B60AD
:10446000D6B2D9F85430314638469847D9F8283072
:1044700050463146984795F83F300193AB8F95F8F9
:1044800039200093CDE9026795F83A30D9F82460D5
:1044900095F838103846B0470A23B840A0FB0323EC
:1044A000394609A805F04CFDA04203DB20460EB0BA
:1044B000BDE8F0870223BFF35B8F58E8002FBA42B4
:1044C00003D148E800310029F7D1BFF35B8F0CBF5F
:1044D0003E46264611D1D9F82C3098476C60BFF380
:1044E0005B8F58E8003F48E80042002AF9D1BFF34B
:1044F0005B8F20460EB0BDE8F0874FF0FF324FF0E3
:10450000FF33394609A805F01BFD3046CFE76FF0B1
:104510001500CCE76FF00F00C9E700BF440A002088
:1045200008C2000830B5124CBFF35B8F83B00D4654
:1045300004F1440C01205CE8001F002904D14CE880
:10454000000EBEF1000FF6D1BFF35B8F0CD163609C
:10455000084CD1B2636D019198472846A36A01992E
:104560009847002003B030BD6FF00F00FAE700BF9E
:10457000440A002008C200082DE9F0438DB0002451
:1045800003ABCDE90333CDE90544CDE90744344D10
:104590000A9401278DF8072009940B938DF8297050
:1045A00005F14408BFF35B8F58E8002FA24203D106
:1045B00048E800700028F7D1BFF35B8F4DD16B60E6
:1045C000169BDFF8A0902B65179B6B650DF1070319
:1045D000A964EB64FF21D9F85430AC6038469847A1
:1045E000D9F8343020469847DDE91423394607A826
:1045F00005F0A6FC061E05DB9DF8076030460DB0F1
:10460000BDE8F0830223BFF35B8F58E8002FBA4266
:1046100003D148E800310029F7D1BFF35B8F11D1F6
:10462000D9F82C3098476C60BFF35B8F58E8003F97
:1046300048E80042002AF9D1BFF35B8F30460DB045
:10464000BDE8F0834FF0FF324FF0FF33394607A843
:1046500005F076FC9DF80760D0E76FF00F06CDE718
:10466000440A002008C2000870B50E46EAB10029CD
:104670003DD0BFF35B8F214B012003F1440C5CE87C
:10468000004F002C03D14CE800010029F7D1BFF303
:104690005B8F2FD11A4CC3E90262FF21636D9847EB
:1046A000636B00209847002070BD01BBBFF35B8F98
:1046B000124D022305F1440454E8002F012A03D1CE
:1046C00044E800310029F7D1BFF35B8F0FD10C4BC9
:1046D000DB6A98476E60BFF35B8F54E8003F44E8A5
:1046E0000062002AF9D1BFF35B8F304670BD6FF0D6
:1046F000150070BD6FF00F0070BD00BF440A0020B0
:1047000008C200082DE9F0413E4EBFF35B8F8CB02C
:104710000C4606F144054FF0010855E8003F002B18
:1047200003D145E80082002AF7D1BFF35B8F65D142
:10473000354F2068FB689847637B002B3CD1E37AB8
:10474000002B37D11A46CDE903320A23029323897D
:104750000193BB690B930023CDE90733CDE9053302
:10476000012000930990A379627921790B9CA047DD
:10477000BFF35B8F022355E8002F012A03D145E8E0
:1047800000310029F7D1BFF35B8F0CBF012000205F
:104790000DD1FB6A984700207060BFF35B8F55E82E
:1047A000003F45E80002002AF9D1BFF35B8F0CB04F
:1047B000BDE8F081A27AC6E7CDF810802068616874
:1047C000A268E36806F1340CACE80F000022CDE9E2
:1047D00006220592E37A039323890293A379019336
:1047E000637900934FF47A630893FB690B9394F910
:1047F0000C1023790B9C4046A047B9E76FF00F00DF
:10480000D5E700BF440A002008C20008F0B58BB00D
:10481000002501AE0895CDE90355CDE9065505956E
:10482000CDE90166314D09961C46012308468DF8F5
:104830002130114605F14407BFF35B8F57E8002F85
:10484000002A04D147E8003CBCF1000FF6D1BFF3C9
:104850005B8F48D16E60264E264B6B612246F36B10
:10486000984754B922462346012105A805F068FB64
:1048700000280FDB00200BB0F0BD4FF4FA6202FB02
:1048800004F40A2284FB0223012105A805F058FB49
:104890000028EFDABFF35B8F022357E8002F012ACD
:1048A00003D147E800310029F7D1BFF35B8F11D165
:1048B000F36A984700236B60BFF35B8F57E8002FC4
:1048C00047E800310029F9D1BFF35B8F0020686110
:1048D0000BB0F0BD4FF0FF324FF0FF33012105A8C0
:1048E00005F02EFBF2E76FF00F00C4E7440A00204A
:1048F00008C200085543000891B130B50A4CCD7A82
:104900000B8985B0D2B202920120626A01950390B0
:1049100000938B7914464A790979A04705B030BDD8
:104920006FF01500704700BF08C2000800293ED094
:10493000F8B5204EBFF35B8F06F14404012054E824
:10494000005F002D03D144E80007002FF7D1BFF32B
:104950005B8F29D10D790868174F184951F8251038
:104960003D69A847BFF35B8F0546022354E8002F3B
:10497000012A03D144E800310029F7D1BFF35B8F4E
:104980000FD1FB6A984700237360BFF35B8F54E835
:10499000002F44E800310029F9D1BFF35B8F28468E
:1049A000F8BD6FF01500F8BD6FF00F00F8BD6FF0A7
:1049B00015007047440A002008C20008F4C100082E
:1049C00038B50F4BBFF35B8F03F14402002452E86C
:1049D000001F42E80045002DF9D1BFF35B8F094D60
:1049E000094A0A4919610A499961C3E9072218600D
:1049F0002A6803F110009047EB6A9847204638BDBB
:104A0000440A002008C2000829420008F9420008B0
:104A10004D42000801207047034B044AC01A03119D
:104A2000002052F823301847F00A0020A802002086
:104A30002DE9F843104C114E002A04F1100592FAAA
:104A4000A2F7B7FA87F7804608BF4FF0FF37A946AD
:104A500054F8043B434507D04C4505F1100506F1D9
:104A60000806F5D1BDE8F8833379BB42F4D1284676
:104A700004F0A4F8F0E700BFE00A002074C20008C8
:104A800030B589B00DF107050B4C0123CDE9045376
:104A900060F07F0004AD02238DF80700CDE9061217
:104AA000CDE90253606882680023156804F10801AB
:104AB00002AAA84709B030BDCC0A002030B58BB09F
:104AC0000DF1070306AD0B4C06930223CDE902530B
:104AD000CDE9045301238DF807000891606809921D
:104AE0000793826804AB156804F1080102AAA8477D
:104AF0000BB030BDCC0A002070B505468AB02F48F7
:104B00002F4C03F0E3FB6060002854D02D4B4FF492
:104B10008076C4E902362C4803F0D8FB2B4A10609B
:104B2000002845D04FF48673938000239360226160
:104B3000274941F6072308222046FFF73BFC08B12E
:104B40000AB070BD00214FF47A7004F0D3FC2068E5
:104B500003691B68DB058368314654BF1B69DB684A
:104B6000984700214FF47A7004F0C4FC06AA02238F
:104B7000CDE90223CDE90423012142200DF10702F2
:104B80000DF106038DF80700079160680991069200
:104B9000089382680F49146804AB02AAA047002852
:104BA00006DB2846FFF70CFF00EAE0700AB070BD94
:104BB0006FF00400C4E76FF01500C1E7A0C1000862
:104BC000CC0A002020A10700FCC00008300B002008
:104BD000F4C00008D40A002000207047704700BFCE
:104BE000704700BF704700BF10B5104C20680369C4
:104BF0001B68DA0583684FF4807154BFDB681B695A
:104C0000984700210A2004F075FC206803691B689E
:104C1000DB0583684FF480714CBFDB681B699847E4
:104C20003C20BDE81040002104F064BCCC0A002008
:104C30002DE9F84F314C324E324DDFF8D4A004F15B
:104C40001008A0F1040959F8043F002B41D028684E
:104C500003F03CFB51462060002844D0404603F05E
:104C600083FF95F805E0206829794EF4002B4BF47A
:104C7000807B01231EF0010FD0F810C0876803FA73
:104C800001F332D0DCF8002013435A46CCF8003050
:104C90003B68984720681C4B7360836895F804B0A4
:104CA000DB69012202FA0BF7B760E3B1314698479E
:104CB000002818DB206803691B681F428368594677
:104CC0009F694FF4A0320CBF4FF480234FF40033A0
:104CD000B8470E4B04349C4206F10C0605F108055A
:104CE00008F11008AFD1BDE8F88FDCF800304FF0C4
:104CF000010E0EFA01FE23EA0E03C6E7E00A0020C9
:104D00009C0A002074C20008314A0008F00A002002
:104D1000194A00082DE9F0418AB00223394E039365
:104D200005930DF107030021012206AD4D240693E2
:104D30000DF106038DF807408DF8051004468DF837
:104D4000061070680792099202950495089383688B
:104D500002AA1F6806F1080104ABB847002844DB2B
:104D6000142C2346A8BF1423022B9DF806209DF97E
:104D70000510B8BF0223112C02F0F80261F07F0188
:104D8000DBB235DC023B0B4342F004028DF8053008
:104D90008DF8062002AB0693892301248DF8083094
:104DA00002270DF105037068049507940994089390
:104DB000059783681449D3F8008004AA0023C047EC
:104DC000002812DB02AB06930DF106030893CD23F6
:104DD000CDE904577068079409948DF8083083680A
:104DE00009491C6804AA0023A0470AB0BDE8F08165
:104DF000053B0B4342F007028DF805308DF8062085
:104E0000C8E700BFCC0A0020D40A002010B50B4B25
:104E1000986982B00469836801A95B689847002893
:104E200004D0CCBF0120002002B010BD019823683F
:104E30005840C0F3802002B010BD00BFCC0A002053
:104E40003AB101380A4411F8013B00F8013F9142A0
:104E5000F9D170470023C0E90033C0E9031303818F
:104E600043617047F0B583B0054601A8FFF7CCF960
:104E70003DB1324E346814B944E0646934B1A5429E
:104E8000FBD101A8FFF7CAF903B0F0BD6B682B6036
:104E900001272F81FFF786F92B68316818442860B5
:104EA0000B68984214D24C7269613560FFF788F93B
:104EB0006F722E680446FFF775F92044864237D397
:104EC0002868FBF71DFC01A8FFF7A8F903B0F0BDA7
:104ED0004B696BB90B4600225D6101A86A61FFF75F
:104EE0009DF903B0F0BD5A691946002AF3D0134664
:104EF0001A689042F7D84D6101A86B61FFF78EF9EF
:104F000003B0F0BD6B682B6001232B81FFF760F9C4
:104F1000336803B15C726B613560FFF751F90123AF
:104F20006B722E680446FFF73DF920448642C7D2D3
:104F3000FFF738F920442860C3E700BF3C0B00208E
:104F4000F8B5FFF751F9274C0546FFF741F92768F7
:104F5000002F2FD0D7F814C0BCF1000F0CD0461B87
:104F60006346281A1968B1424FF0000288BF421800
:104F70001A605B69002BF5D1FB68C4F800C00026FD
:104F80003E72CBB138699847236853B912E0236861
:104F9000DA68596921601E726AB1186990472368FE
:104FA00043B11D68FFF7FEF88542F0D324680CB1C9
:104FB000637A13B1F8BDFEE7FEE7FFF701F90123BD
:104FC000637226680546FFF7EDF82844864204D34D
:104FD0002068BDE8F840FBF793BBFFF7E3F82844EF
:104FE0002060F6E73C0B002070B5224D82B00446ED
:104FF00001A8FFF709F92B685BB154B10022A34265
:10500000227202D111E09C4208D01A465B69002B43
:10501000F9D101A8FFF702F902B070BD63695361CD
:1050200001A8FFF7FBF802B070BD597A5C6989B13D
:105030005A72ACB12C60FFF7C3F801236372266883
:105040000546FFF7AFF8284486420DD32068FBF7EA
:1050500057FBDEE701A82C60FFF7E0F802B070BD57
:10506000FFF7B0F82C60D4E7FFF79CF828442060E5
:10507000EDE700BF3C0B002038B505460846FFF7BA
:10508000BFF804462846FFF7AFFFFFF799F8A042A4
:1050900038BF2046C5E9000038BD00BF08B5FFF79E
:1050A00079F8BDE80840FFF7ADB800BF00B9704718
:1050B00010B50446FFF76EF8034620461C46FFF77E
:1050C0009FF8201ABDE81040FFF79CB8FFF792B890
:1050D00070B5424C94F8E030012B82B007D0022B1F
:1050E00003D194F8E150012D29D002B070BD94F89D
:1050F000E1504DB3012DF8D194F82F31002BF4D0AD
:1051000002232A460DF1070112208DF80730FFF720
:10511000B7FC334B1B68002BE7D05C69002CE4D054
:105120001C202A460DF10701FFF7C8FC9DF8070077
:10513000234600F03F0002B0BDE87040184794F8E5
:105140002F21002AD1D0DCE7A26E002A43D094F8A8
:105150000C31002BC9D094F80D31002BC5D101269C
:105160002048FFF741FF32460DF10701112084F876
:105170000D61FFF7A3FC9DF80730F3405B42324618
:105180000DF107011B2084F80E31FFF797FC324622
:105190000DF107011C209DF80750FFF78FFC9DF8CB
:1051A000070040EA052343F609551B0A05FB00F0FA
:1051B000803005FB03F303EB102332460DF10701AA
:1051C0000C20C4F81031FFF779FC9DF807305B091B
:1051D00084F8143189E784F80C31BCE7740C0020A2
:1051E000400B0020440B002070B582B001220DF16D
:1051F00007013E204F4CFFF761FC01220DF1070132
:105200003F20FFF75BFC94F8E050012D06D0022D03
:1052100002D194F8E1502DB302B070BD94F8E16072
:10522000002E39D0012EF7D1FFF7F0FD0028F3D082
:105230004148FFF7D9FE802332460DF107011220C5
:105240008DF80730FFF71CFC3C4B1B68002284F8EC
:10525000E020002BE0D0DB68002BDDD002B0BDE801
:1052600070401847FFF7D2FD0128D5D0B4F81801D7
:10527000B4F8163194F81B2131491B1A93420144AA
:1052800039DD2846FFF7FCFBB4F8182194F81B31F0
:105290001344A4F81831BFE7FFF7B8FD0028BBD0CE
:1052A0002848FFF7A1FEB4F81621B4F8181152EA05
:1052B00001030BD194F8FE002A4670BB04F58B71F4
:1052C000FFF7FCFBB4F81621B4F8181194F81A0192
:1052D0001B4B521A8242194416DB421ED2B20020E6
:1052E000FFF7ECFBB4F8182194F81A31013A134493
:1052F000A4F8183190E7DAB22846FFF7C1FBB4F8FA
:105300001631A4F8183187E7D2B20020FFF7D6FB98
:10531000B4F81631A4F818317EE70DF107013220F8
:10532000FFF7CCFB9DF80720B4F81811A4F816215C
:10533000CCE700BF740C00205C0B0020400B002069
:10534000740B0020440B002070B582B001220DF1D7
:1053500007013E20BF4CFFF7B1FB01220DF1070111
:105360003F20FFF7ABFB94F8E0500023012D8DF8B0
:10537000063014D0022D18D1B748FFF735FE94F847
:10538000E120012A43D0B54B1B68002284F8E020BD
:105390005BB11B684BB102B0BDE87040184794F890
:1053A000E160002E3CD0012E01D002B070BD402340
:1053B000324612200DF107018DF80730FFF760FB30
:1053C00032460DF107011220FFF778FB9DF80730F8
:1053D0008DF806309DF806309B0674D520233246A2
:1053E0000DF1070112208DF80730FFF749FB94F803
:1053F00032310BB984F8E0309948FFF7F5FD974B4F
:105400001B68002BD1D01B69002BC4D1CDE708232A
:105410000DF1070112208DF80730FFF731FBB2E7DD
:1054200094F80031002B40F0BF80B4F81621B4F896
:10543000183152EA03010CD194F8FE00002840F024
:10544000EA8001228749FFF739FB94F81621B4F866
:1054500018318549D21A1944D2B20020FFF72EFB29
:10546000B4F816317E48A4F81831FFF7BDFD94F862
:105470000231002B00F0858001220DF107010D2083
:10548000FFF71CFB9DF80730012243F040030DF1AC
:1054900007010D208DF80730FFF7F2FA6F4B1B68FC
:1054A00043B19D6835B194F90E21B4F816116E48D8
:1054B0000023A8470023A4F80C31A4F81831A4F85D
:1054C000163102B070BD32460DF107011920FFF709
:1054D000F5FA9DF9073002339B1032460DF10701B2
:1054E0001A2084F83C31FFF7E9FA94F93C219DF841
:1054F0000730002A4FEA131149DB5C4AD4F8E40074
:105500009BB290428CBF9D3BA43B0B44A4F83E3120
:1055100001220DF107011320FFF7D0FA9DF80730A3
:1055200084F8403101220DF107011020FFF7C6FA7F
:1055300001220DF107010D20FFF7A2FA94F8402196
:1055400049490020FFF7BAFA94F832310BB984F8D0
:10555000E0304348FFF748FD404B1B68002B3FF409
:1055600024AF9D68002D3FF420AF94F93C31B4F98D
:105570003E2194F840113C48AC4602B0BDE8704072
:1055800060473B4884F8E030FFF72EFD86E71A4479
:10559000D4F8E400354B92B298428CBF9D3AA43ABD
:1055A0008B18A4F83E31B3E72A460DF107013F20DE
:1055B000FFF784FA9DF807308DF806309DF8063025
:1055C0009A073FF532AF0B232A460DF107013E2023
:1055D0008DF80730FFF754FA10232A460DF1070122
:1055E0003F208DF80730FFF74BFA1D48FFF7FCFC12
:1055F00094F80261D6B91E48FFF7F6FC84F8E06023
:10560000164B1B68002B3FF455AF1B69002B3FF472
:1056100051AF98474EE701220DF107013220FFF705
:105620004DFA9DF80720A4F8162110E72A460DF13F
:1056300007010D20FFF742FA9DF807302A4643F094
:1056400040030DF107010D208DF80730FFF718FA20
:10565000D6E700BF740C0020B80D0020400B0020DE
:105660005C0B00208A0D0020740B002040DD4A1FD7
:10567000440B002010B5044682B0C0B90120FFF7EA
:10568000ADFA012210460DF10701FFF717FA9DF858
:105690000710012221F0070141EA040310460DF131
:1056A00007018DF80730FFF7EBF902B010BD0120BC
:1056B000FFF796FA0020FFF791FA2046FFF792FADB
:1056C000DFE700BF054B93F8E1202AB993F80C21DE
:1056D00012B9012283F80C21704700BF740C00201E
:1056E00030B51D4B93F8E140012C83B001D003B0DD
:1056F00030BD122022460DF10701FFF7DFF99DF8BA
:10570000070010F0010514D0052322460DF1070112
:1057100012208DF80730FFF7B3F9104B1B68002BF0
:10572000E5D09B69002BE2D0204603B0BDE83040B5
:105730001847042322460DF1070112208DF8073087
:10574000FFF79EF9054B1B68002BD0D09B69002BFF
:10575000CDD02846E9E700BF740C0020400B0020A4
:10576000014B93F8E0007047740C0020184910B505
:10577000A1FB00231B0B43F6095404FB130241F663
:10578000846404EB0224A1FB04241B0282B003EB1B
:105790001434104B210C8DF80710C3F8E4000DF100
:1057A000070101220620FFF76BF9230A0DF107011B
:1057B000012207208DF80730FFF762F901220DF171
:1057C000070108208DF80740FFF75AF902B010BD15
:1057D00083DE1B43740C0020F0B583B001220DF171
:1057E00007010920FFF76AF901220DF107010620E0
:1057F0009DF80760FFF762F901220DF1070107200C
:105800009DF80750FFF75AF99DF8074001220DF166
:1058100007010820FFF752F924029DF8073043F6EC
:10582000095244EA054502FB03F300212D0A8033A7
:1058300002FB05F58DF8071001220DF10701092083
:1058400005EB1325FFF71CF901220DF107013B20A1
:10585000FFF734F99DF80730012243F040030DF1C2
:1058600007013B208DF80730FFF70AF901220DF1FF
:1058700007013B20FFF722F99DF8073013F02004C1
:10588000F4D1234B234FC3F8E4700122D9230DF147
:10589000070106208DF80730FFF7F2F801220DF11D
:1058A000070107208DF80740FFF7EAF801220DF104
:1058B000070108208DF80740FFF7E2F801220DF1FB
:1058C00007013B20FFF7FAF89DF80730012243F06B
:1058D00040030DF107013B208DF80730FFF7D0F8AA
:1058E00001220DF107013B20FFF7E8F89DF8073092
:1058F0009B06F5D401220DF1070109208DF8076000
:10590000FFF7BEF8284603B0BDE8F040FFF72EBF12
:10591000740C002000A1BC3370B5BDF810C09DF818
:1059200014409DF818E09DF81C50002841D0012833
:105930003DD1501F012803F1040356D900294DD051
:10594000012903BFA2F10C06B6FA86F676090026F5
:105950004FEACE0E0DB10EF1100EAEEB820E90009E
:105960000CB90EF1140E062AA2F1020445D8BEF1BC
:10597000000FACBF00EB0E02021C013A92FBF0F2EA
:1059800003FB02CC0CF10E0C02294AD8254B4FEA3E
:105990008C0C53F821200CF1010000FA04FC4FF4A8
:1059A0007A73501E03FB0C00B0FBF2F070BD0020B8
:1059B00070BD4FEACC0C0CB90CF1080C0CF1180CB2
:1059C0000DB10EF1020E0CEBCE0E4FF47A7002F117
:1059D000FF3C00FB0ECCBCFBF2F070BDA2F10B064D
:1059E000012E8CBF00260126B2E7BCF10C0F38BF98
:1059F0004FF00C0C0029A3D1F0E70EF1080E76B1A0
:105A0000A200BEF1000FACBF02EB0E00101C01386B
:105A100090FBF2F203FB02CC0CF10C0CB4E7024653
:105A2000EFE7FFDEB4C20008B0B5994C84B094F83B
:105A3000E1508DF807100746002D00F0BB80012DC6
:105A40004DD194F831310DF10F012A4600913320E8
:105A5000002B00F0E480FFF731F89DF80F3000993B
:105A600023F041032A4633208DF80F30FFF708F862
:105A700019232A4600998DF80F303B20FFF700F8D4
:105A80009DF80730009984F84031012222208DF8DA
:105A90000F3000250091FEF7F3FF00998DF80F50AD
:105AA00001220E20FEF7ECFF00998DF80F50012225
:105AB0000D20FEF7E5FF012200991046FEF7FEFFDC
:105AC0009DF80F3033F0F80500F0CF809DF80720E7
